{
	"2. Solidity/Projet1/Voting.sol": {
		"Voting": {
			"abi": [
				{
					"inputs": [],
					"stateMutability": "nonpayable",
					"type": "constructor"
				},
				{
					"inputs": [
						{
							"internalType": "address",
							"name": "owner",
							"type": "address"
						}
					],
					"name": "OwnableInvalidOwner",
					"type": "error"
				},
				{
					"inputs": [
						{
							"internalType": "address",
							"name": "account",
							"type": "address"
						}
					],
					"name": "OwnableUnauthorizedAccount",
					"type": "error"
				},
				{
					"anonymous": false,
					"inputs": [
						{
							"indexed": true,
							"internalType": "address",
							"name": "previousOwner",
							"type": "address"
						},
						{
							"indexed": true,
							"internalType": "address",
							"name": "newOwner",
							"type": "address"
						}
					],
					"name": "OwnershipTransferred",
					"type": "event"
				},
				{
					"anonymous": false,
					"inputs": [
						{
							"indexed": false,
							"internalType": "address",
							"name": "voter",
							"type": "address"
						},
						{
							"indexed": false,
							"internalType": "string",
							"name": "message",
							"type": "string"
						}
					],
					"name": "ProposalDuplicate",
					"type": "event"
				},
				{
					"anonymous": false,
					"inputs": [
						{
							"indexed": false,
							"internalType": "uint256",
							"name": "proposalId",
							"type": "uint256"
						}
					],
					"name": "ProposalRegistered",
					"type": "event"
				},
				{
					"anonymous": false,
					"inputs": [
						{
							"indexed": false,
							"internalType": "address",
							"name": "voter",
							"type": "address"
						},
						{
							"indexed": false,
							"internalType": "uint256",
							"name": "proposalId",
							"type": "uint256"
						}
					],
					"name": "Voted",
					"type": "event"
				},
				{
					"anonymous": false,
					"inputs": [
						{
							"indexed": false,
							"internalType": "address",
							"name": "voter",
							"type": "address"
						}
					],
					"name": "VoterAlreadyRegistered",
					"type": "event"
				},
				{
					"anonymous": false,
					"inputs": [
						{
							"indexed": false,
							"internalType": "address",
							"name": "voterAddress",
							"type": "address"
						}
					],
					"name": "VoterRegistered",
					"type": "event"
				},
				{
					"anonymous": false,
					"inputs": [
						{
							"indexed": false,
							"internalType": "enum Voting.WorkflowStatus",
							"name": "previousStatus",
							"type": "uint8"
						},
						{
							"indexed": false,
							"internalType": "enum Voting.WorkflowStatus",
							"name": "newStatus",
							"type": "uint8"
						}
					],
					"name": "WorkflowStatusChange",
					"type": "event"
				},
				{
					"inputs": [],
					"name": "countVotes",
					"outputs": [],
					"stateMutability": "nonpayable",
					"type": "function"
				},
				{
					"inputs": [],
					"name": "endProposalsRegistration",
					"outputs": [],
					"stateMutability": "nonpayable",
					"type": "function"
				},
				{
					"inputs": [],
					"name": "endVotingSession",
					"outputs": [],
					"stateMutability": "nonpayable",
					"type": "function"
				},
				{
					"inputs": [],
					"name": "getBallotStatus",
					"outputs": [
						{
							"internalType": "enum Voting.WorkflowStatus",
							"name": "",
							"type": "uint8"
						}
					],
					"stateMutability": "view",
					"type": "function"
				},
				{
					"inputs": [],
					"name": "getProposals",
					"outputs": [
						{
							"components": [
								{
									"internalType": "string",
									"name": "description",
									"type": "string"
								},
								{
									"internalType": "uint256",
									"name": "voteCount",
									"type": "uint256"
								}
							],
							"internalType": "struct Voting.Proposal[]",
							"name": "",
							"type": "tuple[]"
						}
					],
					"stateMutability": "view",
					"type": "function"
				},
				{
					"inputs": [],
					"name": "getVoters",
					"outputs": [
						{
							"internalType": "address[]",
							"name": "",
							"type": "address[]"
						}
					],
					"stateMutability": "view",
					"type": "function"
				},
				{
					"inputs": [],
					"name": "getWinner",
					"outputs": [
						{
							"internalType": "address",
							"name": "",
							"type": "address"
						}
					],
					"stateMutability": "view",
					"type": "function"
				},
				{
					"inputs": [],
					"name": "getWinningProposal",
					"outputs": [
						{
							"components": [
								{
									"internalType": "string",
									"name": "description",
									"type": "string"
								},
								{
									"internalType": "uint256",
									"name": "voteCount",
									"type": "uint256"
								}
							],
							"internalType": "struct Voting.Proposal",
							"name": "",
							"type": "tuple"
						}
					],
					"stateMutability": "view",
					"type": "function"
				},
				{
					"inputs": [],
					"name": "owner",
					"outputs": [
						{
							"internalType": "address",
							"name": "",
							"type": "address"
						}
					],
					"stateMutability": "view",
					"type": "function"
				},
				{
					"inputs": [
						{
							"internalType": "address[]",
							"name": "voters",
							"type": "address[]"
						}
					],
					"name": "register",
					"outputs": [],
					"stateMutability": "nonpayable",
					"type": "function"
				},
				{
					"inputs": [
						{
							"internalType": "address",
							"name": "voterAddr",
							"type": "address"
						},
						{
							"internalType": "string",
							"name": "voterProposal",
							"type": "string"
						}
					],
					"name": "registerProposal",
					"outputs": [],
					"stateMutability": "nonpayable",
					"type": "function"
				},
				{
					"inputs": [],
					"name": "renounceOwnership",
					"outputs": [],
					"stateMutability": "nonpayable",
					"type": "function"
				},
				{
					"inputs": [],
					"name": "resetVoting",
					"outputs": [],
					"stateMutability": "nonpayable",
					"type": "function"
				},
				{
					"inputs": [],
					"name": "startProposalsRegistration",
					"outputs": [],
					"stateMutability": "nonpayable",
					"type": "function"
				},
				{
					"inputs": [],
					"name": "startVotingSession",
					"outputs": [],
					"stateMutability": "nonpayable",
					"type": "function"
				},
				{
					"inputs": [],
					"name": "tallyVotes",
					"outputs": [],
					"stateMutability": "nonpayable",
					"type": "function"
				},
				{
					"inputs": [
						{
							"internalType": "address",
							"name": "newOwner",
							"type": "address"
						}
					],
					"name": "transferOwnership",
					"outputs": [],
					"stateMutability": "nonpayable",
					"type": "function"
				},
				{
					"inputs": [
						{
							"internalType": "uint256",
							"name": "proposalId",
							"type": "uint256"
						}
					],
					"name": "vote",
					"outputs": [],
					"stateMutability": "nonpayable",
					"type": "function"
				}
			],
			"devdoc": {
				"errors": {
					"OwnableInvalidOwner(address)": [
						{
							"details": "The owner is not a valid owner account. (eg. `address(0)`)"
						}
					],
					"OwnableUnauthorizedAccount(address)": [
						{
							"details": "The caller account is not authorized to perform an operation."
						}
					]
				},
				"kind": "dev",
				"methods": {
					"owner()": {
						"details": "Returns the address of the current owner."
					},
					"renounceOwnership()": {
						"details": "Leaves the contract without owner. It will not be possible to call `onlyOwner` functions. Can only be called by the current owner. NOTE: Renouncing ownership will leave the contract without an owner, thereby disabling any functionality that is only available to the owner."
					},
					"transferOwnership(address)": {
						"details": "Transfers ownership of the contract to a new account (`newOwner`). Can only be called by the current owner."
					}
				},
				"version": 1
			},
			"evm": {
				"assembly": "    /* \"2. Solidity/Projet1/Voting.sol\":111:6701  contract Voting is Ownable {... */\n  mstore(0x40, 0x80)\n    /* \"2. Solidity/Projet1/Voting.sol\":1208:1357  constructor() Ownable(msg.sender) { ... */\n  callvalue\n  dup1\n  iszero\n  tag_1\n  jumpi\n  revert(0x00, 0x00)\ntag_1:\n  pop\n    /* \"2. Solidity/Projet1/Voting.sol\":1230:1240  msg.sender */\n  caller\n    /* \"@openzeppelin/contracts/access/Ownable.sol\":1297:1298  0 */\n  0x00\n    /* \"@openzeppelin/contracts/access/Ownable.sol\":1273:1299  initialOwner == address(0) */\n  0xffffffffffffffffffffffffffffffffffffffff\n  and\n    /* \"@openzeppelin/contracts/access/Ownable.sol\":1273:1285  initialOwner */\n  dup2\n    /* \"@openzeppelin/contracts/access/Ownable.sol\":1273:1299  initialOwner == address(0) */\n  0xffffffffffffffffffffffffffffffffffffffff\n  and\n  sub\n    /* \"@openzeppelin/contracts/access/Ownable.sol\":1269:1364  if (initialOwner == address(0)) {... */\n  tag_5\n  jumpi\n    /* \"@openzeppelin/contracts/access/Ownable.sol\":1350:1351  0 */\n  0x00\n    /* \"@openzeppelin/contracts/access/Ownable.sol\":1322:1353  OwnableInvalidOwner(address(0)) */\n  mload(0x40)\n  0x1e4fbdf700000000000000000000000000000000000000000000000000000000\n  dup2\n  mstore\n  0x04\n  add\n  tag_6\n  swap2\n  swap1\n  tag_7\n  jump\t// in\ntag_6:\n  mload(0x40)\n  dup1\n  swap2\n  sub\n  swap1\n  revert\n    /* \"@openzeppelin/contracts/access/Ownable.sol\":1269:1364  if (initialOwner == address(0)) {... */\ntag_5:\n    /* \"@openzeppelin/contracts/access/Ownable.sol\":1373:1405  _transferOwnership(initialOwner) */\n  tag_8\n    /* \"@openzeppelin/contracts/access/Ownable.sol\":1392:1404  initialOwner */\n  dup2\n    /* \"@openzeppelin/contracts/access/Ownable.sol\":1373:1391  _transferOwnership */\n  shl(0x20, tag_9)\n    /* \"@openzeppelin/contracts/access/Ownable.sol\":1373:1405  _transferOwnership(initialOwner) */\n  0x20\n  shr\n  jump\t// in\ntag_8:\n    /* \"@openzeppelin/contracts/access/Ownable.sol\":1225:1412  constructor(address initialOwner) {... */\n  pop\n    /* \"2. Solidity/Projet1/Voting.sol\":1275:1296  Voter(true, false, 0) */\n  mload(0x40)\n  dup1\n  0x60\n  add\n  0x40\n  mstore\n  dup1\n    /* \"2. Solidity/Projet1/Voting.sol\":1281:1285  true */\n  0x01\n    /* \"2. Solidity/Projet1/Voting.sol\":1275:1296  Voter(true, false, 0) */\n  iszero\n  iszero\n  dup2\n  mstore\n  0x20\n  add\n    /* \"2. Solidity/Projet1/Voting.sol\":1287:1292  false */\n  0x00\n    /* \"2. Solidity/Projet1/Voting.sol\":1275:1296  Voter(true, false, 0) */\n  iszero\n  iszero\n  dup2\n  mstore\n  0x20\n  add\n    /* \"2. Solidity/Projet1/Voting.sol\":1294:1295  0 */\n  0x00\n    /* \"2. Solidity/Projet1/Voting.sol\":1275:1296  Voter(true, false, 0) */\n  dup2\n  mstore\n  pop\n    /* \"2. Solidity/Projet1/Voting.sol\":1253:1260  _voters */\n  0x01\n    /* \"2. Solidity/Projet1/Voting.sol\":1253:1272  _voters[msg.sender] */\n  0x00\n    /* \"2. Solidity/Projet1/Voting.sol\":1261:1271  msg.sender */\n  caller\n    /* \"2. Solidity/Projet1/Voting.sol\":1253:1272  _voters[msg.sender] */\n  0xffffffffffffffffffffffffffffffffffffffff\n  and\n  0xffffffffffffffffffffffffffffffffffffffff\n  and\n  dup2\n  mstore\n  0x20\n  add\n  swap1\n  dup2\n  mstore\n  0x20\n  add\n  0x00\n  keccak256\n    /* \"2. Solidity/Projet1/Voting.sol\":1253:1296  _voters[msg.sender] = Voter(true, false, 0) */\n  0x00\n  dup3\n  add\n  mload\n  dup2\n  0x00\n  add\n  exp(0x0100, 0x00)\n  dup2\n  sload\n  dup2\n  0xff\n  mul\n  not\n  and\n  swap1\n  dup4\n  iszero\n  iszero\n  mul\n  or\n  swap1\n  sstore\n  pop\n  0x20\n  dup3\n  add\n  mload\n  dup2\n  0x00\n  add\n  exp(0x0100, 0x01)\n  dup2\n  sload\n  dup2\n  0xff\n  mul\n  not\n  and\n  swap1\n  dup4\n  iszero\n  iszero\n  mul\n  or\n  swap1\n  sstore\n  pop\n  0x40\n  dup3\n  add\n  mload\n  dup2\n  0x01\n  add\n  sstore\n  swap1\n  pop\n  pop\n    /* \"2. Solidity/Projet1/Voting.sol\":1321:1350  WorkflowStatus.registerVoters */\n  0x00\n    /* \"2. Solidity/Projet1/Voting.sol\":1306:1318  ballotStatus */\n  0x07\n  0x00\n    /* \"2. Solidity/Projet1/Voting.sol\":1306:1350  ballotStatus = WorkflowStatus.registerVoters */\n  0x0100\n  exp\n  dup2\n  sload\n  dup2\n  0xff\n  mul\n  not\n  and\n  swap1\n  dup4\n  0x05\n  dup2\n  gt\n  iszero\n  tag_11\n  jumpi\n  tag_12\n  tag_13\n  jump\t// in\ntag_12:\ntag_11:\n  mul\n  or\n  swap1\n  sstore\n  pop\n    /* \"2. Solidity/Projet1/Voting.sol\":111:6701  contract Voting is Ownable {... */\n  jump(tag_14)\n    /* \"@openzeppelin/contracts/access/Ownable.sol\":2912:3099  function _transferOwnership(address newOwner) internal virtual {... */\ntag_9:\n    /* \"@openzeppelin/contracts/access/Ownable.sol\":2985:3001  address oldOwner */\n  0x00\n    /* \"@openzeppelin/contracts/access/Ownable.sol\":3004:3010  _owner */\n  0x00\n  0x00\n  swap1\n  sload\n  swap1\n  0x0100\n  exp\n  swap1\n  div\n  0xffffffffffffffffffffffffffffffffffffffff\n  and\n    /* \"@openzeppelin/contracts/access/Ownable.sol\":2985:3010  address oldOwner = _owner */\n  swap1\n  pop\n    /* \"@openzeppelin/contracts/access/Ownable.sol\":3029:3037  newOwner */\n  dup2\n    /* \"@openzeppelin/contracts/access/Ownable.sol\":3020:3026  _owner */\n  0x00\n  0x00\n    /* \"@openzeppelin/contracts/access/Ownable.sol\":3020:3037  _owner = newOwner */\n  0x0100\n  exp\n  dup2\n  sload\n  dup2\n  0xffffffffffffffffffffffffffffffffffffffff\n  mul\n  not\n  and\n  swap1\n  dup4\n  0xffffffffffffffffffffffffffffffffffffffff\n  and\n  mul\n  or\n  swap1\n  sstore\n  pop\n    /* \"@openzeppelin/contracts/access/Ownable.sol\":3083:3091  newOwner */\n  dup2\n    /* \"@openzeppelin/contracts/access/Ownable.sol\":3052:3092  OwnershipTransferred(oldOwner, newOwner) */\n  0xffffffffffffffffffffffffffffffffffffffff\n  and\n    /* \"@openzeppelin/contracts/access/Ownable.sol\":3073:3081  oldOwner */\n  dup2\n    /* \"@openzeppelin/contracts/access/Ownable.sol\":3052:3092  OwnershipTransferred(oldOwner, newOwner) */\n  0xffffffffffffffffffffffffffffffffffffffff\n  and\n  0x8be0079c531659141344cd1fd0a4f28419497f9722a3daafe3b4186f6b6457e0\n  mload(0x40)\n  mload(0x40)\n  dup1\n  swap2\n  sub\n  swap1\n  log3\n    /* \"@openzeppelin/contracts/access/Ownable.sol\":2975:3099  {... */\n  pop\n    /* \"@openzeppelin/contracts/access/Ownable.sol\":2912:3099  function _transferOwnership(address newOwner) internal virtual {... */\n  pop\n  jump\t// out\n    /* \"#utility.yul\":7:133   */\ntag_16:\n    /* \"#utility.yul\":44:51   */\n  0x00\n    /* \"#utility.yul\":84:126   */\n  0xffffffffffffffffffffffffffffffffffffffff\n    /* \"#utility.yul\":77:82   */\n  dup3\n    /* \"#utility.yul\":73:127   */\n  and\n    /* \"#utility.yul\":62:127   */\n  swap1\n  pop\n    /* \"#utility.yul\":7:133   */\n  swap2\n  swap1\n  pop\n  jump\t// out\n    /* \"#utility.yul\":139:235   */\ntag_17:\n    /* \"#utility.yul\":176:183   */\n  0x00\n    /* \"#utility.yul\":205:229   */\n  tag_22\n    /* \"#utility.yul\":223:228   */\n  dup3\n    /* \"#utility.yul\":205:229   */\n  tag_16\n  jump\t// in\ntag_22:\n    /* \"#utility.yul\":194:229   */\n  swap1\n  pop\n    /* \"#utility.yul\":139:235   */\n  swap2\n  swap1\n  pop\n  jump\t// out\n    /* \"#utility.yul\":241:359   */\ntag_18:\n    /* \"#utility.yul\":328:352   */\n  tag_24\n    /* \"#utility.yul\":346:351   */\n  dup2\n    /* \"#utility.yul\":328:352   */\n  tag_17\n  jump\t// in\ntag_24:\n    /* \"#utility.yul\":323:326   */\n  dup3\n    /* \"#utility.yul\":316:353   */\n  mstore\n    /* \"#utility.yul\":241:359   */\n  pop\n  pop\n  jump\t// out\n    /* \"#utility.yul\":365:587   */\ntag_7:\n    /* \"#utility.yul\":458:462   */\n  0x00\n    /* \"#utility.yul\":496:498   */\n  0x20\n    /* \"#utility.yul\":485:494   */\n  dup3\n    /* \"#utility.yul\":481:499   */\n  add\n    /* \"#utility.yul\":473:499   */\n  swap1\n  pop\n    /* \"#utility.yul\":509:580   */\n  tag_26\n    /* \"#utility.yul\":577:578   */\n  0x00\n    /* \"#utility.yul\":566:575   */\n  dup4\n    /* \"#utility.yul\":562:579   */\n  add\n    /* \"#utility.yul\":553:559   */\n  dup5\n    /* \"#utility.yul\":509:580   */\n  tag_18\n  jump\t// in\ntag_26:\n    /* \"#utility.yul\":365:587   */\n  swap3\n  swap2\n  pop\n  pop\n  jump\t// out\n    /* \"#utility.yul\":593:773   */\ntag_13:\n    /* \"#utility.yul\":641:718   */\n  0x4e487b7100000000000000000000000000000000000000000000000000000000\n    /* \"#utility.yul\":638:639   */\n  0x00\n    /* \"#utility.yul\":631:719   */\n  mstore\n    /* \"#utility.yul\":738:742   */\n  0x21\n    /* \"#utility.yul\":735:736   */\n  0x04\n    /* \"#utility.yul\":728:743   */\n  mstore\n    /* \"#utility.yul\":762:766   */\n  0x24\n    /* \"#utility.yul\":759:760   */\n  0x00\n    /* \"#utility.yul\":752:767   */\n  revert\n    /* \"2. Solidity/Projet1/Voting.sol\":111:6701  contract Voting is Ownable {... */\ntag_14:\n  dataSize(sub_0)\n  dup1\n  dataOffset(sub_0)\n  0x00\n  codecopy\n  0x00\n  return\nstop\n\nsub_0: assembly {\n        /* \"2. Solidity/Projet1/Voting.sol\":111:6701  contract Voting is Ownable {... */\n      mstore(0x40, 0x80)\n      callvalue\n      dup1\n      iszero\n      tag_1\n      jumpi\n      revert(0x00, 0x00)\n    tag_1:\n      pop\n      jumpi(tag_2, lt(calldatasize, 0x04))\n      shr(0xe0, calldataload(0x00))\n      dup1\n      0xa10cfae5\n      gt\n      tag_21\n      jumpi\n      dup1\n      0xcdd72253\n      gt\n      tag_22\n      jumpi\n      dup1\n      0xcdd72253\n      eq\n      tag_16\n      jumpi\n      dup1\n      0xe09b8c79\n      eq\n      tag_17\n      jumpi\n      dup1\n      0xe5349fe8\n      eq\n      tag_18\n      jumpi\n      dup1\n      0xee74c678\n      eq\n      tag_19\n      jumpi\n      dup1\n      0xf2fde38b\n      eq\n      tag_20\n      jumpi\n      jump(tag_2)\n    tag_22:\n      dup1\n      0xa10cfae5\n      eq\n      tag_12\n      jumpi\n      dup1\n      0xa5134620\n      eq\n      tag_13\n      jumpi\n      dup1\n      0xa7bfab16\n      eq\n      tag_14\n      jumpi\n      dup1\n      0xb647990a\n      eq\n      tag_15\n      jumpi\n      jump(tag_2)\n    tag_21:\n      dup1\n      0x6c297445\n      gt\n      tag_23\n      jumpi\n      dup1\n      0x6c297445\n      eq\n      tag_7\n      jumpi\n      dup1\n      0x715018a6\n      eq\n      tag_8\n      jumpi\n      dup1\n      0x856e698c\n      eq\n      tag_9\n      jumpi\n      dup1\n      0x8da5cb5b\n      eq\n      tag_10\n      jumpi\n      dup1\n      0x8e7ea5b2\n      eq\n      tag_11\n      jumpi\n      jump(tag_2)\n    tag_23:\n      dup1\n      0x0121b93f\n      eq\n      tag_3\n      jumpi\n      dup1\n      0x378a2178\n      eq\n      tag_4\n      jumpi\n      dup1\n      0x43dc3ab2\n      eq\n      tag_5\n      jumpi\n      dup1\n      0x62564c48\n      eq\n      tag_6\n      jumpi\n    tag_2:\n      revert(0x00, 0x00)\n        /* \"2. Solidity/Projet1/Voting.sol\":4236:4659  function vote(uint proposalId) external checkStatus(ballotStatus, WorkflowStatus.VotingSessionStarted) isVoterRegistered(msg.sender) {... */\n    tag_3:\n      tag_24\n      0x04\n      dup1\n      calldatasize\n      sub\n      dup2\n      add\n      swap1\n      tag_25\n      swap2\n      swap1\n      tag_26\n      jump\t// in\n    tag_25:\n      tag_27\n      jump\t// in\n    tag_24:\n      stop\n        /* \"2. Solidity/Projet1/Voting.sol\":2708:2891  function tallyVotes() external onlyOwner {... */\n    tag_4:\n      tag_28\n      tag_29\n      jump\t// in\n    tag_28:\n      stop\n        /* \"2. Solidity/Projet1/Voting.sol\":2897:3464  function register(address[] calldata voters) external onlyOwner checkStatus(ballotStatus, WorkflowStatus.registerVoters) {... */\n    tag_5:\n      tag_30\n      0x04\n      dup1\n      calldatasize\n      sub\n      dup2\n      add\n      swap1\n      tag_31\n      swap2\n      swap1\n      tag_32\n      jump\t// in\n    tag_31:\n      tag_33\n      jump\t// in\n    tag_30:\n      stop\n        /* \"2. Solidity/Projet1/Voting.sol\":4038:4230  function getProposals() external view checkStatus(ballotStatus, WorkflowStatus.VotingSessionStarted) isVoterRegistered(msg.sender) returns (Proposal[] memory) {... */\n    tag_6:\n      tag_34\n      tag_35\n      jump\t// in\n    tag_34:\n      mload(0x40)\n      tag_36\n      swap2\n      swap1\n      tag_37\n      jump\t// in\n    tag_36:\n      mload(0x40)\n      dup1\n      swap2\n      sub\n      swap1\n      return\n        /* \"2. Solidity/Projet1/Voting.sol\":2064:2286  function endProposalsRegistration() external onlyOwner {... */\n    tag_7:\n      tag_38\n      tag_39\n      jump\t// in\n    tag_38:\n      stop\n        /* \"@openzeppelin/contracts/access/Ownable.sol\":2293:2394  function renounceOwnership() public virtual onlyOwner {... */\n    tag_8:\n      tag_40\n      tag_41\n      jump\t// in\n    tag_40:\n      stop\n        /* \"2. Solidity/Projet1/Voting.sol\":6138:6699  function resetVoting() external onlyOwner {... */\n    tag_9:\n      tag_42\n      tag_43\n      jump\t// in\n    tag_42:\n      stop\n        /* \"@openzeppelin/contracts/access/Ownable.sol\":1638:1723  function owner() public view virtual returns (address) {... */\n    tag_10:\n      tag_44\n      tag_45\n      jump\t// in\n    tag_44:\n      mload(0x40)\n      tag_46\n      swap2\n      swap1\n      tag_47\n      jump\t// in\n    tag_46:\n      mload(0x40)\n      dup1\n      swap2\n      sub\n      swap1\n      return\n        /* \"2. Solidity/Projet1/Voting.sol\":5338:5653  function getWinner() external view checkStatus(ballotStatus, WorkflowStatus.VotesTallied) isVoterRegistered(msg.sender) returns (address) {... */\n    tag_11:\n      tag_48\n      tag_49\n      jump\t// in\n    tag_48:\n      mload(0x40)\n      tag_50\n      swap2\n      swap1\n      tag_47\n      jump\t// in\n    tag_50:\n      mload(0x40)\n      dup1\n      swap2\n      sub\n      swap1\n      return\n        /* \"2. Solidity/Projet1/Voting.sol\":1708:1840  function getBallotStatus() external view  isVoterRegistered(msg.sender) returns (WorkflowStatus){... */\n    tag_12:\n      tag_51\n      tag_52\n      jump\t// in\n    tag_51:\n      mload(0x40)\n      tag_53\n      swap2\n      swap1\n      tag_54\n      jump\t// in\n    tag_53:\n      mload(0x40)\n      dup1\n      swap2\n      sub\n      swap1\n      return\n        /* \"2. Solidity/Projet1/Voting.sol\":5667:5995  function getWinningProposal() external view checkStatus(ballotStatus, WorkflowStatus.VotesTallied) isVoterRegistered(msg.sender) returns (Proposal memory) {... */\n    tag_13:\n      tag_55\n      tag_56\n      jump\t// in\n    tag_55:\n      mload(0x40)\n      tag_57\n      swap2\n      swap1\n      tag_58\n      jump\t// in\n    tag_57:\n      mload(0x40)\n      dup1\n      swap2\n      sub\n      swap1\n      return\n        /* \"2. Solidity/Projet1/Voting.sol\":2505:2702  function endVotingSession() external onlyOwner {... */\n    tag_14:\n      tag_59\n      tag_60\n      jump\t// in\n    tag_59:\n      stop\n        /* \"2. Solidity/Projet1/Voting.sol\":4665:5328  function countVotes() external checkStatus(ballotStatus, WorkflowStatus.VotingSessionEnded) onlyOwner {... */\n    tag_15:\n      tag_61\n      tag_62\n      jump\t// in\n    tag_61:\n      stop\n        /* \"2. Solidity/Projet1/Voting.sol\":6001:6132  function getVoters() external view isVoterRegistered(msg.sender) returns (address[] memory) {... */\n    tag_16:\n      tag_63\n      tag_64\n      jump\t// in\n    tag_63:\n      mload(0x40)\n      tag_65\n      swap2\n      swap1\n      tag_66\n      jump\t// in\n    tag_65:\n      mload(0x40)\n      dup1\n      swap2\n      sub\n      swap1\n      return\n        /* \"2. Solidity/Projet1/Voting.sol\":1846:2058  function startProposalsRegistration() external onlyOwner {... */\n    tag_17:\n      tag_67\n      tag_68\n      jump\t// in\n    tag_67:\n      stop\n        /* \"2. Solidity/Projet1/Voting.sol\":3542:3944  function registerProposal(address voterAddr, string calldata voterProposal) ... */\n    tag_18:\n      tag_69\n      0x04\n      dup1\n      calldatasize\n      sub\n      dup2\n      add\n      swap1\n      tag_70\n      swap2\n      swap1\n      tag_71\n      jump\t// in\n    tag_70:\n      tag_72\n      jump\t// in\n    tag_69:\n      stop\n        /* \"2. Solidity/Projet1/Voting.sol\":2292:2499  function startVotingSession() external onlyOwner {... */\n    tag_19:\n      tag_73\n      tag_74\n      jump\t// in\n    tag_73:\n      stop\n        /* \"@openzeppelin/contracts/access/Ownable.sol\":2543:2758  function transferOwnership(address newOwner) public virtual onlyOwner {... */\n    tag_20:\n      tag_75\n      0x04\n      dup1\n      calldatasize\n      sub\n      dup2\n      add\n      swap1\n      tag_76\n      swap2\n      swap1\n      tag_77\n      jump\t// in\n    tag_76:\n      tag_78\n      jump\t// in\n    tag_75:\n      stop\n        /* \"2. Solidity/Projet1/Voting.sol\":4236:4659  function vote(uint proposalId) external checkStatus(ballotStatus, WorkflowStatus.VotingSessionStarted) isVoterRegistered(msg.sender) {... */\n    tag_27:\n        /* \"2. Solidity/Projet1/Voting.sol\":4288:4300  ballotStatus */\n      0x07\n      0x00\n      swap1\n      sload\n      swap1\n      0x0100\n      exp\n      swap1\n      div\n      0xff\n      and\n        /* \"2. Solidity/Projet1/Voting.sol\":4302:4337  WorkflowStatus.VotingSessionStarted */\n      0x03\n        /* \"2. Solidity/Projet1/Voting.sol\":1462:1470  shouldBe */\n      dup1\n        /* \"2. Solidity/Projet1/Voting.sol\":1451:1470  current == shouldBe */\n      0x05\n      dup2\n      gt\n      iszero\n      tag_80\n      jumpi\n      tag_81\n      tag_82\n      jump\t// in\n    tag_81:\n    tag_80:\n        /* \"2. Solidity/Projet1/Voting.sol\":1451:1458  current */\n      dup3\n        /* \"2. Solidity/Projet1/Voting.sol\":1451:1470  current == shouldBe */\n      0x05\n      dup2\n      gt\n      iszero\n      tag_83\n      jumpi\n      tag_84\n      tag_82\n      jump\t// in\n    tag_84:\n    tag_83:\n      eq\n        /* \"2. Solidity/Projet1/Voting.sol\":1443:1531  require(current == shouldBe, \"This action is not available at this stage of the ballot\") */\n      tag_85\n      jumpi\n      mload(0x40)\n      0x08c379a000000000000000000000000000000000000000000000000000000000\n      dup2\n      mstore\n      0x04\n      add\n      tag_86\n      swap1\n      tag_87\n      jump\t// in\n    tag_86:\n      mload(0x40)\n      dup1\n      swap2\n      sub\n      swap1\n      revert\n    tag_85:\n        /* \"2. Solidity/Projet1/Voting.sol\":4357:4367  msg.sender */\n      caller\n        /* \"2. Solidity/Projet1/Voting.sol\":1622:1629  _voters */\n      0x01\n        /* \"2. Solidity/Projet1/Voting.sol\":1622:1643  _voters[voterAddress] */\n      0x00\n        /* \"2. Solidity/Projet1/Voting.sol\":1630:1642  voterAddress */\n      dup3\n        /* \"2. Solidity/Projet1/Voting.sol\":1622:1643  _voters[voterAddress] */\n      0xffffffffffffffffffffffffffffffffffffffff\n      and\n      0xffffffffffffffffffffffffffffffffffffffff\n      and\n      dup2\n      mstore\n      0x20\n      add\n      swap1\n      dup2\n      mstore\n      0x20\n      add\n      0x00\n      keccak256\n        /* \"2. Solidity/Projet1/Voting.sol\":1622:1656  _voters[voterAddress].isRegistered */\n      0x00\n      add\n      0x00\n      swap1\n      sload\n      swap1\n      0x0100\n      exp\n      swap1\n      div\n      0xff\n      and\n        /* \"2. Solidity/Projet1/Voting.sol\":1614:1684  require(_voters[voterAddress].isRegistered, \"Voter is not registered\") */\n      tag_89\n      jumpi\n      mload(0x40)\n      0x08c379a000000000000000000000000000000000000000000000000000000000\n      dup2\n      mstore\n      0x04\n      add\n      tag_90\n      swap1\n      tag_91\n      jump\t// in\n    tag_90:\n      mload(0x40)\n      dup1\n      swap2\n      sub\n      swap1\n      revert\n    tag_89:\n        /* \"2. Solidity/Projet1/Voting.sol\":4389:4396  _voters */\n      0x01\n        /* \"2. Solidity/Projet1/Voting.sol\":4389:4408  _voters[msg.sender] */\n      0x00\n        /* \"2. Solidity/Projet1/Voting.sol\":4397:4407  msg.sender */\n      caller\n        /* \"2. Solidity/Projet1/Voting.sol\":4389:4408  _voters[msg.sender] */\n      0xffffffffffffffffffffffffffffffffffffffff\n      and\n      0xffffffffffffffffffffffffffffffffffffffff\n      and\n      dup2\n      mstore\n      0x20\n      add\n      swap1\n      dup2\n      mstore\n      0x20\n      add\n      0x00\n      keccak256\n        /* \"2. Solidity/Projet1/Voting.sol\":4389:4417  _voters[msg.sender].hasVoted */\n      0x00\n      add\n      0x01\n      swap1\n      sload\n      swap1\n      0x0100\n      exp\n      swap1\n      div\n      0xff\n      and\n        /* \"2. Solidity/Projet1/Voting.sol\":4388:4417  !_voters[msg.sender].hasVoted */\n      iszero\n        /* \"2. Solidity/Projet1/Voting.sol\":4380:4456  require(!_voters[msg.sender].hasVoted, \"Voter is not allowed to vote twice\") */\n      tag_93\n      jumpi\n      mload(0x40)\n      0x08c379a000000000000000000000000000000000000000000000000000000000\n      dup2\n      mstore\n      0x04\n      add\n      tag_94\n      swap1\n      tag_95\n      jump\t// in\n    tag_94:\n      mload(0x40)\n      dup1\n      swap2\n      sub\n      swap1\n      revert\n    tag_93:\n        /* \"2. Solidity/Projet1/Voting.sol\":4499:4503  true */\n      0x01\n        /* \"2. Solidity/Projet1/Voting.sol\":4468:4475  _voters */\n      dup1\n        /* \"2. Solidity/Projet1/Voting.sol\":4468:4487  _voters[msg.sender] */\n      0x00\n        /* \"2. Solidity/Projet1/Voting.sol\":4476:4486  msg.sender */\n      caller\n        /* \"2. Solidity/Projet1/Voting.sol\":4468:4487  _voters[msg.sender] */\n      0xffffffffffffffffffffffffffffffffffffffff\n      and\n      0xffffffffffffffffffffffffffffffffffffffff\n      and\n      dup2\n      mstore\n      0x20\n      add\n      swap1\n      dup2\n      mstore\n      0x20\n      add\n      0x00\n      keccak256\n        /* \"2. Solidity/Projet1/Voting.sol\":4468:4496  _voters[msg.sender].hasVoted */\n      0x00\n      add\n      0x01\n        /* \"2. Solidity/Projet1/Voting.sol\":4468:4503  _voters[msg.sender].hasVoted = true */\n      0x0100\n      exp\n      dup2\n      sload\n      dup2\n      0xff\n      mul\n      not\n      and\n      swap1\n      dup4\n      iszero\n      iszero\n      mul\n      or\n      swap1\n      sstore\n      pop\n        /* \"2. Solidity/Projet1/Voting.sol\":4551:4561  proposalId */\n      dup4\n        /* \"2. Solidity/Projet1/Voting.sol\":4513:4520  _voters */\n      0x01\n        /* \"2. Solidity/Projet1/Voting.sol\":4513:4532  _voters[msg.sender] */\n      0x00\n        /* \"2. Solidity/Projet1/Voting.sol\":4521:4531  msg.sender */\n      caller\n        /* \"2. Solidity/Projet1/Voting.sol\":4513:4532  _voters[msg.sender] */\n      0xffffffffffffffffffffffffffffffffffffffff\n      and\n      0xffffffffffffffffffffffffffffffffffffffff\n      and\n      dup2\n      mstore\n      0x20\n      add\n      swap1\n      dup2\n      mstore\n      0x20\n      add\n      0x00\n      keccak256\n        /* \"2. Solidity/Projet1/Voting.sol\":4513:4548  _voters[msg.sender].votedProposalId */\n      0x01\n      add\n        /* \"2. Solidity/Projet1/Voting.sol\":4513:4561  _voters[msg.sender].votedProposalId = proposalId */\n      dup2\n      swap1\n      sstore\n      pop\n        /* \"2. Solidity/Projet1/Voting.sol\":4607:4608  1 */\n      0x01\n        /* \"2. Solidity/Projet1/Voting.sol\":4571:4581  _proposals */\n      0x03\n        /* \"2. Solidity/Projet1/Voting.sol\":4582:4592  proposalId */\n      dup6\n        /* \"2. Solidity/Projet1/Voting.sol\":4571:4593  _proposals[proposalId] */\n      dup2\n      sload\n      dup2\n      lt\n      tag_96\n      jumpi\n      tag_97\n      tag_98\n      jump\t// in\n    tag_97:\n    tag_96:\n      swap1\n      0x00\n      mstore\n      keccak256(0x00, 0x20)\n      swap1\n      0x02\n      mul\n      add\n        /* \"2. Solidity/Projet1/Voting.sol\":4571:4603  _proposals[proposalId].voteCount */\n      0x01\n      add\n      0x00\n        /* \"2. Solidity/Projet1/Voting.sol\":4571:4608  _proposals[proposalId].voteCount += 1 */\n      dup3\n      dup3\n      sload\n      tag_100\n      swap2\n      swap1\n      tag_101\n      jump\t// in\n    tag_100:\n      swap3\n      pop\n      pop\n      dup2\n      swap1\n      sstore\n      pop\n        /* \"2. Solidity/Projet1/Voting.sol\":4623:4652  Voted(msg.sender, proposalId) */\n      0x4d99b957a2bc29a30ebd96a7be8e68fe50a3c701db28a91436490b7d53870ca4\n        /* \"2. Solidity/Projet1/Voting.sol\":4629:4639  msg.sender */\n      caller\n        /* \"2. Solidity/Projet1/Voting.sol\":4641:4651  proposalId */\n      dup6\n        /* \"2. Solidity/Projet1/Voting.sol\":4623:4652  Voted(msg.sender, proposalId) */\n      mload(0x40)\n      tag_102\n      swap3\n      swap2\n      swap1\n      tag_103\n      jump\t// in\n    tag_102:\n      mload(0x40)\n      dup1\n      swap2\n      sub\n      swap1\n      log1\n        /* \"2. Solidity/Projet1/Voting.sol\":1541:1542  _ */\n      pop\n        /* \"2. Solidity/Projet1/Voting.sol\":4236:4659  function vote(uint proposalId) external checkStatus(ballotStatus, WorkflowStatus.VotingSessionStarted) isVoterRegistered(msg.sender) {... */\n      pop\n      pop\n      pop\n      jump\t// out\n        /* \"2. Solidity/Projet1/Voting.sol\":2708:2891  function tallyVotes() external onlyOwner {... */\n    tag_29:\n        /* \"@openzeppelin/contracts/access/Ownable.sol\":1531:1544  _checkOwner() */\n      tag_105\n        /* \"@openzeppelin/contracts/access/Ownable.sol\":1531:1542  _checkOwner */\n      tag_106\n        /* \"@openzeppelin/contracts/access/Ownable.sol\":1531:1544  _checkOwner() */\n      jump\t// in\n    tag_105:\n        /* \"2. Solidity/Projet1/Voting.sol\":2774:2801  WorkflowStatus.VotesTallied */\n      0x05\n        /* \"2. Solidity/Projet1/Voting.sol\":2759:2771  ballotStatus */\n      0x07\n      0x00\n        /* \"2. Solidity/Projet1/Voting.sol\":2759:2801  ballotStatus = WorkflowStatus.VotesTallied */\n      0x0100\n      exp\n      dup2\n      sload\n      dup2\n      0xff\n      mul\n      not\n      and\n      swap1\n      dup4\n      0x05\n      dup2\n      gt\n      iszero\n      tag_108\n      jumpi\n      tag_109\n      tag_82\n      jump\t// in\n    tag_109:\n    tag_108:\n      mul\n      or\n      swap1\n      sstore\n      pop\n        /* \"2. Solidity/Projet1/Voting.sol\":2816:2884  WorkflowStatusChange(WorkflowStatus.VotingSessionEnded,ballotStatus) */\n      0x0a97a4ee45751e2abf3e4fc8946939630b11b371ea8ae39ccdc3056e98f5cc3f\n        /* \"2. Solidity/Projet1/Voting.sol\":2837:2870  WorkflowStatus.VotingSessionEnded */\n      0x04\n        /* \"2. Solidity/Projet1/Voting.sol\":2871:2883  ballotStatus */\n      0x07\n      0x00\n      swap1\n      sload\n      swap1\n      0x0100\n      exp\n      swap1\n      div\n      0xff\n      and\n        /* \"2. Solidity/Projet1/Voting.sol\":2816:2884  WorkflowStatusChange(WorkflowStatus.VotingSessionEnded,ballotStatus) */\n      mload(0x40)\n      tag_110\n      swap3\n      swap2\n      swap1\n      tag_111\n      jump\t// in\n    tag_110:\n      mload(0x40)\n      dup1\n      swap2\n      sub\n      swap1\n      log1\n        /* \"2. Solidity/Projet1/Voting.sol\":2708:2891  function tallyVotes() external onlyOwner {... */\n      jump\t// out\n        /* \"2. Solidity/Projet1/Voting.sol\":2897:3464  function register(address[] calldata voters) external onlyOwner checkStatus(ballotStatus, WorkflowStatus.registerVoters) {... */\n    tag_33:\n        /* \"@openzeppelin/contracts/access/Ownable.sol\":1531:1544  _checkOwner() */\n      tag_113\n        /* \"@openzeppelin/contracts/access/Ownable.sol\":1531:1542  _checkOwner */\n      tag_106\n        /* \"@openzeppelin/contracts/access/Ownable.sol\":1531:1544  _checkOwner() */\n      jump\t// in\n    tag_113:\n        /* \"2. Solidity/Projet1/Voting.sol\":2973:2985  ballotStatus */\n      0x07\n      0x00\n      swap1\n      sload\n      swap1\n      0x0100\n      exp\n      swap1\n      div\n      0xff\n      and\n        /* \"2. Solidity/Projet1/Voting.sol\":2987:3016  WorkflowStatus.registerVoters */\n      0x00\n        /* \"2. Solidity/Projet1/Voting.sol\":1462:1470  shouldBe */\n      dup1\n        /* \"2. Solidity/Projet1/Voting.sol\":1451:1470  current == shouldBe */\n      0x05\n      dup2\n      gt\n      iszero\n      tag_115\n      jumpi\n      tag_116\n      tag_82\n      jump\t// in\n    tag_116:\n    tag_115:\n        /* \"2. Solidity/Projet1/Voting.sol\":1451:1458  current */\n      dup3\n        /* \"2. Solidity/Projet1/Voting.sol\":1451:1470  current == shouldBe */\n      0x05\n      dup2\n      gt\n      iszero\n      tag_117\n      jumpi\n      tag_118\n      tag_82\n      jump\t// in\n    tag_118:\n    tag_117:\n      eq\n        /* \"2. Solidity/Projet1/Voting.sol\":1443:1531  require(current == shouldBe, \"This action is not available at this stage of the ballot\") */\n      tag_119\n      jumpi\n      mload(0x40)\n      0x08c379a000000000000000000000000000000000000000000000000000000000\n      dup2\n      mstore\n      0x04\n      add\n      tag_120\n      swap1\n      tag_87\n      jump\t// in\n    tag_120:\n      mload(0x40)\n      dup1\n      swap2\n      sub\n      swap1\n      revert\n    tag_119:\n        /* \"2. Solidity/Projet1/Voting.sol\":3061:3062  0 */\n      0x00\n        /* \"2. Solidity/Projet1/Voting.sol\":3045:3051  voters */\n      dup5\n      dup5\n        /* \"2. Solidity/Projet1/Voting.sol\":3045:3058  voters.length */\n      swap1\n      pop\n        /* \"2. Solidity/Projet1/Voting.sol\":3045:3062  voters.length > 0 */\n      gt\n        /* \"2. Solidity/Projet1/Voting.sol\":3037:3085  require(voters.length > 0, \"No voters provided\") */\n      tag_122\n      jumpi\n      mload(0x40)\n      0x08c379a000000000000000000000000000000000000000000000000000000000\n      dup2\n      mstore\n      0x04\n      add\n      tag_123\n      swap1\n      tag_124\n      jump\t// in\n    tag_123:\n      mload(0x40)\n      dup1\n      swap2\n      sub\n      swap1\n      revert\n    tag_122:\n        /* \"2. Solidity/Projet1/Voting.sol\":3109:3115  uint i */\n      0x00\n        /* \"2. Solidity/Projet1/Voting.sol\":3104:3458  for (uint i; i < voters.length; i++) {... */\n    tag_125:\n        /* \"2. Solidity/Projet1/Voting.sol\":3121:3127  voters */\n      dup5\n      dup5\n        /* \"2. Solidity/Projet1/Voting.sol\":3121:3134  voters.length */\n      swap1\n      pop\n        /* \"2. Solidity/Projet1/Voting.sol\":3117:3118  i */\n      dup2\n        /* \"2. Solidity/Projet1/Voting.sol\":3117:3134  i < voters.length */\n      lt\n        /* \"2. Solidity/Projet1/Voting.sol\":3104:3458  for (uint i; i < voters.length; i++) {... */\n      iszero\n      tag_126\n      jumpi\n        /* \"2. Solidity/Projet1/Voting.sol\":3159:3166  _voters */\n      0x01\n        /* \"2. Solidity/Projet1/Voting.sol\":3159:3177  _voters[voters[i]] */\n      0x00\n        /* \"2. Solidity/Projet1/Voting.sol\":3167:3173  voters */\n      dup7\n      dup7\n        /* \"2. Solidity/Projet1/Voting.sol\":3174:3175  i */\n      dup5\n        /* \"2. Solidity/Projet1/Voting.sol\":3167:3176  voters[i] */\n      dup2\n      dup2\n      lt\n      tag_128\n      jumpi\n      tag_129\n      tag_98\n      jump\t// in\n    tag_129:\n    tag_128:\n      swap1\n      pop\n      0x20\n      mul\n      add\n      0x20\n      dup2\n      add\n      swap1\n      tag_130\n      swap2\n      swap1\n      tag_77\n      jump\t// in\n    tag_130:\n        /* \"2. Solidity/Projet1/Voting.sol\":3159:3177  _voters[voters[i]] */\n      0xffffffffffffffffffffffffffffffffffffffff\n      and\n      0xffffffffffffffffffffffffffffffffffffffff\n      and\n      dup2\n      mstore\n      0x20\n      add\n      swap1\n      dup2\n      mstore\n      0x20\n      add\n      0x00\n      keccak256\n        /* \"2. Solidity/Projet1/Voting.sol\":3159:3190  _voters[voters[i]].isRegistered */\n      0x00\n      add\n      0x00\n      swap1\n      sload\n      swap1\n      0x0100\n      exp\n      swap1\n      div\n      0xff\n      and\n        /* \"2. Solidity/Projet1/Voting.sol\":3155:3289  if (_voters[voters[i]].isRegistered) {... */\n      iszero\n      tag_131\n      jumpi\n        /* \"2. Solidity/Projet1/Voting.sol\":3215:3248  VoterAlreadyRegistered(voters[i]) */\n      0xc501dbfd9728024faba6134c46be8337745e19067dac2a0503f57d8f9f89d5f0\n        /* \"2. Solidity/Projet1/Voting.sol\":3238:3244  voters */\n      dup6\n      dup6\n        /* \"2. Solidity/Projet1/Voting.sol\":3245:3246  i */\n      dup4\n        /* \"2. Solidity/Projet1/Voting.sol\":3238:3247  voters[i] */\n      dup2\n      dup2\n      lt\n      tag_132\n      jumpi\n      tag_133\n      tag_98\n      jump\t// in\n    tag_133:\n    tag_132:\n      swap1\n      pop\n      0x20\n      mul\n      add\n      0x20\n      dup2\n      add\n      swap1\n      tag_134\n      swap2\n      swap1\n      tag_77\n      jump\t// in\n    tag_134:\n        /* \"2. Solidity/Projet1/Voting.sol\":3215:3248  VoterAlreadyRegistered(voters[i]) */\n      mload(0x40)\n      tag_135\n      swap2\n      swap1\n      tag_47\n      jump\t// in\n    tag_135:\n      mload(0x40)\n      dup1\n      swap2\n      sub\n      swap1\n      log1\n        /* \"2. Solidity/Projet1/Voting.sol\":3266:3274  continue */\n      jump(tag_127)\n        /* \"2. Solidity/Projet1/Voting.sol\":3155:3289  if (_voters[voters[i]].isRegistered) {... */\n    tag_131:\n        /* \"2. Solidity/Projet1/Voting.sol\":3336:3357  Voter(true, false, 0) */\n      mload(0x40)\n      dup1\n      0x60\n      add\n      0x40\n      mstore\n      dup1\n        /* \"2. Solidity/Projet1/Voting.sol\":3342:3346  true */\n      0x01\n        /* \"2. Solidity/Projet1/Voting.sol\":3336:3357  Voter(true, false, 0) */\n      iszero\n      iszero\n      dup2\n      mstore\n      0x20\n      add\n        /* \"2. Solidity/Projet1/Voting.sol\":3348:3353  false */\n      0x00\n        /* \"2. Solidity/Projet1/Voting.sol\":3336:3357  Voter(true, false, 0) */\n      iszero\n      iszero\n      dup2\n      mstore\n      0x20\n      add\n        /* \"2. Solidity/Projet1/Voting.sol\":3355:3356  0 */\n      0x00\n        /* \"2. Solidity/Projet1/Voting.sol\":3336:3357  Voter(true, false, 0) */\n      dup2\n      mstore\n      pop\n        /* \"2. Solidity/Projet1/Voting.sol\":3315:3322  _voters */\n      0x01\n        /* \"2. Solidity/Projet1/Voting.sol\":3315:3333  _voters[voters[i]] */\n      0x00\n        /* \"2. Solidity/Projet1/Voting.sol\":3323:3329  voters */\n      dup8\n      dup8\n        /* \"2. Solidity/Projet1/Voting.sol\":3330:3331  i */\n      dup6\n        /* \"2. Solidity/Projet1/Voting.sol\":3323:3332  voters[i] */\n      dup2\n      dup2\n      lt\n      tag_136\n      jumpi\n      tag_137\n      tag_98\n      jump\t// in\n    tag_137:\n    tag_136:\n      swap1\n      pop\n      0x20\n      mul\n      add\n      0x20\n      dup2\n      add\n      swap1\n      tag_138\n      swap2\n      swap1\n      tag_77\n      jump\t// in\n    tag_138:\n        /* \"2. Solidity/Projet1/Voting.sol\":3315:3333  _voters[voters[i]] */\n      0xffffffffffffffffffffffffffffffffffffffff\n      and\n      0xffffffffffffffffffffffffffffffffffffffff\n      and\n      dup2\n      mstore\n      0x20\n      add\n      swap1\n      dup2\n      mstore\n      0x20\n      add\n      0x00\n      keccak256\n        /* \"2. Solidity/Projet1/Voting.sol\":3315:3357  _voters[voters[i]] = Voter(true, false, 0) */\n      0x00\n      dup3\n      add\n      mload\n      dup2\n      0x00\n      add\n      exp(0x0100, 0x00)\n      dup2\n      sload\n      dup2\n      0xff\n      mul\n      not\n      and\n      swap1\n      dup4\n      iszero\n      iszero\n      mul\n      or\n      swap1\n      sstore\n      pop\n      0x20\n      dup3\n      add\n      mload\n      dup2\n      0x00\n      add\n      exp(0x0100, 0x01)\n      dup2\n      sload\n      dup2\n      0xff\n      mul\n      not\n      and\n      swap1\n      dup4\n      iszero\n      iszero\n      mul\n      or\n      swap1\n      sstore\n      pop\n      0x40\n      dup3\n      add\n      mload\n      dup2\n      0x01\n      add\n      sstore\n      swap1\n      pop\n      pop\n        /* \"2. Solidity/Projet1/Voting.sol\":3371:3386  _voterAddresses */\n      0x04\n        /* \"2. Solidity/Projet1/Voting.sol\":3392:3398  voters */\n      dup6\n      dup6\n        /* \"2. Solidity/Projet1/Voting.sol\":3399:3400  i */\n      dup4\n        /* \"2. Solidity/Projet1/Voting.sol\":3392:3401  voters[i] */\n      dup2\n      dup2\n      lt\n      tag_139\n      jumpi\n      tag_140\n      tag_98\n      jump\t// in\n    tag_140:\n    tag_139:\n      swap1\n      pop\n      0x20\n      mul\n      add\n      0x20\n      dup2\n      add\n      swap1\n      tag_141\n      swap2\n      swap1\n      tag_77\n      jump\t// in\n    tag_141:\n        /* \"2. Solidity/Projet1/Voting.sol\":3371:3402  _voterAddresses.push(voters[i]) */\n      swap1\n      dup1\n      0x01\n      dup2\n      sload\n      add\n      dup1\n      dup3\n      sstore\n      dup1\n      swap2\n      pop\n      pop\n      0x01\n      swap1\n      sub\n      swap1\n      0x00\n      mstore\n      keccak256(0x00, 0x20)\n      add\n      0x00\n      swap1\n      swap2\n      swap1\n      swap2\n      swap1\n      swap2\n      0x0100\n      exp\n      dup2\n      sload\n      dup2\n      0xffffffffffffffffffffffffffffffffffffffff\n      mul\n      not\n      and\n      swap1\n      dup4\n      0xffffffffffffffffffffffffffffffffffffffff\n      and\n      mul\n      or\n      swap1\n      sstore\n      pop\n        /* \"2. Solidity/Projet1/Voting.sol\":3421:3447  VoterRegistered(voters[i]) */\n      0xb6be2187d059cc2a55fe29e0e503b566e1e0f8c8780096e185429350acffd3dd\n        /* \"2. Solidity/Projet1/Voting.sol\":3437:3443  voters */\n      dup6\n      dup6\n        /* \"2. Solidity/Projet1/Voting.sol\":3444:3445  i */\n      dup4\n        /* \"2. Solidity/Projet1/Voting.sol\":3437:3446  voters[i] */\n      dup2\n      dup2\n      lt\n      tag_143\n      jumpi\n      tag_144\n      tag_98\n      jump\t// in\n    tag_144:\n    tag_143:\n      swap1\n      pop\n      0x20\n      mul\n      add\n      0x20\n      dup2\n      add\n      swap1\n      tag_145\n      swap2\n      swap1\n      tag_77\n      jump\t// in\n    tag_145:\n        /* \"2. Solidity/Projet1/Voting.sol\":3421:3447  VoterRegistered(voters[i]) */\n      mload(0x40)\n      tag_146\n      swap2\n      swap1\n      tag_47\n      jump\t// in\n    tag_146:\n      mload(0x40)\n      dup1\n      swap2\n      sub\n      swap1\n      log1\n        /* \"2. Solidity/Projet1/Voting.sol\":3104:3458  for (uint i; i < voters.length; i++) {... */\n    tag_127:\n        /* \"2. Solidity/Projet1/Voting.sol\":3136:3139  i++ */\n      dup1\n      dup1\n      0x01\n      add\n      swap2\n      pop\n      pop\n        /* \"2. Solidity/Projet1/Voting.sol\":3104:3458  for (uint i; i < voters.length; i++) {... */\n      jump(tag_125)\n    tag_126:\n      pop\n        /* \"@openzeppelin/contracts/access/Ownable.sol\":1554:1555  _ */\n      pop\n      pop\n        /* \"2. Solidity/Projet1/Voting.sol\":2897:3464  function register(address[] calldata voters) external onlyOwner checkStatus(ballotStatus, WorkflowStatus.registerVoters) {... */\n      pop\n      pop\n      jump\t// out\n        /* \"2. Solidity/Projet1/Voting.sol\":4038:4230  function getProposals() external view checkStatus(ballotStatus, WorkflowStatus.VotingSessionStarted) isVoterRegistered(msg.sender) returns (Proposal[] memory) {... */\n    tag_35:\n        /* \"2. Solidity/Projet1/Voting.sol\":4178:4195  Proposal[] memory */\n      0x60\n        /* \"2. Solidity/Projet1/Voting.sol\":4088:4100  ballotStatus */\n      0x07\n      0x00\n      swap1\n      sload\n      swap1\n      0x0100\n      exp\n      swap1\n      div\n      0xff\n      and\n        /* \"2. Solidity/Projet1/Voting.sol\":4102:4137  WorkflowStatus.VotingSessionStarted */\n      0x03\n        /* \"2. Solidity/Projet1/Voting.sol\":1462:1470  shouldBe */\n      dup1\n        /* \"2. Solidity/Projet1/Voting.sol\":1451:1470  current == shouldBe */\n      0x05\n      dup2\n      gt\n      iszero\n      tag_148\n      jumpi\n      tag_149\n      tag_82\n      jump\t// in\n    tag_149:\n    tag_148:\n        /* \"2. Solidity/Projet1/Voting.sol\":1451:1458  current */\n      dup3\n        /* \"2. Solidity/Projet1/Voting.sol\":1451:1470  current == shouldBe */\n      0x05\n      dup2\n      gt\n      iszero\n      tag_150\n      jumpi\n      tag_151\n      tag_82\n      jump\t// in\n    tag_151:\n    tag_150:\n      eq\n        /* \"2. Solidity/Projet1/Voting.sol\":1443:1531  require(current == shouldBe, \"This action is not available at this stage of the ballot\") */\n      tag_152\n      jumpi\n      mload(0x40)\n      0x08c379a000000000000000000000000000000000000000000000000000000000\n      dup2\n      mstore\n      0x04\n      add\n      tag_153\n      swap1\n      tag_87\n      jump\t// in\n    tag_153:\n      mload(0x40)\n      dup1\n      swap2\n      sub\n      swap1\n      revert\n    tag_152:\n        /* \"2. Solidity/Projet1/Voting.sol\":4157:4167  msg.sender */\n      caller\n        /* \"2. Solidity/Projet1/Voting.sol\":1622:1629  _voters */\n      0x01\n        /* \"2. Solidity/Projet1/Voting.sol\":1622:1643  _voters[voterAddress] */\n      0x00\n        /* \"2. Solidity/Projet1/Voting.sol\":1630:1642  voterAddress */\n      dup3\n        /* \"2. Solidity/Projet1/Voting.sol\":1622:1643  _voters[voterAddress] */\n      0xffffffffffffffffffffffffffffffffffffffff\n      and\n      0xffffffffffffffffffffffffffffffffffffffff\n      and\n      dup2\n      mstore\n      0x20\n      add\n      swap1\n      dup2\n      mstore\n      0x20\n      add\n      0x00\n      keccak256\n        /* \"2. Solidity/Projet1/Voting.sol\":1622:1656  _voters[voterAddress].isRegistered */\n      0x00\n      add\n      0x00\n      swap1\n      sload\n      swap1\n      0x0100\n      exp\n      swap1\n      div\n      0xff\n      and\n        /* \"2. Solidity/Projet1/Voting.sol\":1614:1684  require(_voters[voterAddress].isRegistered, \"Voter is not registered\") */\n      tag_155\n      jumpi\n      mload(0x40)\n      0x08c379a000000000000000000000000000000000000000000000000000000000\n      dup2\n      mstore\n      0x04\n      add\n      tag_156\n      swap1\n      tag_91\n      jump\t// in\n    tag_156:\n      mload(0x40)\n      dup1\n      swap2\n      sub\n      swap1\n      revert\n    tag_155:\n        /* \"2. Solidity/Projet1/Voting.sol\":4213:4223  _proposals */\n      0x03\n        /* \"2. Solidity/Projet1/Voting.sol\":4206:4223  return _proposals */\n      dup1\n      sload\n      dup1\n      0x20\n      mul\n      0x20\n      add\n      mload(0x40)\n      swap1\n      dup2\n      add\n      0x40\n      mstore\n      dup1\n      swap3\n      swap2\n      swap1\n      dup2\n      dup2\n      mstore\n      0x20\n      add\n      0x00\n      swap1\n    tag_158:\n      dup3\n      dup3\n      lt\n      iszero\n      tag_159\n      jumpi\n      dup4\n      dup3\n      swap1\n      0x00\n      mstore\n      keccak256(0x00, 0x20)\n      swap1\n      0x02\n      mul\n      add\n      mload(0x40)\n      dup1\n      0x40\n      add\n      0x40\n      mstore\n      swap1\n      dup2\n      0x00\n      dup3\n      add\n      dup1\n      sload\n      tag_161\n      swap1\n      tag_162\n      jump\t// in\n    tag_161:\n      dup1\n      0x1f\n      add\n      0x20\n      dup1\n      swap2\n      div\n      mul\n      0x20\n      add\n      mload(0x40)\n      swap1\n      dup2\n      add\n      0x40\n      mstore\n      dup1\n      swap3\n      swap2\n      swap1\n      dup2\n      dup2\n      mstore\n      0x20\n      add\n      dup3\n      dup1\n      sload\n      tag_163\n      swap1\n      tag_162\n      jump\t// in\n    tag_163:\n      dup1\n      iszero\n      tag_164\n      jumpi\n      dup1\n      0x1f\n      lt\n      tag_165\n      jumpi\n      0x0100\n      dup1\n      dup4\n      sload\n      div\n      mul\n      dup4\n      mstore\n      swap2\n      0x20\n      add\n      swap2\n      jump(tag_164)\n    tag_165:\n      dup3\n      add\n      swap2\n      swap1\n      0x00\n      mstore\n      keccak256(0x00, 0x20)\n      swap1\n    tag_166:\n      dup2\n      sload\n      dup2\n      mstore\n      swap1\n      0x01\n      add\n      swap1\n      0x20\n      add\n      dup1\n      dup4\n      gt\n      tag_166\n      jumpi\n      dup3\n      swap1\n      sub\n      0x1f\n      and\n      dup3\n      add\n      swap2\n    tag_164:\n      pop\n      pop\n      pop\n      pop\n      pop\n      dup2\n      mstore\n      0x20\n      add\n      0x01\n      dup3\n      add\n      sload\n      dup2\n      mstore\n      pop\n      pop\n      dup2\n      mstore\n      0x20\n      add\n      swap1\n      0x01\n      add\n      swap1\n      jump(tag_158)\n    tag_159:\n      pop\n      pop\n      pop\n      pop\n      swap4\n      pop\n        /* \"2. Solidity/Projet1/Voting.sol\":1541:1542  _ */\n      pop\n        /* \"2. Solidity/Projet1/Voting.sol\":4038:4230  function getProposals() external view checkStatus(ballotStatus, WorkflowStatus.VotingSessionStarted) isVoterRegistered(msg.sender) returns (Proposal[] memory) {... */\n      pop\n      pop\n      swap1\n      jump\t// out\n        /* \"2. Solidity/Projet1/Voting.sol\":2064:2286  function endProposalsRegistration() external onlyOwner {... */\n    tag_39:\n        /* \"@openzeppelin/contracts/access/Ownable.sol\":1531:1544  _checkOwner() */\n      tag_168\n        /* \"@openzeppelin/contracts/access/Ownable.sol\":1531:1542  _checkOwner */\n      tag_106\n        /* \"@openzeppelin/contracts/access/Ownable.sol\":1531:1544  _checkOwner() */\n      jump\t// in\n    tag_168:\n        /* \"2. Solidity/Projet1/Voting.sol\":2144:2185  WorkflowStatus.ProposalsRegistrationEnded */\n      0x02\n        /* \"2. Solidity/Projet1/Voting.sol\":2129:2141  ballotStatus */\n      0x07\n      0x00\n        /* \"2. Solidity/Projet1/Voting.sol\":2129:2185  ballotStatus = WorkflowStatus.ProposalsRegistrationEnded */\n      0x0100\n      exp\n      dup2\n      sload\n      dup2\n      0xff\n      mul\n      not\n      and\n      swap1\n      dup4\n      0x05\n      dup2\n      gt\n      iszero\n      tag_170\n      jumpi\n      tag_171\n      tag_82\n      jump\t// in\n    tag_171:\n    tag_170:\n      mul\n      or\n      swap1\n      sstore\n      pop\n        /* \"2. Solidity/Projet1/Voting.sol\":2200:2279  WorkflowStatusChange(WorkflowStatus.ProposalsRegistrationStarted, ballotStatus) */\n      0x0a97a4ee45751e2abf3e4fc8946939630b11b371ea8ae39ccdc3056e98f5cc3f\n        /* \"2. Solidity/Projet1/Voting.sol\":2221:2264  WorkflowStatus.ProposalsRegistrationStarted */\n      0x01\n        /* \"2. Solidity/Projet1/Voting.sol\":2266:2278  ballotStatus */\n      0x07\n      0x00\n      swap1\n      sload\n      swap1\n      0x0100\n      exp\n      swap1\n      div\n      0xff\n      and\n        /* \"2. Solidity/Projet1/Voting.sol\":2200:2279  WorkflowStatusChange(WorkflowStatus.ProposalsRegistrationStarted, ballotStatus) */\n      mload(0x40)\n      tag_172\n      swap3\n      swap2\n      swap1\n      tag_111\n      jump\t// in\n    tag_172:\n      mload(0x40)\n      dup1\n      swap2\n      sub\n      swap1\n      log1\n        /* \"2. Solidity/Projet1/Voting.sol\":2064:2286  function endProposalsRegistration() external onlyOwner {... */\n      jump\t// out\n        /* \"@openzeppelin/contracts/access/Ownable.sol\":2293:2394  function renounceOwnership() public virtual onlyOwner {... */\n    tag_41:\n        /* \"@openzeppelin/contracts/access/Ownable.sol\":1531:1544  _checkOwner() */\n      tag_174\n        /* \"@openzeppelin/contracts/access/Ownable.sol\":1531:1542  _checkOwner */\n      tag_106\n        /* \"@openzeppelin/contracts/access/Ownable.sol\":1531:1544  _checkOwner() */\n      jump\t// in\n    tag_174:\n        /* \"@openzeppelin/contracts/access/Ownable.sol\":2357:2387  _transferOwnership(address(0)) */\n      tag_176\n        /* \"@openzeppelin/contracts/access/Ownable.sol\":2384:2385  0 */\n      0x00\n        /* \"@openzeppelin/contracts/access/Ownable.sol\":2357:2375  _transferOwnership */\n      tag_177\n        /* \"@openzeppelin/contracts/access/Ownable.sol\":2357:2387  _transferOwnership(address(0)) */\n      jump\t// in\n    tag_176:\n        /* \"@openzeppelin/contracts/access/Ownable.sol\":2293:2394  function renounceOwnership() public virtual onlyOwner {... */\n      jump\t// out\n        /* \"2. Solidity/Projet1/Voting.sol\":6138:6699  function resetVoting() external onlyOwner {... */\n    tag_43:\n        /* \"@openzeppelin/contracts/access/Ownable.sol\":1531:1544  _checkOwner() */\n      tag_179\n        /* \"@openzeppelin/contracts/access/Ownable.sol\":1531:1542  _checkOwner */\n      tag_106\n        /* \"@openzeppelin/contracts/access/Ownable.sol\":1531:1544  _checkOwner() */\n      jump\t// in\n    tag_179:\n        /* \"2. Solidity/Projet1/Voting.sol\":6195:6201  uint i */\n      0x00\n        /* \"2. Solidity/Projet1/Voting.sol\":6204:6205  0 */\n      0x00\n        /* \"2. Solidity/Projet1/Voting.sol\":6195:6205  uint i = 0 */\n      swap1\n      pop\n        /* \"2. Solidity/Projet1/Voting.sol\":6190:6299  for (uint i = 0; i < _voterAddresses.length; i++) {... */\n    tag_181:\n        /* \"2. Solidity/Projet1/Voting.sol\":6211:6226  _voterAddresses */\n      0x04\n        /* \"2. Solidity/Projet1/Voting.sol\":6211:6233  _voterAddresses.length */\n      dup1\n      sload\n      swap1\n      pop\n        /* \"2. Solidity/Projet1/Voting.sol\":6207:6208  i */\n      dup2\n        /* \"2. Solidity/Projet1/Voting.sol\":6207:6233  i < _voterAddresses.length */\n      lt\n        /* \"2. Solidity/Projet1/Voting.sol\":6190:6299  for (uint i = 0; i < _voterAddresses.length; i++) {... */\n      iszero\n      tag_182\n      jumpi\n        /* \"2. Solidity/Projet1/Voting.sol\":6261:6268  _voters */\n      0x01\n        /* \"2. Solidity/Projet1/Voting.sol\":6261:6288  _voters[_voterAddresses[i]] */\n      0x00\n        /* \"2. Solidity/Projet1/Voting.sol\":6269:6284  _voterAddresses */\n      0x04\n        /* \"2. Solidity/Projet1/Voting.sol\":6285:6286  i */\n      dup4\n        /* \"2. Solidity/Projet1/Voting.sol\":6269:6287  _voterAddresses[i] */\n      dup2\n      sload\n      dup2\n      lt\n      tag_184\n      jumpi\n      tag_185\n      tag_98\n      jump\t// in\n    tag_185:\n    tag_184:\n      swap1\n      0x00\n      mstore\n      keccak256(0x00, 0x20)\n      add\n      0x00\n      swap1\n      sload\n      swap1\n      0x0100\n      exp\n      swap1\n      div\n      0xffffffffffffffffffffffffffffffffffffffff\n      and\n        /* \"2. Solidity/Projet1/Voting.sol\":6261:6288  _voters[_voterAddresses[i]] */\n      0xffffffffffffffffffffffffffffffffffffffff\n      and\n      0xffffffffffffffffffffffffffffffffffffffff\n      and\n      dup2\n      mstore\n      0x20\n      add\n      swap1\n      dup2\n      mstore\n      0x20\n      add\n      0x00\n      keccak256\n      0x00\n        /* \"2. Solidity/Projet1/Voting.sol\":6254:6288  delete _voters[_voterAddresses[i]] */\n      0x00\n      dup3\n      add\n      exp(0x0100, 0x00)\n      dup2\n      sload\n      swap1\n      0xff\n      mul\n      not\n      and\n      swap1\n      sstore\n      0x00\n      dup3\n      add\n      exp(0x0100, 0x01)\n      dup2\n      sload\n      swap1\n      0xff\n      mul\n      not\n      and\n      swap1\n      sstore\n      0x01\n      dup3\n      add\n      0x00\n      swap1\n      sstore\n      pop\n      pop\n        /* \"2. Solidity/Projet1/Voting.sol\":6235:6238  i++ */\n      dup1\n      dup1\n      0x01\n      add\n      swap2\n      pop\n      pop\n        /* \"2. Solidity/Projet1/Voting.sol\":6190:6299  for (uint i = 0; i < _voterAddresses.length; i++) {... */\n      jump(tag_181)\n    tag_182:\n      pop\n        /* \"2. Solidity/Projet1/Voting.sol\":6324:6339  _voterAddresses */\n      0x04\n      0x00\n        /* \"2. Solidity/Projet1/Voting.sol\":6317:6339  delete _voterAddresses */\n      tag_187\n      swap2\n      swap1\n      tag_188\n      jump\t// in\n    tag_187:\n        /* \"2. Solidity/Projet1/Voting.sol\":6363:6369  uint i */\n      0x00\n        /* \"2. Solidity/Projet1/Voting.sol\":6372:6373  0 */\n      0x00\n        /* \"2. Solidity/Projet1/Voting.sol\":6363:6373  uint i = 0 */\n      swap1\n      pop\n        /* \"2. Solidity/Projet1/Voting.sol\":6358:6452  for (uint i = 0; i < _proposals.length; i++) {... */\n    tag_189:\n        /* \"2. Solidity/Projet1/Voting.sol\":6379:6389  _proposals */\n      0x03\n        /* \"2. Solidity/Projet1/Voting.sol\":6379:6396  _proposals.length */\n      dup1\n      sload\n      swap1\n      pop\n        /* \"2. Solidity/Projet1/Voting.sol\":6375:6376  i */\n      dup2\n        /* \"2. Solidity/Projet1/Voting.sol\":6375:6396  i < _proposals.length */\n      lt\n        /* \"2. Solidity/Projet1/Voting.sol\":6358:6452  for (uint i = 0; i < _proposals.length; i++) {... */\n      iszero\n      tag_190\n      jumpi\n        /* \"2. Solidity/Projet1/Voting.sol\":6424:6438  _proposalOwner */\n      0x02\n        /* \"2. Solidity/Projet1/Voting.sol\":6424:6441  _proposalOwner[i] */\n      0x00\n        /* \"2. Solidity/Projet1/Voting.sol\":6439:6440  i */\n      dup3\n        /* \"2. Solidity/Projet1/Voting.sol\":6424:6441  _proposalOwner[i] */\n      dup2\n      mstore\n      0x20\n      add\n      swap1\n      dup2\n      mstore\n      0x20\n      add\n      0x00\n      keccak256\n      0x00\n        /* \"2. Solidity/Projet1/Voting.sol\":6417:6441  delete _proposalOwner[i] */\n      0x0100\n      exp\n      dup2\n      sload\n      swap1\n      0xffffffffffffffffffffffffffffffffffffffff\n      mul\n      not\n      and\n      swap1\n      sstore\n        /* \"2. Solidity/Projet1/Voting.sol\":6398:6401  i++ */\n      dup1\n      dup1\n      0x01\n      add\n      swap2\n      pop\n      pop\n        /* \"2. Solidity/Projet1/Voting.sol\":6358:6452  for (uint i = 0; i < _proposals.length; i++) {... */\n      jump(tag_189)\n    tag_190:\n      pop\n        /* \"2. Solidity/Projet1/Voting.sol\":6477:6487  _proposals */\n      0x03\n      0x00\n        /* \"2. Solidity/Projet1/Voting.sol\":6470:6487  delete _proposals */\n      tag_192\n      swap2\n      swap1\n      tag_193\n      jump\t// in\n    tag_192:\n        /* \"2. Solidity/Projet1/Voting.sol\":6504:6520  winningProposals */\n      0x06\n      0x00\n        /* \"2. Solidity/Projet1/Voting.sol\":6497:6520  delete winningProposals */\n      tag_194\n      swap2\n      swap1\n      tag_195\n      jump\t// in\n    tag_194:\n        /* \"2. Solidity/Projet1/Voting.sol\":6550:6551  0 */\n      0x00\n        /* \"2. Solidity/Projet1/Voting.sol\":6530:6547  winningProposalId */\n      0x05\n        /* \"2. Solidity/Projet1/Voting.sol\":6530:6551  winningProposalId = 0 */\n      dup2\n      swap1\n      sstore\n      pop\n        /* \"2. Solidity/Projet1/Voting.sol\":6576:6605  WorkflowStatus.registerVoters */\n      0x00\n        /* \"2. Solidity/Projet1/Voting.sol\":6561:6573  ballotStatus */\n      0x07\n      0x00\n        /* \"2. Solidity/Projet1/Voting.sol\":6561:6605  ballotStatus = WorkflowStatus.registerVoters */\n      0x0100\n      exp\n      dup2\n      sload\n      dup2\n      0xff\n      mul\n      not\n      and\n      swap1\n      dup4\n      0x05\n      dup2\n      gt\n      iszero\n      tag_196\n      jumpi\n      tag_197\n      tag_82\n      jump\t// in\n    tag_197:\n    tag_196:\n      mul\n      or\n      swap1\n      sstore\n      pop\n        /* \"2. Solidity/Projet1/Voting.sol\":6629:6692  WorkflowStatusChange(WorkflowStatus.VotesTallied, ballotStatus) */\n      0x0a97a4ee45751e2abf3e4fc8946939630b11b371ea8ae39ccdc3056e98f5cc3f\n        /* \"2. Solidity/Projet1/Voting.sol\":6650:6677  WorkflowStatus.VotesTallied */\n      0x05\n        /* \"2. Solidity/Projet1/Voting.sol\":6679:6691  ballotStatus */\n      0x07\n      0x00\n      swap1\n      sload\n      swap1\n      0x0100\n      exp\n      swap1\n      div\n      0xff\n      and\n        /* \"2. Solidity/Projet1/Voting.sol\":6629:6692  WorkflowStatusChange(WorkflowStatus.VotesTallied, ballotStatus) */\n      mload(0x40)\n      tag_198\n      swap3\n      swap2\n      swap1\n      tag_111\n      jump\t// in\n    tag_198:\n      mload(0x40)\n      dup1\n      swap2\n      sub\n      swap1\n      log1\n        /* \"2. Solidity/Projet1/Voting.sol\":6138:6699  function resetVoting() external onlyOwner {... */\n      jump\t// out\n        /* \"@openzeppelin/contracts/access/Ownable.sol\":1638:1723  function owner() public view virtual returns (address) {... */\n    tag_45:\n        /* \"@openzeppelin/contracts/access/Ownable.sol\":1684:1691  address */\n      0x00\n        /* \"@openzeppelin/contracts/access/Ownable.sol\":1710:1716  _owner */\n      0x00\n      0x00\n      swap1\n      sload\n      swap1\n      0x0100\n      exp\n      swap1\n      div\n      0xffffffffffffffffffffffffffffffffffffffff\n      and\n        /* \"@openzeppelin/contracts/access/Ownable.sol\":1703:1716  return _owner */\n      swap1\n      pop\n        /* \"@openzeppelin/contracts/access/Ownable.sol\":1638:1723  function owner() public view virtual returns (address) {... */\n      swap1\n      jump\t// out\n        /* \"2. Solidity/Projet1/Voting.sol\":5338:5653  function getWinner() external view checkStatus(ballotStatus, WorkflowStatus.VotesTallied) isVoterRegistered(msg.sender) returns (address) {... */\n    tag_49:\n        /* \"2. Solidity/Projet1/Voting.sol\":5467:5474  address */\n      0x00\n        /* \"2. Solidity/Projet1/Voting.sol\":5385:5397  ballotStatus */\n      0x07\n      0x00\n      swap1\n      sload\n      swap1\n      0x0100\n      exp\n      swap1\n      div\n      0xff\n      and\n        /* \"2. Solidity/Projet1/Voting.sol\":5399:5426  WorkflowStatus.VotesTallied */\n      0x05\n        /* \"2. Solidity/Projet1/Voting.sol\":1462:1470  shouldBe */\n      dup1\n        /* \"2. Solidity/Projet1/Voting.sol\":1451:1470  current == shouldBe */\n      0x05\n      dup2\n      gt\n      iszero\n      tag_201\n      jumpi\n      tag_202\n      tag_82\n      jump\t// in\n    tag_202:\n    tag_201:\n        /* \"2. Solidity/Projet1/Voting.sol\":1451:1458  current */\n      dup3\n        /* \"2. Solidity/Projet1/Voting.sol\":1451:1470  current == shouldBe */\n      0x05\n      dup2\n      gt\n      iszero\n      tag_203\n      jumpi\n      tag_204\n      tag_82\n      jump\t// in\n    tag_204:\n    tag_203:\n      eq\n        /* \"2. Solidity/Projet1/Voting.sol\":1443:1531  require(current == shouldBe, \"This action is not available at this stage of the ballot\") */\n      tag_205\n      jumpi\n      mload(0x40)\n      0x08c379a000000000000000000000000000000000000000000000000000000000\n      dup2\n      mstore\n      0x04\n      add\n      tag_206\n      swap1\n      tag_87\n      jump\t// in\n    tag_206:\n      mload(0x40)\n      dup1\n      swap2\n      sub\n      swap1\n      revert\n    tag_205:\n        /* \"2. Solidity/Projet1/Voting.sol\":5446:5456  msg.sender */\n      caller\n        /* \"2. Solidity/Projet1/Voting.sol\":1622:1629  _voters */\n      0x01\n        /* \"2. Solidity/Projet1/Voting.sol\":1622:1643  _voters[voterAddress] */\n      0x00\n        /* \"2. Solidity/Projet1/Voting.sol\":1630:1642  voterAddress */\n      dup3\n        /* \"2. Solidity/Projet1/Voting.sol\":1622:1643  _voters[voterAddress] */\n      0xffffffffffffffffffffffffffffffffffffffff\n      and\n      0xffffffffffffffffffffffffffffffffffffffff\n      and\n      dup2\n      mstore\n      0x20\n      add\n      swap1\n      dup2\n      mstore\n      0x20\n      add\n      0x00\n      keccak256\n        /* \"2. Solidity/Projet1/Voting.sol\":1622:1656  _voters[voterAddress].isRegistered */\n      0x00\n      add\n      0x00\n      swap1\n      sload\n      swap1\n      0x0100\n      exp\n      swap1\n      div\n      0xff\n      and\n        /* \"2. Solidity/Projet1/Voting.sol\":1614:1684  require(_voters[voterAddress].isRegistered, \"Voter is not registered\") */\n      tag_208\n      jumpi\n      mload(0x40)\n      0x08c379a000000000000000000000000000000000000000000000000000000000\n      dup2\n      mstore\n      0x04\n      add\n      tag_209\n      swap1\n      tag_91\n      jump\t// in\n    tag_209:\n      mload(0x40)\n      dup1\n      swap2\n      sub\n      swap1\n      revert\n    tag_208:\n        /* \"2. Solidity/Projet1/Voting.sol\":5521:5522  1 */\n      0x01\n        /* \"2. Solidity/Projet1/Voting.sol\":5494:5510  winningProposals */\n      0x06\n        /* \"2. Solidity/Projet1/Voting.sol\":5494:5517  winningProposals.length */\n      dup1\n      sload\n      swap1\n      pop\n        /* \"2. Solidity/Projet1/Voting.sol\":5494:5522  winningProposals.length == 1 */\n      eq\n        /* \"2. Solidity/Projet1/Voting.sol\":5486:5596  require(winningProposals.length == 1, \"The vote requires another round as some proposals have ended in a tie\") */\n      tag_211\n      jumpi\n      mload(0x40)\n      0x08c379a000000000000000000000000000000000000000000000000000000000\n      dup2\n      mstore\n      0x04\n      add\n      tag_212\n      swap1\n      tag_213\n      jump\t// in\n    tag_212:\n      mload(0x40)\n      dup1\n      swap2\n      sub\n      swap1\n      revert\n    tag_211:\n        /* \"2. Solidity/Projet1/Voting.sol\":5613:5627  _proposalOwner */\n      0x02\n        /* \"2. Solidity/Projet1/Voting.sol\":5613:5646  _proposalOwner[winningProposalId] */\n      0x00\n        /* \"2. Solidity/Projet1/Voting.sol\":5628:5645  winningProposalId */\n      sload(0x05)\n        /* \"2. Solidity/Projet1/Voting.sol\":5613:5646  _proposalOwner[winningProposalId] */\n      dup2\n      mstore\n      0x20\n      add\n      swap1\n      dup2\n      mstore\n      0x20\n      add\n      0x00\n      keccak256\n      0x00\n      swap1\n      sload\n      swap1\n      0x0100\n      exp\n      swap1\n      div\n      0xffffffffffffffffffffffffffffffffffffffff\n      and\n        /* \"2. Solidity/Projet1/Voting.sol\":5606:5646  return _proposalOwner[winningProposalId] */\n      swap4\n      pop\n        /* \"2. Solidity/Projet1/Voting.sol\":1541:1542  _ */\n      pop\n        /* \"2. Solidity/Projet1/Voting.sol\":5338:5653  function getWinner() external view checkStatus(ballotStatus, WorkflowStatus.VotesTallied) isVoterRegistered(msg.sender) returns (address) {... */\n      pop\n      pop\n      swap1\n      jump\t// out\n        /* \"2. Solidity/Projet1/Voting.sol\":1708:1840  function getBallotStatus() external view  isVoterRegistered(msg.sender) returns (WorkflowStatus){... */\n    tag_52:\n        /* \"2. Solidity/Projet1/Voting.sol\":1789:1803  WorkflowStatus */\n      0x00\n        /* \"2. Solidity/Projet1/Voting.sol\":1768:1778  msg.sender */\n      caller\n        /* \"2. Solidity/Projet1/Voting.sol\":1622:1629  _voters */\n      0x01\n        /* \"2. Solidity/Projet1/Voting.sol\":1622:1643  _voters[voterAddress] */\n      0x00\n        /* \"2. Solidity/Projet1/Voting.sol\":1630:1642  voterAddress */\n      dup3\n        /* \"2. Solidity/Projet1/Voting.sol\":1622:1643  _voters[voterAddress] */\n      0xffffffffffffffffffffffffffffffffffffffff\n      and\n      0xffffffffffffffffffffffffffffffffffffffff\n      and\n      dup2\n      mstore\n      0x20\n      add\n      swap1\n      dup2\n      mstore\n      0x20\n      add\n      0x00\n      keccak256\n        /* \"2. Solidity/Projet1/Voting.sol\":1622:1656  _voters[voterAddress].isRegistered */\n      0x00\n      add\n      0x00\n      swap1\n      sload\n      swap1\n      0x0100\n      exp\n      swap1\n      div\n      0xff\n      and\n        /* \"2. Solidity/Projet1/Voting.sol\":1614:1684  require(_voters[voterAddress].isRegistered, \"Voter is not registered\") */\n      tag_215\n      jumpi\n      mload(0x40)\n      0x08c379a000000000000000000000000000000000000000000000000000000000\n      dup2\n      mstore\n      0x04\n      add\n      tag_216\n      swap1\n      tag_91\n      jump\t// in\n    tag_216:\n      mload(0x40)\n      dup1\n      swap2\n      sub\n      swap1\n      revert\n    tag_215:\n        /* \"2. Solidity/Projet1/Voting.sol\":1821:1833  ballotStatus */\n      0x07\n      0x00\n      swap1\n      sload\n      swap1\n      0x0100\n      exp\n      swap1\n      div\n      0xff\n      and\n        /* \"2. Solidity/Projet1/Voting.sol\":1814:1833  return ballotStatus */\n      swap2\n      pop\n        /* \"2. Solidity/Projet1/Voting.sol\":1708:1840  function getBallotStatus() external view  isVoterRegistered(msg.sender) returns (WorkflowStatus){... */\n      pop\n      swap1\n      jump\t// out\n        /* \"2. Solidity/Projet1/Voting.sol\":5667:5995  function getWinningProposal() external view checkStatus(ballotStatus, WorkflowStatus.VotesTallied) isVoterRegistered(msg.sender) returns (Proposal memory) {... */\n    tag_56:\n        /* \"2. Solidity/Projet1/Voting.sol\":5805:5820  Proposal memory */\n      tag_218\n      tag_219\n      jump\t// in\n    tag_218:\n        /* \"2. Solidity/Projet1/Voting.sol\":5723:5735  ballotStatus */\n      0x07\n      0x00\n      swap1\n      sload\n      swap1\n      0x0100\n      exp\n      swap1\n      div\n      0xff\n      and\n        /* \"2. Solidity/Projet1/Voting.sol\":5737:5764  WorkflowStatus.VotesTallied */\n      0x05\n        /* \"2. Solidity/Projet1/Voting.sol\":1462:1470  shouldBe */\n      dup1\n        /* \"2. Solidity/Projet1/Voting.sol\":1451:1470  current == shouldBe */\n      0x05\n      dup2\n      gt\n      iszero\n      tag_221\n      jumpi\n      tag_222\n      tag_82\n      jump\t// in\n    tag_222:\n    tag_221:\n        /* \"2. Solidity/Projet1/Voting.sol\":1451:1458  current */\n      dup3\n        /* \"2. Solidity/Projet1/Voting.sol\":1451:1470  current == shouldBe */\n      0x05\n      dup2\n      gt\n      iszero\n      tag_223\n      jumpi\n      tag_224\n      tag_82\n      jump\t// in\n    tag_224:\n    tag_223:\n      eq\n        /* \"2. Solidity/Projet1/Voting.sol\":1443:1531  require(current == shouldBe, \"This action is not available at this stage of the ballot\") */\n      tag_225\n      jumpi\n      mload(0x40)\n      0x08c379a000000000000000000000000000000000000000000000000000000000\n      dup2\n      mstore\n      0x04\n      add\n      tag_226\n      swap1\n      tag_87\n      jump\t// in\n    tag_226:\n      mload(0x40)\n      dup1\n      swap2\n      sub\n      swap1\n      revert\n    tag_225:\n        /* \"2. Solidity/Projet1/Voting.sol\":5784:5794  msg.sender */\n      caller\n        /* \"2. Solidity/Projet1/Voting.sol\":1622:1629  _voters */\n      0x01\n        /* \"2. Solidity/Projet1/Voting.sol\":1622:1643  _voters[voterAddress] */\n      0x00\n        /* \"2. Solidity/Projet1/Voting.sol\":1630:1642  voterAddress */\n      dup3\n        /* \"2. Solidity/Projet1/Voting.sol\":1622:1643  _voters[voterAddress] */\n      0xffffffffffffffffffffffffffffffffffffffff\n      and\n      0xffffffffffffffffffffffffffffffffffffffff\n      and\n      dup2\n      mstore\n      0x20\n      add\n      swap1\n      dup2\n      mstore\n      0x20\n      add\n      0x00\n      keccak256\n        /* \"2. Solidity/Projet1/Voting.sol\":1622:1656  _voters[voterAddress].isRegistered */\n      0x00\n      add\n      0x00\n      swap1\n      sload\n      swap1\n      0x0100\n      exp\n      swap1\n      div\n      0xff\n      and\n        /* \"2. Solidity/Projet1/Voting.sol\":1614:1684  require(_voters[voterAddress].isRegistered, \"Voter is not registered\") */\n      tag_228\n      jumpi\n      mload(0x40)\n      0x08c379a000000000000000000000000000000000000000000000000000000000\n      dup2\n      mstore\n      0x04\n      add\n      tag_229\n      swap1\n      tag_91\n      jump\t// in\n    tag_229:\n      mload(0x40)\n      dup1\n      swap2\n      sub\n      swap1\n      revert\n    tag_228:\n        /* \"2. Solidity/Projet1/Voting.sol\":5867:5868  1 */\n      0x01\n        /* \"2. Solidity/Projet1/Voting.sol\":5840:5856  winningProposals */\n      0x06\n        /* \"2. Solidity/Projet1/Voting.sol\":5840:5863  winningProposals.length */\n      dup1\n      sload\n      swap1\n      pop\n        /* \"2. Solidity/Projet1/Voting.sol\":5840:5868  winningProposals.length == 1 */\n      eq\n        /* \"2. Solidity/Projet1/Voting.sol\":5832:5942  require(winningProposals.length == 1, \"The vote requires another round as some proposals have ended in a tie\") */\n      tag_231\n      jumpi\n      mload(0x40)\n      0x08c379a000000000000000000000000000000000000000000000000000000000\n      dup2\n      mstore\n      0x04\n      add\n      tag_232\n      swap1\n      tag_213\n      jump\t// in\n    tag_232:\n      mload(0x40)\n      dup1\n      swap2\n      sub\n      swap1\n      revert\n    tag_231:\n        /* \"2. Solidity/Projet1/Voting.sol\":5959:5969  _proposals */\n      0x03\n        /* \"2. Solidity/Projet1/Voting.sol\":5970:5987  winningProposalId */\n      sload(0x05)\n        /* \"2. Solidity/Projet1/Voting.sol\":5959:5988  _proposals[winningProposalId] */\n      dup2\n      sload\n      dup2\n      lt\n      tag_233\n      jumpi\n      tag_234\n      tag_98\n      jump\t// in\n    tag_234:\n    tag_233:\n      swap1\n      0x00\n      mstore\n      keccak256(0x00, 0x20)\n      swap1\n      0x02\n      mul\n      add\n        /* \"2. Solidity/Projet1/Voting.sol\":5952:5988  return _proposals[winningProposalId] */\n      mload(0x40)\n      dup1\n      0x40\n      add\n      0x40\n      mstore\n      swap1\n      dup2\n      0x00\n      dup3\n      add\n      dup1\n      sload\n      tag_236\n      swap1\n      tag_162\n      jump\t// in\n    tag_236:\n      dup1\n      0x1f\n      add\n      0x20\n      dup1\n      swap2\n      div\n      mul\n      0x20\n      add\n      mload(0x40)\n      swap1\n      dup2\n      add\n      0x40\n      mstore\n      dup1\n      swap3\n      swap2\n      swap1\n      dup2\n      dup2\n      mstore\n      0x20\n      add\n      dup3\n      dup1\n      sload\n      tag_237\n      swap1\n      tag_162\n      jump\t// in\n    tag_237:\n      dup1\n      iszero\n      tag_238\n      jumpi\n      dup1\n      0x1f\n      lt\n      tag_239\n      jumpi\n      0x0100\n      dup1\n      dup4\n      sload\n      div\n      mul\n      dup4\n      mstore\n      swap2\n      0x20\n      add\n      swap2\n      jump(tag_238)\n    tag_239:\n      dup3\n      add\n      swap2\n      swap1\n      0x00\n      mstore\n      keccak256(0x00, 0x20)\n      swap1\n    tag_240:\n      dup2\n      sload\n      dup2\n      mstore\n      swap1\n      0x01\n      add\n      swap1\n      0x20\n      add\n      dup1\n      dup4\n      gt\n      tag_240\n      jumpi\n      dup3\n      swap1\n      sub\n      0x1f\n      and\n      dup3\n      add\n      swap2\n    tag_238:\n      pop\n      pop\n      pop\n      pop\n      pop\n      dup2\n      mstore\n      0x20\n      add\n      0x01\n      dup3\n      add\n      sload\n      dup2\n      mstore\n      pop\n      pop\n      swap4\n      pop\n        /* \"2. Solidity/Projet1/Voting.sol\":1541:1542  _ */\n      pop\n        /* \"2. Solidity/Projet1/Voting.sol\":5667:5995  function getWinningProposal() external view checkStatus(ballotStatus, WorkflowStatus.VotesTallied) isVoterRegistered(msg.sender) returns (Proposal memory) {... */\n      pop\n      pop\n      swap1\n      jump\t// out\n        /* \"2. Solidity/Projet1/Voting.sol\":2505:2702  function endVotingSession() external onlyOwner {... */\n    tag_60:\n        /* \"@openzeppelin/contracts/access/Ownable.sol\":1531:1544  _checkOwner() */\n      tag_242\n        /* \"@openzeppelin/contracts/access/Ownable.sol\":1531:1542  _checkOwner */\n      tag_106\n        /* \"@openzeppelin/contracts/access/Ownable.sol\":1531:1544  _checkOwner() */\n      jump\t// in\n    tag_242:\n        /* \"2. Solidity/Projet1/Voting.sol\":2577:2610  WorkflowStatus.VotingSessionEnded */\n      0x04\n        /* \"2. Solidity/Projet1/Voting.sol\":2562:2574  ballotStatus */\n      0x07\n      0x00\n        /* \"2. Solidity/Projet1/Voting.sol\":2562:2610  ballotStatus = WorkflowStatus.VotingSessionEnded */\n      0x0100\n      exp\n      dup2\n      sload\n      dup2\n      0xff\n      mul\n      not\n      and\n      swap1\n      dup4\n      0x05\n      dup2\n      gt\n      iszero\n      tag_244\n      jumpi\n      tag_245\n      tag_82\n      jump\t// in\n    tag_245:\n    tag_244:\n      mul\n      or\n      swap1\n      sstore\n      pop\n        /* \"2. Solidity/Projet1/Voting.sol\":2625:2695  WorkflowStatusChange(WorkflowStatus.VotingSessionStarted,ballotStatus) */\n      0x0a97a4ee45751e2abf3e4fc8946939630b11b371ea8ae39ccdc3056e98f5cc3f\n        /* \"2. Solidity/Projet1/Voting.sol\":2646:2681  WorkflowStatus.VotingSessionStarted */\n      0x03\n        /* \"2. Solidity/Projet1/Voting.sol\":2682:2694  ballotStatus */\n      0x07\n      0x00\n      swap1\n      sload\n      swap1\n      0x0100\n      exp\n      swap1\n      div\n      0xff\n      and\n        /* \"2. Solidity/Projet1/Voting.sol\":2625:2695  WorkflowStatusChange(WorkflowStatus.VotingSessionStarted,ballotStatus) */\n      mload(0x40)\n      tag_246\n      swap3\n      swap2\n      swap1\n      tag_111\n      jump\t// in\n    tag_246:\n      mload(0x40)\n      dup1\n      swap2\n      sub\n      swap1\n      log1\n        /* \"2. Solidity/Projet1/Voting.sol\":2505:2702  function endVotingSession() external onlyOwner {... */\n      jump\t// out\n        /* \"2. Solidity/Projet1/Voting.sol\":4665:5328  function countVotes() external checkStatus(ballotStatus, WorkflowStatus.VotingSessionEnded) onlyOwner {... */\n    tag_62:\n        /* \"2. Solidity/Projet1/Voting.sol\":4708:4720  ballotStatus */\n      0x07\n      0x00\n      swap1\n      sload\n      swap1\n      0x0100\n      exp\n      swap1\n      div\n      0xff\n      and\n        /* \"2. Solidity/Projet1/Voting.sol\":4722:4755  WorkflowStatus.VotingSessionEnded */\n      0x04\n        /* \"2. Solidity/Projet1/Voting.sol\":1462:1470  shouldBe */\n      dup1\n        /* \"2. Solidity/Projet1/Voting.sol\":1451:1470  current == shouldBe */\n      0x05\n      dup2\n      gt\n      iszero\n      tag_248\n      jumpi\n      tag_249\n      tag_82\n      jump\t// in\n    tag_249:\n    tag_248:\n        /* \"2. Solidity/Projet1/Voting.sol\":1451:1458  current */\n      dup3\n        /* \"2. Solidity/Projet1/Voting.sol\":1451:1470  current == shouldBe */\n      0x05\n      dup2\n      gt\n      iszero\n      tag_250\n      jumpi\n      tag_251\n      tag_82\n      jump\t// in\n    tag_251:\n    tag_250:\n      eq\n        /* \"2. Solidity/Projet1/Voting.sol\":1443:1531  require(current == shouldBe, \"This action is not available at this stage of the ballot\") */\n      tag_252\n      jumpi\n      mload(0x40)\n      0x08c379a000000000000000000000000000000000000000000000000000000000\n      dup2\n      mstore\n      0x04\n      add\n      tag_253\n      swap1\n      tag_87\n      jump\t// in\n    tag_253:\n      mload(0x40)\n      dup1\n      swap2\n      sub\n      swap1\n      revert\n    tag_252:\n        /* \"@openzeppelin/contracts/access/Ownable.sol\":1531:1544  _checkOwner() */\n      tag_255\n        /* \"@openzeppelin/contracts/access/Ownable.sol\":1531:1542  _checkOwner */\n      tag_106\n        /* \"@openzeppelin/contracts/access/Ownable.sol\":1531:1544  _checkOwner() */\n      jump\t// in\n    tag_255:\n        /* \"2. Solidity/Projet1/Voting.sol\":4777:4794  uint highestCount */\n      0x00\n        /* \"2. Solidity/Projet1/Voting.sol\":4811:4827  winningProposals */\n      0x06\n      0x00\n        /* \"2. Solidity/Projet1/Voting.sol\":4804:4827  delete winningProposals */\n      tag_257\n      swap2\n      swap1\n      tag_195\n      jump\t// in\n    tag_257:\n        /* \"2. Solidity/Projet1/Voting.sol\":4844:4850  uint i */\n      0x00\n        /* \"2. Solidity/Projet1/Voting.sol\":4853:4854  0 */\n      0x00\n        /* \"2. Solidity/Projet1/Voting.sol\":4844:4854  uint i = 0 */\n      swap1\n      pop\n        /* \"2. Solidity/Projet1/Voting.sol\":4839:5215  for (uint i = 0; i < _proposals.length; i++) {... */\n    tag_258:\n        /* \"2. Solidity/Projet1/Voting.sol\":4860:4870  _proposals */\n      0x03\n        /* \"2. Solidity/Projet1/Voting.sol\":4860:4877  _proposals.length */\n      dup1\n      sload\n      swap1\n      pop\n        /* \"2. Solidity/Projet1/Voting.sol\":4856:4857  i */\n      dup2\n        /* \"2. Solidity/Projet1/Voting.sol\":4856:4877  i < _proposals.length */\n      lt\n        /* \"2. Solidity/Projet1/Voting.sol\":4839:5215  for (uint i = 0; i < _proposals.length; i++) {... */\n      iszero\n      tag_259\n      jumpi\n        /* \"2. Solidity/Projet1/Voting.sol\":4928:4940  highestCount */\n      dup2\n        /* \"2. Solidity/Projet1/Voting.sol\":4902:4912  _proposals */\n      0x03\n        /* \"2. Solidity/Projet1/Voting.sol\":4913:4914  i */\n      dup3\n        /* \"2. Solidity/Projet1/Voting.sol\":4902:4915  _proposals[i] */\n      dup2\n      sload\n      dup2\n      lt\n      tag_261\n      jumpi\n      tag_262\n      tag_98\n      jump\t// in\n    tag_262:\n    tag_261:\n      swap1\n      0x00\n      mstore\n      keccak256(0x00, 0x20)\n      swap1\n      0x02\n      mul\n      add\n        /* \"2. Solidity/Projet1/Voting.sol\":4902:4925  _proposals[i].voteCount */\n      0x01\n      add\n      sload\n        /* \"2. Solidity/Projet1/Voting.sol\":4902:4940  _proposals[i].voteCount > highestCount */\n      gt\n        /* \"2. Solidity/Projet1/Voting.sol\":4898:5205  if (_proposals[i].voteCount > highestCount) {... */\n      iszero\n      tag_264\n      jumpi\n        /* \"2. Solidity/Projet1/Voting.sol\":4975:4985  _proposals */\n      0x03\n        /* \"2. Solidity/Projet1/Voting.sol\":4986:4987  i */\n      dup2\n        /* \"2. Solidity/Projet1/Voting.sol\":4975:4988  _proposals[i] */\n      dup2\n      sload\n      dup2\n      lt\n      tag_265\n      jumpi\n      tag_266\n      tag_98\n      jump\t// in\n    tag_266:\n    tag_265:\n      swap1\n      0x00\n      mstore\n      keccak256(0x00, 0x20)\n      swap1\n      0x02\n      mul\n      add\n        /* \"2. Solidity/Projet1/Voting.sol\":4975:4998  _proposals[i].voteCount */\n      0x01\n      add\n      sload\n        /* \"2. Solidity/Projet1/Voting.sol\":4960:4998  highestCount = _proposals[i].voteCount */\n      swap2\n      pop\n        /* \"2. Solidity/Projet1/Voting.sol\":5023:5039  winningProposals */\n      0x06\n      0x00\n        /* \"2. Solidity/Projet1/Voting.sol\":5016:5039  delete winningProposals */\n      tag_268\n      swap2\n      swap1\n      tag_195\n      jump\t// in\n    tag_268:\n        /* \"2. Solidity/Projet1/Voting.sol\":5058:5074  winningProposals */\n      0x06\n        /* \"2. Solidity/Projet1/Voting.sol\":5080:5081  i */\n      dup2\n        /* \"2. Solidity/Projet1/Voting.sol\":5058:5082  winningProposals.push(i) */\n      swap1\n      dup1\n      0x01\n      dup2\n      sload\n      add\n      dup1\n      dup3\n      sstore\n      dup1\n      swap2\n      pop\n      pop\n      0x01\n      swap1\n      sub\n      swap1\n      0x00\n      mstore\n      keccak256(0x00, 0x20)\n      add\n      0x00\n      swap1\n      swap2\n      swap1\n      swap2\n      swap1\n      swap2\n      pop\n      sstore\n        /* \"2. Solidity/Projet1/Voting.sol\":4898:5205  if (_proposals[i].voteCount > highestCount) {... */\n      jump(tag_270)\n    tag_264:\n        /* \"2. Solidity/Projet1/Voting.sol\":5134:5146  highestCount */\n      dup2\n        /* \"2. Solidity/Projet1/Voting.sol\":5107:5117  _proposals */\n      0x03\n        /* \"2. Solidity/Projet1/Voting.sol\":5118:5119  i */\n      dup3\n        /* \"2. Solidity/Projet1/Voting.sol\":5107:5120  _proposals[i] */\n      dup2\n      sload\n      dup2\n      lt\n      tag_271\n      jumpi\n      tag_272\n      tag_98\n      jump\t// in\n    tag_272:\n    tag_271:\n      swap1\n      0x00\n      mstore\n      keccak256(0x00, 0x20)\n      swap1\n      0x02\n      mul\n      add\n        /* \"2. Solidity/Projet1/Voting.sol\":5107:5130  _proposals[i].voteCount */\n      0x01\n      add\n      sload\n        /* \"2. Solidity/Projet1/Voting.sol\":5107:5146  _proposals[i].voteCount == highestCount */\n      sub\n        /* \"2. Solidity/Projet1/Voting.sol\":5103:5205  if (_proposals[i].voteCount == highestCount) {... */\n      tag_274\n      jumpi\n        /* \"2. Solidity/Projet1/Voting.sol\":5166:5182  winningProposals */\n      0x06\n        /* \"2. Solidity/Projet1/Voting.sol\":5188:5189  i */\n      dup2\n        /* \"2. Solidity/Projet1/Voting.sol\":5166:5190  winningProposals.push(i) */\n      swap1\n      dup1\n      0x01\n      dup2\n      sload\n      add\n      dup1\n      dup3\n      sstore\n      dup1\n      swap2\n      pop\n      pop\n      0x01\n      swap1\n      sub\n      swap1\n      0x00\n      mstore\n      keccak256(0x00, 0x20)\n      add\n      0x00\n      swap1\n      swap2\n      swap1\n      swap2\n      swap1\n      swap2\n      pop\n      sstore\n        /* \"2. Solidity/Projet1/Voting.sol\":5103:5205  if (_proposals[i].voteCount == highestCount) {... */\n    tag_274:\n        /* \"2. Solidity/Projet1/Voting.sol\":4898:5205  if (_proposals[i].voteCount > highestCount) {... */\n    tag_270:\n        /* \"2. Solidity/Projet1/Voting.sol\":4879:4882  i++ */\n      dup1\n      dup1\n      0x01\n      add\n      swap2\n      pop\n      pop\n        /* \"2. Solidity/Projet1/Voting.sol\":4839:5215  for (uint i = 0; i < _proposals.length; i++) {... */\n      jump(tag_258)\n    tag_259:\n      pop\n        /* \"2. Solidity/Projet1/Voting.sol\":5255:5256  1 */\n      0x01\n        /* \"2. Solidity/Projet1/Voting.sol\":5228:5244  winningProposals */\n      0x06\n        /* \"2. Solidity/Projet1/Voting.sol\":5228:5251  winningProposals.length */\n      dup1\n      sload\n      swap1\n      pop\n        /* \"2. Solidity/Projet1/Voting.sol\":5228:5256  winningProposals.length == 1 */\n      sub\n        /* \"2. Solidity/Projet1/Voting.sol\":5225:5322  if(winningProposals.length == 1) {... */\n      tag_276\n      jumpi\n        /* \"2. Solidity/Projet1/Voting.sol\":5292:5308  winningProposals */\n      0x06\n        /* \"2. Solidity/Projet1/Voting.sol\":5309:5310  0 */\n      0x00\n        /* \"2. Solidity/Projet1/Voting.sol\":5292:5311  winningProposals[0] */\n      dup2\n      sload\n      dup2\n      lt\n      tag_277\n      jumpi\n      tag_278\n      tag_98\n      jump\t// in\n    tag_278:\n    tag_277:\n      swap1\n      0x00\n      mstore\n      keccak256(0x00, 0x20)\n      add\n      sload\n        /* \"2. Solidity/Projet1/Voting.sol\":5272:5289  winningProposalId */\n      0x05\n        /* \"2. Solidity/Projet1/Voting.sol\":5272:5311  winningProposalId = winningProposals[0] */\n      dup2\n      swap1\n      sstore\n      pop\n        /* \"2. Solidity/Projet1/Voting.sol\":5225:5322  if(winningProposals.length == 1) {... */\n    tag_276:\n        /* \"2. Solidity/Projet1/Voting.sol\":4767:5328  {... */\n      pop\n        /* \"2. Solidity/Projet1/Voting.sol\":4665:5328  function countVotes() external checkStatus(ballotStatus, WorkflowStatus.VotingSessionEnded) onlyOwner {... */\n      pop\n      pop\n      jump\t// out\n        /* \"2. Solidity/Projet1/Voting.sol\":6001:6132  function getVoters() external view isVoterRegistered(msg.sender) returns (address[] memory) {... */\n    tag_64:\n        /* \"2. Solidity/Projet1/Voting.sol\":6075:6091  address[] memory */\n      0x60\n        /* \"2. Solidity/Projet1/Voting.sol\":6054:6064  msg.sender */\n      caller\n        /* \"2. Solidity/Projet1/Voting.sol\":1622:1629  _voters */\n      0x01\n        /* \"2. Solidity/Projet1/Voting.sol\":1622:1643  _voters[voterAddress] */\n      0x00\n        /* \"2. Solidity/Projet1/Voting.sol\":1630:1642  voterAddress */\n      dup3\n        /* \"2. Solidity/Projet1/Voting.sol\":1622:1643  _voters[voterAddress] */\n      0xffffffffffffffffffffffffffffffffffffffff\n      and\n      0xffffffffffffffffffffffffffffffffffffffff\n      and\n      dup2\n      mstore\n      0x20\n      add\n      swap1\n      dup2\n      mstore\n      0x20\n      add\n      0x00\n      keccak256\n        /* \"2. Solidity/Projet1/Voting.sol\":1622:1656  _voters[voterAddress].isRegistered */\n      0x00\n      add\n      0x00\n      swap1\n      sload\n      swap1\n      0x0100\n      exp\n      swap1\n      div\n      0xff\n      and\n        /* \"2. Solidity/Projet1/Voting.sol\":1614:1684  require(_voters[voterAddress].isRegistered, \"Voter is not registered\") */\n      tag_281\n      jumpi\n      mload(0x40)\n      0x08c379a000000000000000000000000000000000000000000000000000000000\n      dup2\n      mstore\n      0x04\n      add\n      tag_282\n      swap1\n      tag_91\n      jump\t// in\n    tag_282:\n      mload(0x40)\n      dup1\n      swap2\n      sub\n      swap1\n      revert\n    tag_281:\n        /* \"2. Solidity/Projet1/Voting.sol\":6110:6125  _voterAddresses */\n      0x04\n        /* \"2. Solidity/Projet1/Voting.sol\":6103:6125  return _voterAddresses */\n      dup1\n      sload\n      dup1\n      0x20\n      mul\n      0x20\n      add\n      mload(0x40)\n      swap1\n      dup2\n      add\n      0x40\n      mstore\n      dup1\n      swap3\n      swap2\n      swap1\n      dup2\n      dup2\n      mstore\n      0x20\n      add\n      dup3\n      dup1\n      sload\n      dup1\n      iszero\n      tag_284\n      jumpi\n      0x20\n      mul\n      dup3\n      add\n      swap2\n      swap1\n      0x00\n      mstore\n      keccak256(0x00, 0x20)\n      swap1\n    tag_285:\n      dup2\n      0x00\n      swap1\n      sload\n      swap1\n      0x0100\n      exp\n      swap1\n      div\n      0xffffffffffffffffffffffffffffffffffffffff\n      and\n      0xffffffffffffffffffffffffffffffffffffffff\n      and\n      dup2\n      mstore\n      0x20\n      add\n      swap1\n      0x01\n      add\n      swap1\n      dup1\n      dup4\n      gt\n      tag_285\n      jumpi\n    tag_284:\n      pop\n      pop\n      pop\n      pop\n      pop\n      swap2\n      pop\n        /* \"2. Solidity/Projet1/Voting.sol\":6001:6132  function getVoters() external view isVoterRegistered(msg.sender) returns (address[] memory) {... */\n      pop\n      swap1\n      jump\t// out\n        /* \"2. Solidity/Projet1/Voting.sol\":1846:2058  function startProposalsRegistration() external onlyOwner {... */\n    tag_68:\n        /* \"@openzeppelin/contracts/access/Ownable.sol\":1531:1544  _checkOwner() */\n      tag_287\n        /* \"@openzeppelin/contracts/access/Ownable.sol\":1531:1542  _checkOwner */\n      tag_106\n        /* \"@openzeppelin/contracts/access/Ownable.sol\":1531:1544  _checkOwner() */\n      jump\t// in\n    tag_287:\n        /* \"2. Solidity/Projet1/Voting.sol\":1928:1971  WorkflowStatus.ProposalsRegistrationStarted */\n      0x01\n        /* \"2. Solidity/Projet1/Voting.sol\":1913:1925  ballotStatus */\n      0x07\n      0x00\n        /* \"2. Solidity/Projet1/Voting.sol\":1913:1971  ballotStatus = WorkflowStatus.ProposalsRegistrationStarted */\n      0x0100\n      exp\n      dup2\n      sload\n      dup2\n      0xff\n      mul\n      not\n      and\n      swap1\n      dup4\n      0x05\n      dup2\n      gt\n      iszero\n      tag_289\n      jumpi\n      tag_290\n      tag_82\n      jump\t// in\n    tag_290:\n    tag_289:\n      mul\n      or\n      swap1\n      sstore\n      pop\n        /* \"2. Solidity/Projet1/Voting.sol\":1986:2051  WorkflowStatusChange(WorkflowStatus.registerVoters, ballotStatus) */\n      0x0a97a4ee45751e2abf3e4fc8946939630b11b371ea8ae39ccdc3056e98f5cc3f\n        /* \"2. Solidity/Projet1/Voting.sol\":2007:2036  WorkflowStatus.registerVoters */\n      0x00\n        /* \"2. Solidity/Projet1/Voting.sol\":2038:2050  ballotStatus */\n      0x07\n      0x00\n      swap1\n      sload\n      swap1\n      0x0100\n      exp\n      swap1\n      div\n      0xff\n      and\n        /* \"2. Solidity/Projet1/Voting.sol\":1986:2051  WorkflowStatusChange(WorkflowStatus.registerVoters, ballotStatus) */\n      mload(0x40)\n      tag_291\n      swap3\n      swap2\n      swap1\n      tag_111\n      jump\t// in\n    tag_291:\n      mload(0x40)\n      dup1\n      swap2\n      sub\n      swap1\n      log1\n        /* \"2. Solidity/Projet1/Voting.sol\":1846:2058  function startProposalsRegistration() external onlyOwner {... */\n      jump\t// out\n        /* \"2. Solidity/Projet1/Voting.sol\":3542:3944  function registerProposal(address voterAddr, string calldata voterProposal) ... */\n    tag_72:\n        /* \"@openzeppelin/contracts/access/Ownable.sol\":1531:1544  _checkOwner() */\n      tag_293\n        /* \"@openzeppelin/contracts/access/Ownable.sol\":1531:1542  _checkOwner */\n      tag_106\n        /* \"@openzeppelin/contracts/access/Ownable.sol\":1531:1544  _checkOwner() */\n      jump\t// in\n    tag_293:\n        /* \"2. Solidity/Projet1/Voting.sol\":3667:3679  ballotStatus */\n      0x07\n      0x00\n      swap1\n      sload\n      swap1\n      0x0100\n      exp\n      swap1\n      div\n      0xff\n      and\n        /* \"2. Solidity/Projet1/Voting.sol\":3681:3724  WorkflowStatus.ProposalsRegistrationStarted */\n      0x01\n        /* \"2. Solidity/Projet1/Voting.sol\":1462:1470  shouldBe */\n      dup1\n        /* \"2. Solidity/Projet1/Voting.sol\":1451:1470  current == shouldBe */\n      0x05\n      dup2\n      gt\n      iszero\n      tag_295\n      jumpi\n      tag_296\n      tag_82\n      jump\t// in\n    tag_296:\n    tag_295:\n        /* \"2. Solidity/Projet1/Voting.sol\":1451:1458  current */\n      dup3\n        /* \"2. Solidity/Projet1/Voting.sol\":1451:1470  current == shouldBe */\n      0x05\n      dup2\n      gt\n      iszero\n      tag_297\n      jumpi\n      tag_298\n      tag_82\n      jump\t// in\n    tag_298:\n    tag_297:\n      eq\n        /* \"2. Solidity/Projet1/Voting.sol\":1443:1531  require(current == shouldBe, \"This action is not available at this stage of the ballot\") */\n      tag_299\n      jumpi\n      mload(0x40)\n      0x08c379a000000000000000000000000000000000000000000000000000000000\n      dup2\n      mstore\n      0x04\n      add\n      tag_300\n      swap1\n      tag_87\n      jump\t// in\n    tag_300:\n      mload(0x40)\n      dup1\n      swap2\n      sub\n      swap1\n      revert\n    tag_299:\n        /* \"2. Solidity/Projet1/Voting.sol\":3753:3762  voterAddr */\n      dup5\n        /* \"2. Solidity/Projet1/Voting.sol\":1622:1629  _voters */\n      0x01\n        /* \"2. Solidity/Projet1/Voting.sol\":1622:1643  _voters[voterAddress] */\n      0x00\n        /* \"2. Solidity/Projet1/Voting.sol\":1630:1642  voterAddress */\n      dup3\n        /* \"2. Solidity/Projet1/Voting.sol\":1622:1643  _voters[voterAddress] */\n      0xffffffffffffffffffffffffffffffffffffffff\n      and\n      0xffffffffffffffffffffffffffffffffffffffff\n      and\n      dup2\n      mstore\n      0x20\n      add\n      swap1\n      dup2\n      mstore\n      0x20\n      add\n      0x00\n      keccak256\n        /* \"2. Solidity/Projet1/Voting.sol\":1622:1656  _voters[voterAddress].isRegistered */\n      0x00\n      add\n      0x00\n      swap1\n      sload\n      swap1\n      0x0100\n      exp\n      swap1\n      div\n      0xff\n      and\n        /* \"2. Solidity/Projet1/Voting.sol\":1614:1684  require(_voters[voterAddress].isRegistered, \"Voter is not registered\") */\n      tag_302\n      jumpi\n      mload(0x40)\n      0x08c379a000000000000000000000000000000000000000000000000000000000\n      dup2\n      mstore\n      0x04\n      add\n      tag_303\n      swap1\n      tag_91\n      jump\t// in\n    tag_303:\n      mload(0x40)\n      dup1\n      swap2\n      sub\n      swap1\n      revert\n    tag_302:\n        /* \"2. Solidity/Projet1/Voting.sol\":3779:3789  _proposals */\n      0x03\n        /* \"2. Solidity/Projet1/Voting.sol\":3795:3821  Proposal(voterProposal, 0) */\n      mload(0x40)\n      dup1\n      0x40\n      add\n      0x40\n      mstore\n      dup1\n        /* \"2. Solidity/Projet1/Voting.sol\":3804:3817  voterProposal */\n      dup8\n      dup8\n        /* \"2. Solidity/Projet1/Voting.sol\":3795:3821  Proposal(voterProposal, 0) */\n      dup1\n      dup1\n      0x1f\n      add\n      0x20\n      dup1\n      swap2\n      div\n      mul\n      0x20\n      add\n      mload(0x40)\n      swap1\n      dup2\n      add\n      0x40\n      mstore\n      dup1\n      swap4\n      swap3\n      swap2\n      swap1\n      dup2\n      dup2\n      mstore\n      0x20\n      add\n      dup4\n      dup4\n      dup1\n      dup3\n      dup5\n      calldatacopy\n      0x00\n      dup2\n      dup5\n      add\n      mstore\n      not(0x1f)\n      0x1f\n      dup3\n      add\n      and\n      swap1\n      pop\n      dup1\n      dup4\n      add\n      swap3\n      pop\n      pop\n      pop\n      pop\n      pop\n      pop\n      pop\n      dup2\n      mstore\n      0x20\n      add\n        /* \"2. Solidity/Projet1/Voting.sol\":3819:3820  0 */\n      0x00\n        /* \"2. Solidity/Projet1/Voting.sol\":3795:3821  Proposal(voterProposal, 0) */\n      dup2\n      mstore\n      pop\n        /* \"2. Solidity/Projet1/Voting.sol\":3779:3822  _proposals.push(Proposal(voterProposal, 0)) */\n      swap1\n      dup1\n      0x01\n      dup2\n      sload\n      add\n      dup1\n      dup3\n      sstore\n      dup1\n      swap2\n      pop\n      pop\n      0x01\n      swap1\n      sub\n      swap1\n      0x00\n      mstore\n      keccak256(0x00, 0x20)\n      swap1\n      0x02\n      mul\n      add\n      0x00\n      swap1\n      swap2\n      swap1\n      swap2\n      swap1\n      swap2\n      pop\n      0x00\n      dup3\n      add\n      mload\n      dup2\n      0x00\n      add\n      swap1\n      dup2\n      tag_306\n      swap2\n      swap1\n      tag_307\n      jump\t// in\n    tag_306:\n      pop\n      0x20\n      dup3\n      add\n      mload\n      dup2\n      0x01\n      add\n      sstore\n      pop\n      pop\n        /* \"2. Solidity/Projet1/Voting.sol\":3872:3881  voterAddr */\n      dup6\n        /* \"2. Solidity/Projet1/Voting.sol\":3832:3846  _proposalOwner */\n      0x02\n        /* \"2. Solidity/Projet1/Voting.sol\":3832:3869  _proposalOwner[_proposals.length - 1] */\n      0x00\n        /* \"2. Solidity/Projet1/Voting.sol\":3867:3868  1 */\n      0x01\n        /* \"2. Solidity/Projet1/Voting.sol\":3847:3857  _proposals */\n      0x03\n        /* \"2. Solidity/Projet1/Voting.sol\":3847:3864  _proposals.length */\n      dup1\n      sload\n      swap1\n      pop\n        /* \"2. Solidity/Projet1/Voting.sol\":3847:3868  _proposals.length - 1 */\n      tag_308\n      swap2\n      swap1\n      tag_309\n      jump\t// in\n    tag_308:\n        /* \"2. Solidity/Projet1/Voting.sol\":3832:3869  _proposalOwner[_proposals.length - 1] */\n      dup2\n      mstore\n      0x20\n      add\n      swap1\n      dup2\n      mstore\n      0x20\n      add\n      0x00\n      keccak256\n      0x00\n        /* \"2. Solidity/Projet1/Voting.sol\":3832:3881  _proposalOwner[_proposals.length - 1] = voterAddr */\n      0x0100\n      exp\n      dup2\n      sload\n      dup2\n      0xffffffffffffffffffffffffffffffffffffffff\n      mul\n      not\n      and\n      swap1\n      dup4\n      0xffffffffffffffffffffffffffffffffffffffff\n      and\n      mul\n      or\n      swap1\n      sstore\n      pop\n        /* \"2. Solidity/Projet1/Voting.sol\":3896:3937  ProposalRegistered(_proposals.length - 1) */\n      0x92e393e9b54e2f801d3ea4beb0c5e71a21cc34a5d34b77d0fb8a3aa1650dc18f\n        /* \"2. Solidity/Projet1/Voting.sol\":3935:3936  1 */\n      0x01\n        /* \"2. Solidity/Projet1/Voting.sol\":3915:3925  _proposals */\n      0x03\n        /* \"2. Solidity/Projet1/Voting.sol\":3915:3932  _proposals.length */\n      dup1\n      sload\n      swap1\n      pop\n        /* \"2. Solidity/Projet1/Voting.sol\":3915:3936  _proposals.length - 1 */\n      tag_310\n      swap2\n      swap1\n      tag_309\n      jump\t// in\n    tag_310:\n        /* \"2. Solidity/Projet1/Voting.sol\":3896:3937  ProposalRegistered(_proposals.length - 1) */\n      mload(0x40)\n      tag_311\n      swap2\n      swap1\n      tag_312\n      jump\t// in\n    tag_311:\n      mload(0x40)\n      dup1\n      swap2\n      sub\n      swap1\n      log1\n        /* \"2. Solidity/Projet1/Voting.sol\":1541:1542  _ */\n      pop\n        /* \"@openzeppelin/contracts/access/Ownable.sol\":1554:1555  _ */\n      pop\n      pop\n        /* \"2. Solidity/Projet1/Voting.sol\":3542:3944  function registerProposal(address voterAddr, string calldata voterProposal) ... */\n      pop\n      pop\n      pop\n      jump\t// out\n        /* \"2. Solidity/Projet1/Voting.sol\":2292:2499  function startVotingSession() external onlyOwner {... */\n    tag_74:\n        /* \"@openzeppelin/contracts/access/Ownable.sol\":1531:1544  _checkOwner() */\n      tag_314\n        /* \"@openzeppelin/contracts/access/Ownable.sol\":1531:1542  _checkOwner */\n      tag_106\n        /* \"@openzeppelin/contracts/access/Ownable.sol\":1531:1544  _checkOwner() */\n      jump\t// in\n    tag_314:\n        /* \"2. Solidity/Projet1/Voting.sol\":2366:2401  WorkflowStatus.VotingSessionStarted */\n      0x03\n        /* \"2. Solidity/Projet1/Voting.sol\":2351:2363  ballotStatus */\n      0x07\n      0x00\n        /* \"2. Solidity/Projet1/Voting.sol\":2351:2401  ballotStatus = WorkflowStatus.VotingSessionStarted */\n      0x0100\n      exp\n      dup2\n      sload\n      dup2\n      0xff\n      mul\n      not\n      and\n      swap1\n      dup4\n      0x05\n      dup2\n      gt\n      iszero\n      tag_316\n      jumpi\n      tag_317\n      tag_82\n      jump\t// in\n    tag_317:\n    tag_316:\n      mul\n      or\n      swap1\n      sstore\n      pop\n        /* \"2. Solidity/Projet1/Voting.sol\":2416:2492  WorkflowStatusChange(WorkflowStatus.ProposalsRegistrationEnded,ballotStatus) */\n      0x0a97a4ee45751e2abf3e4fc8946939630b11b371ea8ae39ccdc3056e98f5cc3f\n        /* \"2. Solidity/Projet1/Voting.sol\":2437:2478  WorkflowStatus.ProposalsRegistrationEnded */\n      0x02\n        /* \"2. Solidity/Projet1/Voting.sol\":2479:2491  ballotStatus */\n      0x07\n      0x00\n      swap1\n      sload\n      swap1\n      0x0100\n      exp\n      swap1\n      div\n      0xff\n      and\n        /* \"2. Solidity/Projet1/Voting.sol\":2416:2492  WorkflowStatusChange(WorkflowStatus.ProposalsRegistrationEnded,ballotStatus) */\n      mload(0x40)\n      tag_318\n      swap3\n      swap2\n      swap1\n      tag_111\n      jump\t// in\n    tag_318:\n      mload(0x40)\n      dup1\n      swap2\n      sub\n      swap1\n      log1\n        /* \"2. Solidity/Projet1/Voting.sol\":2292:2499  function startVotingSession() external onlyOwner {... */\n      jump\t// out\n        /* \"@openzeppelin/contracts/access/Ownable.sol\":2543:2758  function transferOwnership(address newOwner) public virtual onlyOwner {... */\n    tag_78:\n        /* \"@openzeppelin/contracts/access/Ownable.sol\":1531:1544  _checkOwner() */\n      tag_320\n        /* \"@openzeppelin/contracts/access/Ownable.sol\":1531:1542  _checkOwner */\n      tag_106\n        /* \"@openzeppelin/contracts/access/Ownable.sol\":1531:1544  _checkOwner() */\n      jump\t// in\n    tag_320:\n        /* \"@openzeppelin/contracts/access/Ownable.sol\":2647:2648  0 */\n      0x00\n        /* \"@openzeppelin/contracts/access/Ownable.sol\":2627:2649  newOwner == address(0) */\n      0xffffffffffffffffffffffffffffffffffffffff\n      and\n        /* \"@openzeppelin/contracts/access/Ownable.sol\":2627:2635  newOwner */\n      dup2\n        /* \"@openzeppelin/contracts/access/Ownable.sol\":2627:2649  newOwner == address(0) */\n      0xffffffffffffffffffffffffffffffffffffffff\n      and\n      sub\n        /* \"@openzeppelin/contracts/access/Ownable.sol\":2623:2714  if (newOwner == address(0)) {... */\n      tag_322\n      jumpi\n        /* \"@openzeppelin/contracts/access/Ownable.sol\":2700:2701  0 */\n      0x00\n        /* \"@openzeppelin/contracts/access/Ownable.sol\":2672:2703  OwnableInvalidOwner(address(0)) */\n      mload(0x40)\n      0x1e4fbdf700000000000000000000000000000000000000000000000000000000\n      dup2\n      mstore\n      0x04\n      add\n      tag_323\n      swap2\n      swap1\n      tag_47\n      jump\t// in\n    tag_323:\n      mload(0x40)\n      dup1\n      swap2\n      sub\n      swap1\n      revert\n        /* \"@openzeppelin/contracts/access/Ownable.sol\":2623:2714  if (newOwner == address(0)) {... */\n    tag_322:\n        /* \"@openzeppelin/contracts/access/Ownable.sol\":2723:2751  _transferOwnership(newOwner) */\n      tag_324\n        /* \"@openzeppelin/contracts/access/Ownable.sol\":2742:2750  newOwner */\n      dup2\n        /* \"@openzeppelin/contracts/access/Ownable.sol\":2723:2741  _transferOwnership */\n      tag_177\n        /* \"@openzeppelin/contracts/access/Ownable.sol\":2723:2751  _transferOwnership(newOwner) */\n      jump\t// in\n    tag_324:\n        /* \"@openzeppelin/contracts/access/Ownable.sol\":2543:2758  function transferOwnership(address newOwner) public virtual onlyOwner {... */\n      pop\n      jump\t// out\n        /* \"@openzeppelin/contracts/access/Ownable.sol\":1796:1958  function _checkOwner() internal view virtual {... */\n    tag_106:\n        /* \"@openzeppelin/contracts/access/Ownable.sol\":1866:1878  _msgSender() */\n      tag_326\n        /* \"@openzeppelin/contracts/access/Ownable.sol\":1866:1876  _msgSender */\n      tag_327\n        /* \"@openzeppelin/contracts/access/Ownable.sol\":1866:1878  _msgSender() */\n      jump\t// in\n    tag_326:\n        /* \"@openzeppelin/contracts/access/Ownable.sol\":1855:1878  owner() != _msgSender() */\n      0xffffffffffffffffffffffffffffffffffffffff\n      and\n        /* \"@openzeppelin/contracts/access/Ownable.sol\":1855:1862  owner() */\n      tag_328\n        /* \"@openzeppelin/contracts/access/Ownable.sol\":1855:1860  owner */\n      tag_45\n        /* \"@openzeppelin/contracts/access/Ownable.sol\":1855:1862  owner() */\n      jump\t// in\n    tag_328:\n        /* \"@openzeppelin/contracts/access/Ownable.sol\":1855:1878  owner() != _msgSender() */\n      0xffffffffffffffffffffffffffffffffffffffff\n      and\n      eq\n        /* \"@openzeppelin/contracts/access/Ownable.sol\":1851:1952  if (owner() != _msgSender()) {... */\n      tag_329\n      jumpi\n        /* \"@openzeppelin/contracts/access/Ownable.sol\":1928:1940  _msgSender() */\n      tag_330\n        /* \"@openzeppelin/contracts/access/Ownable.sol\":1928:1938  _msgSender */\n      tag_327\n        /* \"@openzeppelin/contracts/access/Ownable.sol\":1928:1940  _msgSender() */\n      jump\t// in\n    tag_330:\n        /* \"@openzeppelin/contracts/access/Ownable.sol\":1901:1941  OwnableUnauthorizedAccount(_msgSender()) */\n      mload(0x40)\n      0x118cdaa700000000000000000000000000000000000000000000000000000000\n      dup2\n      mstore\n      0x04\n      add\n      tag_331\n      swap2\n      swap1\n      tag_47\n      jump\t// in\n    tag_331:\n      mload(0x40)\n      dup1\n      swap2\n      sub\n      swap1\n      revert\n        /* \"@openzeppelin/contracts/access/Ownable.sol\":1851:1952  if (owner() != _msgSender()) {... */\n    tag_329:\n        /* \"@openzeppelin/contracts/access/Ownable.sol\":1796:1958  function _checkOwner() internal view virtual {... */\n      jump\t// out\n        /* \"@openzeppelin/contracts/access/Ownable.sol\":2912:3099  function _transferOwnership(address newOwner) internal virtual {... */\n    tag_177:\n        /* \"@openzeppelin/contracts/access/Ownable.sol\":2985:3001  address oldOwner */\n      0x00\n        /* \"@openzeppelin/contracts/access/Ownable.sol\":3004:3010  _owner */\n      0x00\n      0x00\n      swap1\n      sload\n      swap1\n      0x0100\n      exp\n      swap1\n      div\n      0xffffffffffffffffffffffffffffffffffffffff\n      and\n        /* \"@openzeppelin/contracts/access/Ownable.sol\":2985:3010  address oldOwner = _owner */\n      swap1\n      pop\n        /* \"@openzeppelin/contracts/access/Ownable.sol\":3029:3037  newOwner */\n      dup2\n        /* \"@openzeppelin/contracts/access/Ownable.sol\":3020:3026  _owner */\n      0x00\n      0x00\n        /* \"@openzeppelin/contracts/access/Ownable.sol\":3020:3037  _owner = newOwner */\n      0x0100\n      exp\n      dup2\n      sload\n      dup2\n      0xffffffffffffffffffffffffffffffffffffffff\n      mul\n      not\n      and\n      swap1\n      dup4\n      0xffffffffffffffffffffffffffffffffffffffff\n      and\n      mul\n      or\n      swap1\n      sstore\n      pop\n        /* \"@openzeppelin/contracts/access/Ownable.sol\":3083:3091  newOwner */\n      dup2\n        /* \"@openzeppelin/contracts/access/Ownable.sol\":3052:3092  OwnershipTransferred(oldOwner, newOwner) */\n      0xffffffffffffffffffffffffffffffffffffffff\n      and\n        /* \"@openzeppelin/contracts/access/Ownable.sol\":3073:3081  oldOwner */\n      dup2\n        /* \"@openzeppelin/contracts/access/Ownable.sol\":3052:3092  OwnershipTransferred(oldOwner, newOwner) */\n      0xffffffffffffffffffffffffffffffffffffffff\n      and\n      0x8be0079c531659141344cd1fd0a4f28419497f9722a3daafe3b4186f6b6457e0\n      mload(0x40)\n      mload(0x40)\n      dup1\n      swap2\n      sub\n      swap1\n      log3\n        /* \"@openzeppelin/contracts/access/Ownable.sol\":2975:3099  {... */\n      pop\n        /* \"@openzeppelin/contracts/access/Ownable.sol\":2912:3099  function _transferOwnership(address newOwner) internal virtual {... */\n      pop\n      jump\t// out\n        /* \"@openzeppelin/contracts/utils/Context.sol\":656:752  function _msgSender() internal view virtual returns (address) {... */\n    tag_327:\n        /* \"@openzeppelin/contracts/utils/Context.sol\":709:716  address */\n      0x00\n        /* \"@openzeppelin/contracts/utils/Context.sol\":735:745  msg.sender */\n      caller\n        /* \"@openzeppelin/contracts/utils/Context.sol\":728:745  return msg.sender */\n      swap1\n      pop\n        /* \"@openzeppelin/contracts/utils/Context.sol\":656:752  function _msgSender() internal view virtual returns (address) {... */\n      swap1\n      jump\t// out\n    tag_188:\n      pop\n      dup1\n      sload\n      0x00\n      dup3\n      sstore\n      swap1\n      0x00\n      mstore\n      keccak256(0x00, 0x20)\n      swap1\n      dup2\n      add\n      swap1\n      tag_335\n      swap2\n      swap1\n      tag_336\n      jump\t// in\n    tag_335:\n      pop\n      jump\t// out\n    tag_193:\n      pop\n      dup1\n      sload\n      0x00\n      dup3\n      sstore\n      0x02\n      mul\n      swap1\n      0x00\n      mstore\n      keccak256(0x00, 0x20)\n      swap1\n      dup2\n      add\n      swap1\n      tag_338\n      swap2\n      swap1\n      tag_339\n      jump\t// in\n    tag_338:\n      pop\n      jump\t// out\n    tag_195:\n      pop\n      dup1\n      sload\n      0x00\n      dup3\n      sstore\n      swap1\n      0x00\n      mstore\n      keccak256(0x00, 0x20)\n      swap1\n      dup2\n      add\n      swap1\n      tag_341\n      swap2\n      swap1\n      tag_336\n      jump\t// in\n    tag_341:\n      pop\n      jump\t// out\n    tag_219:\n      mload(0x40)\n      dup1\n      0x40\n      add\n      0x40\n      mstore\n      dup1\n      0x60\n      dup2\n      mstore\n      0x20\n      add\n      0x00\n      dup2\n      mstore\n      pop\n      swap1\n      jump\t// out\n    tag_336:\n    tag_342:\n      dup1\n      dup3\n      gt\n      iszero\n      tag_343\n      jumpi\n      0x00\n      dup2\n      0x00\n      swap1\n      sstore\n      pop\n      0x01\n      add\n      jump(tag_342)\n    tag_343:\n      pop\n      swap1\n      jump\t// out\n    tag_339:\n    tag_344:\n      dup1\n      dup3\n      gt\n      iszero\n      tag_345\n      jumpi\n      0x00\n      0x00\n      dup3\n      add\n      0x00\n      tag_346\n      swap2\n      swap1\n      tag_347\n      jump\t// in\n    tag_346:\n      0x01\n      dup3\n      add\n      0x00\n      swap1\n      sstore\n      pop\n      0x02\n      add\n      jump(tag_344)\n    tag_345:\n      pop\n      swap1\n      jump\t// out\n    tag_347:\n      pop\n      dup1\n      sload\n      tag_348\n      swap1\n      tag_162\n      jump\t// in\n    tag_348:\n      0x00\n      dup3\n      sstore\n      dup1\n      0x1f\n      lt\n      tag_350\n      jumpi\n      pop\n      jump(tag_349)\n    tag_350:\n      0x1f\n      add\n      0x20\n      swap1\n      div\n      swap1\n      0x00\n      mstore\n      keccak256(0x00, 0x20)\n      swap1\n      dup2\n      add\n      swap1\n      tag_351\n      swap2\n      swap1\n      tag_336\n      jump\t// in\n    tag_351:\n    tag_349:\n      pop\n      jump\t// out\n        /* \"#utility.yul\":88:205   */\n    tag_353:\n        /* \"#utility.yul\":197:198   */\n      0x00\n        /* \"#utility.yul\":194:195   */\n      0x00\n        /* \"#utility.yul\":187:199   */\n      revert\n        /* \"#utility.yul\":211:328   */\n    tag_354:\n        /* \"#utility.yul\":320:321   */\n      0x00\n        /* \"#utility.yul\":317:318   */\n      0x00\n        /* \"#utility.yul\":310:322   */\n      revert\n        /* \"#utility.yul\":334:411   */\n    tag_355:\n        /* \"#utility.yul\":371:378   */\n      0x00\n        /* \"#utility.yul\":400:405   */\n      dup2\n        /* \"#utility.yul\":389:405   */\n      swap1\n      pop\n        /* \"#utility.yul\":334:411   */\n      swap2\n      swap1\n      pop\n      jump\t// out\n        /* \"#utility.yul\":417:539   */\n    tag_356:\n        /* \"#utility.yul\":490:514   */\n      tag_429\n        /* \"#utility.yul\":508:513   */\n      dup2\n        /* \"#utility.yul\":490:514   */\n      tag_355\n      jump\t// in\n    tag_429:\n        /* \"#utility.yul\":483:488   */\n      dup2\n        /* \"#utility.yul\":480:515   */\n      eq\n        /* \"#utility.yul\":470:533   */\n      tag_430\n      jumpi\n        /* \"#utility.yul\":529:530   */\n      0x00\n        /* \"#utility.yul\":526:527   */\n      0x00\n        /* \"#utility.yul\":519:531   */\n      revert\n        /* \"#utility.yul\":470:533   */\n    tag_430:\n        /* \"#utility.yul\":417:539   */\n      pop\n      jump\t// out\n        /* \"#utility.yul\":545:684   */\n    tag_357:\n        /* \"#utility.yul\":591:596   */\n      0x00\n        /* \"#utility.yul\":629:635   */\n      dup2\n        /* \"#utility.yul\":616:636   */\n      calldataload\n        /* \"#utility.yul\":607:636   */\n      swap1\n      pop\n        /* \"#utility.yul\":645:678   */\n      tag_432\n        /* \"#utility.yul\":672:677   */\n      dup2\n        /* \"#utility.yul\":645:678   */\n      tag_356\n      jump\t// in\n    tag_432:\n        /* \"#utility.yul\":545:684   */\n      swap3\n      swap2\n      pop\n      pop\n      jump\t// out\n        /* \"#utility.yul\":690:1019   */\n    tag_26:\n        /* \"#utility.yul\":749:755   */\n      0x00\n        /* \"#utility.yul\":798:800   */\n      0x20\n        /* \"#utility.yul\":786:795   */\n      dup3\n        /* \"#utility.yul\":777:784   */\n      dup5\n        /* \"#utility.yul\":773:796   */\n      sub\n        /* \"#utility.yul\":769:801   */\n      slt\n        /* \"#utility.yul\":766:885   */\n      iszero\n      tag_434\n      jumpi\n        /* \"#utility.yul\":804:883   */\n      tag_435\n      tag_353\n      jump\t// in\n    tag_435:\n        /* \"#utility.yul\":766:885   */\n    tag_434:\n        /* \"#utility.yul\":924:925   */\n      0x00\n        /* \"#utility.yul\":949:1002   */\n      tag_436\n        /* \"#utility.yul\":994:1001   */\n      dup5\n        /* \"#utility.yul\":985:991   */\n      dup3\n        /* \"#utility.yul\":974:983   */\n      dup6\n        /* \"#utility.yul\":970:992   */\n      add\n        /* \"#utility.yul\":949:1002   */\n      tag_357\n      jump\t// in\n    tag_436:\n        /* \"#utility.yul\":939:1002   */\n      swap2\n      pop\n        /* \"#utility.yul\":895:1012   */\n      pop\n        /* \"#utility.yul\":690:1019   */\n      swap3\n      swap2\n      pop\n      pop\n      jump\t// out\n        /* \"#utility.yul\":1025:1142   */\n    tag_358:\n        /* \"#utility.yul\":1134:1135   */\n      0x00\n        /* \"#utility.yul\":1131:1132   */\n      0x00\n        /* \"#utility.yul\":1124:1136   */\n      revert\n        /* \"#utility.yul\":1148:1265   */\n    tag_359:\n        /* \"#utility.yul\":1257:1258   */\n      0x00\n        /* \"#utility.yul\":1254:1255   */\n      0x00\n        /* \"#utility.yul\":1247:1259   */\n      revert\n        /* \"#utility.yul\":1271:1388   */\n    tag_360:\n        /* \"#utility.yul\":1380:1381   */\n      0x00\n        /* \"#utility.yul\":1377:1378   */\n      0x00\n        /* \"#utility.yul\":1370:1382   */\n      revert\n        /* \"#utility.yul\":1411:1979   */\n    tag_361:\n        /* \"#utility.yul\":1484:1492   */\n      0x00\n        /* \"#utility.yul\":1494:1500   */\n      0x00\n        /* \"#utility.yul\":1544:1547   */\n      dup4\n        /* \"#utility.yul\":1537:1541   */\n      0x1f\n        /* \"#utility.yul\":1529:1535   */\n      dup5\n        /* \"#utility.yul\":1525:1542   */\n      add\n        /* \"#utility.yul\":1521:1548   */\n      slt\n        /* \"#utility.yul\":1511:1633   */\n      tag_441\n      jumpi\n        /* \"#utility.yul\":1552:1631   */\n      tag_442\n      tag_358\n      jump\t// in\n    tag_442:\n        /* \"#utility.yul\":1511:1633   */\n    tag_441:\n        /* \"#utility.yul\":1665:1671   */\n      dup3\n        /* \"#utility.yul\":1652:1672   */\n      calldataload\n        /* \"#utility.yul\":1642:1672   */\n      swap1\n      pop\n        /* \"#utility.yul\":1695:1713   */\n      0xffffffffffffffff\n        /* \"#utility.yul\":1687:1693   */\n      dup2\n        /* \"#utility.yul\":1684:1714   */\n      gt\n        /* \"#utility.yul\":1681:1798   */\n      iszero\n      tag_443\n      jumpi\n        /* \"#utility.yul\":1717:1796   */\n      tag_444\n      tag_359\n      jump\t// in\n    tag_444:\n        /* \"#utility.yul\":1681:1798   */\n    tag_443:\n        /* \"#utility.yul\":1831:1835   */\n      0x20\n        /* \"#utility.yul\":1823:1829   */\n      dup4\n        /* \"#utility.yul\":1819:1836   */\n      add\n        /* \"#utility.yul\":1807:1836   */\n      swap2\n      pop\n        /* \"#utility.yul\":1885:1888   */\n      dup4\n        /* \"#utility.yul\":1877:1881   */\n      0x20\n        /* \"#utility.yul\":1869:1875   */\n      dup3\n        /* \"#utility.yul\":1865:1882   */\n      mul\n        /* \"#utility.yul\":1855:1863   */\n      dup4\n        /* \"#utility.yul\":1851:1883   */\n      add\n        /* \"#utility.yul\":1848:1889   */\n      gt\n        /* \"#utility.yul\":1845:1973   */\n      iszero\n      tag_445\n      jumpi\n        /* \"#utility.yul\":1892:1971   */\n      tag_446\n      tag_360\n      jump\t// in\n    tag_446:\n        /* \"#utility.yul\":1845:1973   */\n    tag_445:\n        /* \"#utility.yul\":1411:1979   */\n      swap3\n      pop\n      swap3\n      swap1\n      pop\n      jump\t// out\n        /* \"#utility.yul\":1985:2544   */\n    tag_32:\n        /* \"#utility.yul\":2071:2077   */\n      0x00\n        /* \"#utility.yul\":2079:2085   */\n      0x00\n        /* \"#utility.yul\":2128:2130   */\n      0x20\n        /* \"#utility.yul\":2116:2125   */\n      dup4\n        /* \"#utility.yul\":2107:2114   */\n      dup6\n        /* \"#utility.yul\":2103:2126   */\n      sub\n        /* \"#utility.yul\":2099:2131   */\n      slt\n        /* \"#utility.yul\":2096:2215   */\n      iszero\n      tag_448\n      jumpi\n        /* \"#utility.yul\":2134:2213   */\n      tag_449\n      tag_353\n      jump\t// in\n    tag_449:\n        /* \"#utility.yul\":2096:2215   */\n    tag_448:\n        /* \"#utility.yul\":2282:2283   */\n      0x00\n        /* \"#utility.yul\":2271:2280   */\n      dup4\n        /* \"#utility.yul\":2267:2284   */\n      add\n        /* \"#utility.yul\":2254:2285   */\n      calldataload\n        /* \"#utility.yul\":2312:2330   */\n      0xffffffffffffffff\n        /* \"#utility.yul\":2304:2310   */\n      dup2\n        /* \"#utility.yul\":2301:2331   */\n      gt\n        /* \"#utility.yul\":2298:2415   */\n      iszero\n      tag_450\n      jumpi\n        /* \"#utility.yul\":2334:2413   */\n      tag_451\n      tag_354\n      jump\t// in\n    tag_451:\n        /* \"#utility.yul\":2298:2415   */\n    tag_450:\n        /* \"#utility.yul\":2447:2527   */\n      tag_452\n        /* \"#utility.yul\":2519:2526   */\n      dup6\n        /* \"#utility.yul\":2510:2516   */\n      dup3\n        /* \"#utility.yul\":2499:2508   */\n      dup7\n        /* \"#utility.yul\":2495:2517   */\n      add\n        /* \"#utility.yul\":2447:2527   */\n      tag_361\n      jump\t// in\n    tag_452:\n        /* \"#utility.yul\":2429:2527   */\n      swap3\n      pop\n      swap3\n      pop\n        /* \"#utility.yul\":2225:2537   */\n      pop\n        /* \"#utility.yul\":1985:2544   */\n      swap3\n      pop\n      swap3\n      swap1\n      pop\n      jump\t// out\n        /* \"#utility.yul\":2550:2688   */\n    tag_362:\n        /* \"#utility.yul\":2641:2647   */\n      0x00\n        /* \"#utility.yul\":2675:2680   */\n      dup2\n        /* \"#utility.yul\":2669:2681   */\n      mload\n        /* \"#utility.yul\":2659:2681   */\n      swap1\n      pop\n        /* \"#utility.yul\":2550:2688   */\n      swap2\n      swap1\n      pop\n      jump\t// out\n        /* \"#utility.yul\":2694:2902   */\n    tag_363:\n        /* \"#utility.yul\":2817:2828   */\n      0x00\n        /* \"#utility.yul\":2851:2857   */\n      dup3\n        /* \"#utility.yul\":2846:2849   */\n      dup3\n        /* \"#utility.yul\":2839:2858   */\n      mstore\n        /* \"#utility.yul\":2891:2895   */\n      0x20\n        /* \"#utility.yul\":2886:2889   */\n      dup3\n        /* \"#utility.yul\":2882:2896   */\n      add\n        /* \"#utility.yul\":2867:2896   */\n      swap1\n      pop\n        /* \"#utility.yul\":2694:2902   */\n      swap3\n      swap2\n      pop\n      pop\n      jump\t// out\n        /* \"#utility.yul\":2908:3064   */\n    tag_364:\n        /* \"#utility.yul\":2999:3003   */\n      0x00\n        /* \"#utility.yul\":3022:3025   */\n      dup2\n        /* \"#utility.yul\":3014:3025   */\n      swap1\n      pop\n        /* \"#utility.yul\":3052:3056   */\n      0x20\n        /* \"#utility.yul\":3047:3050   */\n      dup3\n        /* \"#utility.yul\":3043:3057   */\n      add\n        /* \"#utility.yul\":3035:3057   */\n      swap1\n      pop\n        /* \"#utility.yul\":2908:3064   */\n      swap2\n      swap1\n      pop\n      jump\t// out\n        /* \"#utility.yul\":3070:3169   */\n    tag_365:\n        /* \"#utility.yul\":3122:3128   */\n      0x00\n        /* \"#utility.yul\":3156:3161   */\n      dup2\n        /* \"#utility.yul\":3150:3162   */\n      mload\n        /* \"#utility.yul\":3140:3162   */\n      swap1\n      pop\n        /* \"#utility.yul\":3070:3169   */\n      swap2\n      swap1\n      pop\n      jump\t// out\n        /* \"#utility.yul\":3175:3334   */\n    tag_366:\n        /* \"#utility.yul\":3249:3260   */\n      0x00\n        /* \"#utility.yul\":3283:3289   */\n      dup3\n        /* \"#utility.yul\":3278:3281   */\n      dup3\n        /* \"#utility.yul\":3271:3290   */\n      mstore\n        /* \"#utility.yul\":3323:3327   */\n      0x20\n        /* \"#utility.yul\":3318:3321   */\n      dup3\n        /* \"#utility.yul\":3314:3328   */\n      add\n        /* \"#utility.yul\":3299:3328   */\n      swap1\n      pop\n        /* \"#utility.yul\":3175:3334   */\n      swap3\n      swap2\n      pop\n      pop\n      jump\t// out\n        /* \"#utility.yul\":3340:3479   */\n    tag_367:\n        /* \"#utility.yul\":3429:3435   */\n      dup3\n        /* \"#utility.yul\":3424:3427   */\n      dup2\n        /* \"#utility.yul\":3419:3422   */\n      dup4\n        /* \"#utility.yul\":3413:3436   */\n      mcopy\n        /* \"#utility.yul\":3470:3471   */\n      0x00\n        /* \"#utility.yul\":3461:3467   */\n      dup4\n        /* \"#utility.yul\":3456:3459   */\n      dup4\n        /* \"#utility.yul\":3452:3468   */\n      add\n        /* \"#utility.yul\":3445:3472   */\n      mstore\n        /* \"#utility.yul\":3340:3479   */\n      pop\n      pop\n      pop\n      jump\t// out\n        /* \"#utility.yul\":3485:3587   */\n    tag_368:\n        /* \"#utility.yul\":3526:3532   */\n      0x00\n        /* \"#utility.yul\":3577:3579   */\n      0x1f\n        /* \"#utility.yul\":3573:3580   */\n      not\n        /* \"#utility.yul\":3568:3570   */\n      0x1f\n        /* \"#utility.yul\":3561:3566   */\n      dup4\n        /* \"#utility.yul\":3557:3571   */\n      add\n        /* \"#utility.yul\":3553:3581   */\n      and\n        /* \"#utility.yul\":3543:3581   */\n      swap1\n      pop\n        /* \"#utility.yul\":3485:3587   */\n      swap2\n      swap1\n      pop\n      jump\t// out\n        /* \"#utility.yul\":3593:3950   */\n    tag_369:\n        /* \"#utility.yul\":3671:3674   */\n      0x00\n        /* \"#utility.yul\":3699:3738   */\n      tag_461\n        /* \"#utility.yul\":3732:3737   */\n      dup3\n        /* \"#utility.yul\":3699:3738   */\n      tag_365\n      jump\t// in\n    tag_461:\n        /* \"#utility.yul\":3754:3815   */\n      tag_462\n        /* \"#utility.yul\":3808:3814   */\n      dup2\n        /* \"#utility.yul\":3803:3806   */\n      dup6\n        /* \"#utility.yul\":3754:3815   */\n      tag_366\n      jump\t// in\n    tag_462:\n        /* \"#utility.yul\":3747:3815   */\n      swap4\n      pop\n        /* \"#utility.yul\":3824:3889   */\n      tag_463\n        /* \"#utility.yul\":3882:3888   */\n      dup2\n        /* \"#utility.yul\":3877:3880   */\n      dup6\n        /* \"#utility.yul\":3870:3874   */\n      0x20\n        /* \"#utility.yul\":3863:3868   */\n      dup7\n        /* \"#utility.yul\":3859:3875   */\n      add\n        /* \"#utility.yul\":3824:3889   */\n      tag_367\n      jump\t// in\n    tag_463:\n        /* \"#utility.yul\":3914:3943   */\n      tag_464\n        /* \"#utility.yul\":3936:3942   */\n      dup2\n        /* \"#utility.yul\":3914:3943   */\n      tag_368\n      jump\t// in\n    tag_464:\n        /* \"#utility.yul\":3909:3912   */\n      dup5\n        /* \"#utility.yul\":3905:3944   */\n      add\n        /* \"#utility.yul\":3898:3944   */\n      swap2\n      pop\n        /* \"#utility.yul\":3675:3950   */\n      pop\n        /* \"#utility.yul\":3593:3950   */\n      swap3\n      swap2\n      pop\n      pop\n      jump\t// out\n        /* \"#utility.yul\":3956:4064   */\n    tag_370:\n        /* \"#utility.yul\":4033:4057   */\n      tag_466\n        /* \"#utility.yul\":4051:4056   */\n      dup2\n        /* \"#utility.yul\":4033:4057   */\n      tag_355\n      jump\t// in\n    tag_466:\n        /* \"#utility.yul\":4028:4031   */\n      dup3\n        /* \"#utility.yul\":4021:4058   */\n      mstore\n        /* \"#utility.yul\":3956:4064   */\n      pop\n      pop\n      jump\t// out\n        /* \"#utility.yul\":4126:4732   */\n    tag_371:\n        /* \"#utility.yul\":4233:4236   */\n      0x00\n        /* \"#utility.yul\":4269:4273   */\n      0x40\n        /* \"#utility.yul\":4264:4267   */\n      dup4\n        /* \"#utility.yul\":4260:4274   */\n      add\n        /* \"#utility.yul\":4363:4367   */\n      0x00\n        /* \"#utility.yul\":4356:4361   */\n      dup4\n        /* \"#utility.yul\":4352:4368   */\n      add\n        /* \"#utility.yul\":4346:4369   */\n      mload\n        /* \"#utility.yul\":4416:4419   */\n      dup5\n        /* \"#utility.yul\":4410:4414   */\n      dup3\n        /* \"#utility.yul\":4406:4420   */\n      sub\n        /* \"#utility.yul\":4399:4403   */\n      0x00\n        /* \"#utility.yul\":4394:4397   */\n      dup7\n        /* \"#utility.yul\":4390:4404   */\n      add\n        /* \"#utility.yul\":4383:4421   */\n      mstore\n        /* \"#utility.yul\":4442:4515   */\n      tag_468\n        /* \"#utility.yul\":4510:4514   */\n      dup3\n        /* \"#utility.yul\":4496:4508   */\n      dup3\n        /* \"#utility.yul\":4442:4515   */\n      tag_369\n      jump\t// in\n    tag_468:\n        /* \"#utility.yul\":4434:4515   */\n      swap2\n      pop\n        /* \"#utility.yul\":4284:4526   */\n      pop\n        /* \"#utility.yul\":4613:4617   */\n      0x20\n        /* \"#utility.yul\":4606:4611   */\n      dup4\n        /* \"#utility.yul\":4602:4618   */\n      add\n        /* \"#utility.yul\":4596:4619   */\n      mload\n        /* \"#utility.yul\":4632:4695   */\n      tag_469\n        /* \"#utility.yul\":4689:4693   */\n      0x20\n        /* \"#utility.yul\":4684:4687   */\n      dup7\n        /* \"#utility.yul\":4680:4694   */\n      add\n        /* \"#utility.yul\":4666:4678   */\n      dup3\n        /* \"#utility.yul\":4632:4695   */\n      tag_370\n      jump\t// in\n    tag_469:\n        /* \"#utility.yul\":4536:4705   */\n      pop\n        /* \"#utility.yul\":4722:4726   */\n      dup1\n        /* \"#utility.yul\":4715:4726   */\n      swap2\n      pop\n        /* \"#utility.yul\":4238:4732   */\n      pop\n        /* \"#utility.yul\":4126:4732   */\n      swap3\n      swap2\n      pop\n      pop\n      jump\t// out\n        /* \"#utility.yul\":4738:4990   */\n    tag_372:\n        /* \"#utility.yul\":4855:4865   */\n      0x00\n        /* \"#utility.yul\":4890:4984   */\n      tag_471\n        /* \"#utility.yul\":4980:4983   */\n      dup4\n        /* \"#utility.yul\":4972:4978   */\n      dup4\n        /* \"#utility.yul\":4890:4984   */\n      tag_371\n      jump\t// in\n    tag_471:\n        /* \"#utility.yul\":4876:4984   */\n      swap1\n      pop\n        /* \"#utility.yul\":4738:4990   */\n      swap3\n      swap2\n      pop\n      pop\n      jump\t// out\n        /* \"#utility.yul\":4996:5133   */\n    tag_373:\n        /* \"#utility.yul\":5090:5094   */\n      0x00\n        /* \"#utility.yul\":5122:5126   */\n      0x20\n        /* \"#utility.yul\":5117:5120   */\n      dup3\n        /* \"#utility.yul\":5113:5127   */\n      add\n        /* \"#utility.yul\":5105:5127   */\n      swap1\n      pop\n        /* \"#utility.yul\":4996:5133   */\n      swap2\n      swap1\n      pop\n      jump\t// out\n        /* \"#utility.yul\":5199:6302   */\n    tag_374:\n        /* \"#utility.yul\":5366:5369   */\n      0x00\n        /* \"#utility.yul\":5395:5473   */\n      tag_474\n        /* \"#utility.yul\":5467:5472   */\n      dup3\n        /* \"#utility.yul\":5395:5473   */\n      tag_362\n      jump\t// in\n    tag_474:\n        /* \"#utility.yul\":5489:5599   */\n      tag_475\n        /* \"#utility.yul\":5592:5598   */\n      dup2\n        /* \"#utility.yul\":5587:5590   */\n      dup6\n        /* \"#utility.yul\":5489:5599   */\n      tag_363\n      jump\t// in\n    tag_475:\n        /* \"#utility.yul\":5482:5599   */\n      swap4\n      pop\n        /* \"#utility.yul\":5625:5628   */\n      dup4\n        /* \"#utility.yul\":5670:5674   */\n      0x20\n        /* \"#utility.yul\":5662:5668   */\n      dup3\n        /* \"#utility.yul\":5658:5675   */\n      mul\n        /* \"#utility.yul\":5653:5656   */\n      dup6\n        /* \"#utility.yul\":5649:5676   */\n      add\n        /* \"#utility.yul\":5700:5780   */\n      tag_476\n        /* \"#utility.yul\":5774:5779   */\n      dup6\n        /* \"#utility.yul\":5700:5780   */\n      tag_364\n      jump\t// in\n    tag_476:\n        /* \"#utility.yul\":5803:5810   */\n      dup1\n        /* \"#utility.yul\":5834:5835   */\n      0x00\n        /* \"#utility.yul\":5819:6257   */\n    tag_477:\n        /* \"#utility.yul\":5844:5850   */\n      dup6\n        /* \"#utility.yul\":5841:5842   */\n      dup2\n        /* \"#utility.yul\":5838:5851   */\n      lt\n        /* \"#utility.yul\":5819:6257   */\n      iszero\n      tag_479\n      jumpi\n        /* \"#utility.yul\":5915:5924   */\n      dup5\n        /* \"#utility.yul\":5909:5913   */\n      dup5\n        /* \"#utility.yul\":5905:5925   */\n      sub\n        /* \"#utility.yul\":5900:5903   */\n      dup10\n        /* \"#utility.yul\":5893:5926   */\n      mstore\n        /* \"#utility.yul\":5966:5972   */\n      dup2\n        /* \"#utility.yul\":5960:5973   */\n      mload\n        /* \"#utility.yul\":5994:6106   */\n      tag_480\n        /* \"#utility.yul\":6101:6105   */\n      dup6\n        /* \"#utility.yul\":6086:6099   */\n      dup3\n        /* \"#utility.yul\":5994:6106   */\n      tag_372\n      jump\t// in\n    tag_480:\n        /* \"#utility.yul\":5986:6106   */\n      swap5\n      pop\n        /* \"#utility.yul\":6129:6213   */\n      tag_481\n        /* \"#utility.yul\":6206:6212   */\n      dup4\n        /* \"#utility.yul\":6129:6213   */\n      tag_373\n      jump\t// in\n    tag_481:\n        /* \"#utility.yul\":6119:6213   */\n      swap3\n      pop\n        /* \"#utility.yul\":6242:6246   */\n      0x20\n        /* \"#utility.yul\":6237:6240   */\n      dup11\n        /* \"#utility.yul\":6233:6247   */\n      add\n        /* \"#utility.yul\":6226:6247   */\n      swap10\n      pop\n        /* \"#utility.yul\":5879:6257   */\n      pop\n        /* \"#utility.yul\":5866:5867   */\n      0x01\n        /* \"#utility.yul\":5863:5864   */\n      dup2\n        /* \"#utility.yul\":5859:5868   */\n      add\n        /* \"#utility.yul\":5854:5868   */\n      swap1\n      pop\n        /* \"#utility.yul\":5819:6257   */\n      jump(tag_477)\n    tag_479:\n        /* \"#utility.yul\":5823:5837   */\n      pop\n        /* \"#utility.yul\":6273:6277   */\n      dup3\n        /* \"#utility.yul\":6266:6277   */\n      swap8\n      pop\n        /* \"#utility.yul\":6293:6296   */\n      dup8\n        /* \"#utility.yul\":6286:6296   */\n      swap6\n      pop\n        /* \"#utility.yul\":5371:6302   */\n      pop\n      pop\n      pop\n      pop\n      pop\n        /* \"#utility.yul\":5199:6302   */\n      swap3\n      swap2\n      pop\n      pop\n      jump\t// out\n        /* \"#utility.yul\":6308:6777   */\n    tag_37:\n        /* \"#utility.yul\":6499:6503   */\n      0x00\n        /* \"#utility.yul\":6537:6539   */\n      0x20\n        /* \"#utility.yul\":6526:6535   */\n      dup3\n        /* \"#utility.yul\":6522:6540   */\n      add\n        /* \"#utility.yul\":6514:6540   */\n      swap1\n      pop\n        /* \"#utility.yul\":6586:6595   */\n      dup2\n        /* \"#utility.yul\":6580:6584   */\n      dup2\n        /* \"#utility.yul\":6576:6596   */\n      sub\n        /* \"#utility.yul\":6572:6573   */\n      0x00\n        /* \"#utility.yul\":6561:6570   */\n      dup4\n        /* \"#utility.yul\":6557:6574   */\n      add\n        /* \"#utility.yul\":6550:6597   */\n      mstore\n        /* \"#utility.yul\":6614:6770   */\n      tag_483\n        /* \"#utility.yul\":6765:6769   */\n      dup2\n        /* \"#utility.yul\":6756:6762   */\n      dup5\n        /* \"#utility.yul\":6614:6770   */\n      tag_374\n      jump\t// in\n    tag_483:\n        /* \"#utility.yul\":6606:6770   */\n      swap1\n      pop\n        /* \"#utility.yul\":6308:6777   */\n      swap3\n      swap2\n      pop\n      pop\n      jump\t// out\n        /* \"#utility.yul\":6783:6909   */\n    tag_375:\n        /* \"#utility.yul\":6820:6827   */\n      0x00\n        /* \"#utility.yul\":6860:6902   */\n      0xffffffffffffffffffffffffffffffffffffffff\n        /* \"#utility.yul\":6853:6858   */\n      dup3\n        /* \"#utility.yul\":6849:6903   */\n      and\n        /* \"#utility.yul\":6838:6903   */\n      swap1\n      pop\n        /* \"#utility.yul\":6783:6909   */\n      swap2\n      swap1\n      pop\n      jump\t// out\n        /* \"#utility.yul\":6915:7011   */\n    tag_376:\n        /* \"#utility.yul\":6952:6959   */\n      0x00\n        /* \"#utility.yul\":6981:7005   */\n      tag_486\n        /* \"#utility.yul\":6999:7004   */\n      dup3\n        /* \"#utility.yul\":6981:7005   */\n      tag_375\n      jump\t// in\n    tag_486:\n        /* \"#utility.yul\":6970:7005   */\n      swap1\n      pop\n        /* \"#utility.yul\":6915:7011   */\n      swap2\n      swap1\n      pop\n      jump\t// out\n        /* \"#utility.yul\":7017:7135   */\n    tag_377:\n        /* \"#utility.yul\":7104:7128   */\n      tag_488\n        /* \"#utility.yul\":7122:7127   */\n      dup2\n        /* \"#utility.yul\":7104:7128   */\n      tag_376\n      jump\t// in\n    tag_488:\n        /* \"#utility.yul\":7099:7102   */\n      dup3\n        /* \"#utility.yul\":7092:7129   */\n      mstore\n        /* \"#utility.yul\":7017:7135   */\n      pop\n      pop\n      jump\t// out\n        /* \"#utility.yul\":7141:7363   */\n    tag_47:\n        /* \"#utility.yul\":7234:7238   */\n      0x00\n        /* \"#utility.yul\":7272:7274   */\n      0x20\n        /* \"#utility.yul\":7261:7270   */\n      dup3\n        /* \"#utility.yul\":7257:7275   */\n      add\n        /* \"#utility.yul\":7249:7275   */\n      swap1\n      pop\n        /* \"#utility.yul\":7285:7356   */\n      tag_490\n        /* \"#utility.yul\":7353:7354   */\n      0x00\n        /* \"#utility.yul\":7342:7351   */\n      dup4\n        /* \"#utility.yul\":7338:7355   */\n      add\n        /* \"#utility.yul\":7329:7335   */\n      dup5\n        /* \"#utility.yul\":7285:7356   */\n      tag_377\n      jump\t// in\n    tag_490:\n        /* \"#utility.yul\":7141:7363   */\n      swap3\n      swap2\n      pop\n      pop\n      jump\t// out\n        /* \"#utility.yul\":7369:7549   */\n    tag_82:\n        /* \"#utility.yul\":7417:7494   */\n      0x4e487b7100000000000000000000000000000000000000000000000000000000\n        /* \"#utility.yul\":7414:7415   */\n      0x00\n        /* \"#utility.yul\":7407:7495   */\n      mstore\n        /* \"#utility.yul\":7514:7518   */\n      0x21\n        /* \"#utility.yul\":7511:7512   */\n      0x04\n        /* \"#utility.yul\":7504:7519   */\n      mstore\n        /* \"#utility.yul\":7538:7542   */\n      0x24\n        /* \"#utility.yul\":7535:7536   */\n      0x00\n        /* \"#utility.yul\":7528:7543   */\n      revert\n        /* \"#utility.yul\":7555:7677   */\n    tag_378:\n        /* \"#utility.yul\":7645:7646   */\n      0x06\n        /* \"#utility.yul\":7638:7643   */\n      dup2\n        /* \"#utility.yul\":7635:7647   */\n      lt\n        /* \"#utility.yul\":7625:7671   */\n      tag_493\n      jumpi\n        /* \"#utility.yul\":7651:7669   */\n      tag_494\n      tag_82\n      jump\t// in\n    tag_494:\n        /* \"#utility.yul\":7625:7671   */\n    tag_493:\n        /* \"#utility.yul\":7555:7677   */\n      pop\n      jump\t// out\n        /* \"#utility.yul\":7683:7828   */\n    tag_379:\n        /* \"#utility.yul\":7737:7744   */\n      0x00\n        /* \"#utility.yul\":7766:7771   */\n      dup2\n        /* \"#utility.yul\":7755:7771   */\n      swap1\n      pop\n        /* \"#utility.yul\":7772:7822   */\n      tag_496\n        /* \"#utility.yul\":7816:7821   */\n      dup3\n        /* \"#utility.yul\":7772:7822   */\n      tag_378\n      jump\t// in\n    tag_496:\n        /* \"#utility.yul\":7683:7828   */\n      swap2\n      swap1\n      pop\n      jump\t// out\n        /* \"#utility.yul\":7834:7979   */\n    tag_380:\n        /* \"#utility.yul\":7899:7908   */\n      0x00\n        /* \"#utility.yul\":7932:7973   */\n      tag_498\n        /* \"#utility.yul\":7967:7972   */\n      dup3\n        /* \"#utility.yul\":7932:7973   */\n      tag_379\n      jump\t// in\n    tag_498:\n        /* \"#utility.yul\":7919:7973   */\n      swap1\n      pop\n        /* \"#utility.yul\":7834:7979   */\n      swap2\n      swap1\n      pop\n      jump\t// out\n        /* \"#utility.yul\":7985:8146   */\n    tag_381:\n        /* \"#utility.yul\":8087:8139   */\n      tag_500\n        /* \"#utility.yul\":8133:8138   */\n      dup2\n        /* \"#utility.yul\":8087:8139   */\n      tag_380\n      jump\t// in\n    tag_500:\n        /* \"#utility.yul\":8082:8085   */\n      dup3\n        /* \"#utility.yul\":8075:8140   */\n      mstore\n        /* \"#utility.yul\":7985:8146   */\n      pop\n      pop\n      jump\t// out\n        /* \"#utility.yul\":8152:8404   */\n    tag_54:\n        /* \"#utility.yul\":8260:8264   */\n      0x00\n        /* \"#utility.yul\":8298:8300   */\n      0x20\n        /* \"#utility.yul\":8287:8296   */\n      dup3\n        /* \"#utility.yul\":8283:8301   */\n      add\n        /* \"#utility.yul\":8275:8301   */\n      swap1\n      pop\n        /* \"#utility.yul\":8311:8397   */\n      tag_502\n        /* \"#utility.yul\":8394:8395   */\n      0x00\n        /* \"#utility.yul\":8383:8392   */\n      dup4\n        /* \"#utility.yul\":8379:8396   */\n      add\n        /* \"#utility.yul\":8370:8376   */\n      dup5\n        /* \"#utility.yul\":8311:8397   */\n      tag_381\n      jump\t// in\n    tag_502:\n        /* \"#utility.yul\":8152:8404   */\n      swap3\n      swap2\n      pop\n      pop\n      jump\t// out\n        /* \"#utility.yul\":8466:9082   */\n    tag_382:\n        /* \"#utility.yul\":8583:8586   */\n      0x00\n        /* \"#utility.yul\":8619:8623   */\n      0x40\n        /* \"#utility.yul\":8614:8617   */\n      dup4\n        /* \"#utility.yul\":8610:8624   */\n      add\n        /* \"#utility.yul\":8713:8717   */\n      0x00\n        /* \"#utility.yul\":8706:8711   */\n      dup4\n        /* \"#utility.yul\":8702:8718   */\n      add\n        /* \"#utility.yul\":8696:8719   */\n      mload\n        /* \"#utility.yul\":8766:8769   */\n      dup5\n        /* \"#utility.yul\":8760:8764   */\n      dup3\n        /* \"#utility.yul\":8756:8770   */\n      sub\n        /* \"#utility.yul\":8749:8753   */\n      0x00\n        /* \"#utility.yul\":8744:8747   */\n      dup7\n        /* \"#utility.yul\":8740:8754   */\n      add\n        /* \"#utility.yul\":8733:8771   */\n      mstore\n        /* \"#utility.yul\":8792:8865   */\n      tag_504\n        /* \"#utility.yul\":8860:8864   */\n      dup3\n        /* \"#utility.yul\":8846:8858   */\n      dup3\n        /* \"#utility.yul\":8792:8865   */\n      tag_369\n      jump\t// in\n    tag_504:\n        /* \"#utility.yul\":8784:8865   */\n      swap2\n      pop\n        /* \"#utility.yul\":8634:8876   */\n      pop\n        /* \"#utility.yul\":8963:8967   */\n      0x20\n        /* \"#utility.yul\":8956:8961   */\n      dup4\n        /* \"#utility.yul\":8952:8968   */\n      add\n        /* \"#utility.yul\":8946:8969   */\n      mload\n        /* \"#utility.yul\":8982:9045   */\n      tag_505\n        /* \"#utility.yul\":9039:9043   */\n      0x20\n        /* \"#utility.yul\":9034:9037   */\n      dup7\n        /* \"#utility.yul\":9030:9044   */\n      add\n        /* \"#utility.yul\":9016:9028   */\n      dup3\n        /* \"#utility.yul\":8982:9045   */\n      tag_370\n      jump\t// in\n    tag_505:\n        /* \"#utility.yul\":8886:9055   */\n      pop\n        /* \"#utility.yul\":9072:9076   */\n      dup1\n        /* \"#utility.yul\":9065:9076   */\n      swap2\n      pop\n        /* \"#utility.yul\":8588:9082   */\n      pop\n        /* \"#utility.yul\":8466:9082   */\n      swap3\n      swap2\n      pop\n      pop\n      jump\t// out\n        /* \"#utility.yul\":9088:9457   */\n    tag_58:\n        /* \"#utility.yul\":9229:9233   */\n      0x00\n        /* \"#utility.yul\":9267:9269   */\n      0x20\n        /* \"#utility.yul\":9256:9265   */\n      dup3\n        /* \"#utility.yul\":9252:9270   */\n      add\n        /* \"#utility.yul\":9244:9270   */\n      swap1\n      pop\n        /* \"#utility.yul\":9316:9325   */\n      dup2\n        /* \"#utility.yul\":9310:9314   */\n      dup2\n        /* \"#utility.yul\":9306:9326   */\n      sub\n        /* \"#utility.yul\":9302:9303   */\n      0x00\n        /* \"#utility.yul\":9291:9300   */\n      dup4\n        /* \"#utility.yul\":9287:9304   */\n      add\n        /* \"#utility.yul\":9280:9327   */\n      mstore\n        /* \"#utility.yul\":9344:9450   */\n      tag_507\n        /* \"#utility.yul\":9445:9449   */\n      dup2\n        /* \"#utility.yul\":9436:9442   */\n      dup5\n        /* \"#utility.yul\":9344:9450   */\n      tag_382\n      jump\t// in\n    tag_507:\n        /* \"#utility.yul\":9336:9450   */\n      swap1\n      pop\n        /* \"#utility.yul\":9088:9457   */\n      swap3\n      swap2\n      pop\n      pop\n      jump\t// out\n        /* \"#utility.yul\":9463:9577   */\n    tag_383:\n        /* \"#utility.yul\":9530:9536   */\n      0x00\n        /* \"#utility.yul\":9564:9569   */\n      dup2\n        /* \"#utility.yul\":9558:9570   */\n      mload\n        /* \"#utility.yul\":9548:9570   */\n      swap1\n      pop\n        /* \"#utility.yul\":9463:9577   */\n      swap2\n      swap1\n      pop\n      jump\t// out\n        /* \"#utility.yul\":9583:9767   */\n    tag_384:\n        /* \"#utility.yul\":9682:9693   */\n      0x00\n        /* \"#utility.yul\":9716:9722   */\n      dup3\n        /* \"#utility.yul\":9711:9714   */\n      dup3\n        /* \"#utility.yul\":9704:9723   */\n      mstore\n        /* \"#utility.yul\":9756:9760   */\n      0x20\n        /* \"#utility.yul\":9751:9754   */\n      dup3\n        /* \"#utility.yul\":9747:9761   */\n      add\n        /* \"#utility.yul\":9732:9761   */\n      swap1\n      pop\n        /* \"#utility.yul\":9583:9767   */\n      swap3\n      swap2\n      pop\n      pop\n      jump\t// out\n        /* \"#utility.yul\":9773:9905   */\n    tag_385:\n        /* \"#utility.yul\":9840:9844   */\n      0x00\n        /* \"#utility.yul\":9863:9866   */\n      dup2\n        /* \"#utility.yul\":9855:9866   */\n      swap1\n      pop\n        /* \"#utility.yul\":9893:9897   */\n      0x20\n        /* \"#utility.yul\":9888:9891   */\n      dup3\n        /* \"#utility.yul\":9884:9898   */\n      add\n        /* \"#utility.yul\":9876:9898   */\n      swap1\n      pop\n        /* \"#utility.yul\":9773:9905   */\n      swap2\n      swap1\n      pop\n      jump\t// out\n        /* \"#utility.yul\":9911:10019   */\n    tag_386:\n        /* \"#utility.yul\":9988:10012   */\n      tag_512\n        /* \"#utility.yul\":10006:10011   */\n      dup2\n        /* \"#utility.yul\":9988:10012   */\n      tag_376\n      jump\t// in\n    tag_512:\n        /* \"#utility.yul\":9983:9986   */\n      dup3\n        /* \"#utility.yul\":9976:10013   */\n      mstore\n        /* \"#utility.yul\":9911:10019   */\n      pop\n      pop\n      jump\t// out\n        /* \"#utility.yul\":10025:10204   */\n    tag_387:\n        /* \"#utility.yul\":10094:10104   */\n      0x00\n        /* \"#utility.yul\":10115:10161   */\n      tag_514\n        /* \"#utility.yul\":10157:10160   */\n      dup4\n        /* \"#utility.yul\":10149:10155   */\n      dup4\n        /* \"#utility.yul\":10115:10161   */\n      tag_386\n      jump\t// in\n    tag_514:\n        /* \"#utility.yul\":10193:10197   */\n      0x20\n        /* \"#utility.yul\":10188:10191   */\n      dup4\n        /* \"#utility.yul\":10184:10198   */\n      add\n        /* \"#utility.yul\":10170:10198   */\n      swap1\n      pop\n        /* \"#utility.yul\":10025:10204   */\n      swap3\n      swap2\n      pop\n      pop\n      jump\t// out\n        /* \"#utility.yul\":10210:10323   */\n    tag_388:\n        /* \"#utility.yul\":10280:10284   */\n      0x00\n        /* \"#utility.yul\":10312:10316   */\n      0x20\n        /* \"#utility.yul\":10307:10310   */\n      dup3\n        /* \"#utility.yul\":10303:10317   */\n      add\n        /* \"#utility.yul\":10295:10317   */\n      swap1\n      pop\n        /* \"#utility.yul\":10210:10323   */\n      swap2\n      swap1\n      pop\n      jump\t// out\n        /* \"#utility.yul\":10359:11091   */\n    tag_389:\n        /* \"#utility.yul\":10478:10481   */\n      0x00\n        /* \"#utility.yul\":10507:10561   */\n      tag_517\n        /* \"#utility.yul\":10555:10560   */\n      dup3\n        /* \"#utility.yul\":10507:10561   */\n      tag_383\n      jump\t// in\n    tag_517:\n        /* \"#utility.yul\":10577:10663   */\n      tag_518\n        /* \"#utility.yul\":10656:10662   */\n      dup2\n        /* \"#utility.yul\":10651:10654   */\n      dup6\n        /* \"#utility.yul\":10577:10663   */\n      tag_384\n      jump\t// in\n    tag_518:\n        /* \"#utility.yul\":10570:10663   */\n      swap4\n      pop\n        /* \"#utility.yul\":10687:10743   */\n      tag_519\n        /* \"#utility.yul\":10737:10742   */\n      dup4\n        /* \"#utility.yul\":10687:10743   */\n      tag_385\n      jump\t// in\n    tag_519:\n        /* \"#utility.yul\":10766:10773   */\n      dup1\n        /* \"#utility.yul\":10797:10798   */\n      0x00\n        /* \"#utility.yul\":10782:11066   */\n    tag_520:\n        /* \"#utility.yul\":10807:10813   */\n      dup4\n        /* \"#utility.yul\":10804:10805   */\n      dup2\n        /* \"#utility.yul\":10801:10814   */\n      lt\n        /* \"#utility.yul\":10782:11066   */\n      iszero\n      tag_522\n      jumpi\n        /* \"#utility.yul\":10883:10889   */\n      dup2\n        /* \"#utility.yul\":10877:10890   */\n      mload\n        /* \"#utility.yul\":10910:10973   */\n      tag_523\n        /* \"#utility.yul\":10969:10972   */\n      dup9\n        /* \"#utility.yul\":10954:10967   */\n      dup3\n        /* \"#utility.yul\":10910:10973   */\n      tag_387\n      jump\t// in\n    tag_523:\n        /* \"#utility.yul\":10903:10973   */\n      swap8\n      pop\n        /* \"#utility.yul\":10996:11056   */\n      tag_524\n        /* \"#utility.yul\":11049:11055   */\n      dup4\n        /* \"#utility.yul\":10996:11056   */\n      tag_388\n      jump\t// in\n    tag_524:\n        /* \"#utility.yul\":10986:11056   */\n      swap3\n      pop\n        /* \"#utility.yul\":10842:11066   */\n      pop\n        /* \"#utility.yul\":10829:10830   */\n      0x01\n        /* \"#utility.yul\":10826:10827   */\n      dup2\n        /* \"#utility.yul\":10822:10831   */\n      add\n        /* \"#utility.yul\":10817:10831   */\n      swap1\n      pop\n        /* \"#utility.yul\":10782:11066   */\n      jump(tag_520)\n    tag_522:\n        /* \"#utility.yul\":10786:10800   */\n      pop\n        /* \"#utility.yul\":11082:11085   */\n      dup6\n        /* \"#utility.yul\":11075:11085   */\n      swap4\n      pop\n        /* \"#utility.yul\":10483:11091   */\n      pop\n      pop\n      pop\n        /* \"#utility.yul\":10359:11091   */\n      swap3\n      swap2\n      pop\n      pop\n      jump\t// out\n        /* \"#utility.yul\":11097:11470   */\n    tag_66:\n        /* \"#utility.yul\":11240:11244   */\n      0x00\n        /* \"#utility.yul\":11278:11280   */\n      0x20\n        /* \"#utility.yul\":11267:11276   */\n      dup3\n        /* \"#utility.yul\":11263:11281   */\n      add\n        /* \"#utility.yul\":11255:11281   */\n      swap1\n      pop\n        /* \"#utility.yul\":11327:11336   */\n      dup2\n        /* \"#utility.yul\":11321:11325   */\n      dup2\n        /* \"#utility.yul\":11317:11337   */\n      sub\n        /* \"#utility.yul\":11313:11314   */\n      0x00\n        /* \"#utility.yul\":11302:11311   */\n      dup4\n        /* \"#utility.yul\":11298:11315   */\n      add\n        /* \"#utility.yul\":11291:11338   */\n      mstore\n        /* \"#utility.yul\":11355:11463   */\n      tag_526\n        /* \"#utility.yul\":11458:11462   */\n      dup2\n        /* \"#utility.yul\":11449:11455   */\n      dup5\n        /* \"#utility.yul\":11355:11463   */\n      tag_389\n      jump\t// in\n    tag_526:\n        /* \"#utility.yul\":11347:11463   */\n      swap1\n      pop\n        /* \"#utility.yul\":11097:11470   */\n      swap3\n      swap2\n      pop\n      pop\n      jump\t// out\n        /* \"#utility.yul\":11476:11598   */\n    tag_390:\n        /* \"#utility.yul\":11549:11573   */\n      tag_528\n        /* \"#utility.yul\":11567:11572   */\n      dup2\n        /* \"#utility.yul\":11549:11573   */\n      tag_376\n      jump\t// in\n    tag_528:\n        /* \"#utility.yul\":11542:11547   */\n      dup2\n        /* \"#utility.yul\":11539:11574   */\n      eq\n        /* \"#utility.yul\":11529:11592   */\n      tag_529\n      jumpi\n        /* \"#utility.yul\":11588:11589   */\n      0x00\n        /* \"#utility.yul\":11585:11586   */\n      0x00\n        /* \"#utility.yul\":11578:11590   */\n      revert\n        /* \"#utility.yul\":11529:11592   */\n    tag_529:\n        /* \"#utility.yul\":11476:11598   */\n      pop\n      jump\t// out\n        /* \"#utility.yul\":11604:11743   */\n    tag_391:\n        /* \"#utility.yul\":11650:11655   */\n      0x00\n        /* \"#utility.yul\":11688:11694   */\n      dup2\n        /* \"#utility.yul\":11675:11695   */\n      calldataload\n        /* \"#utility.yul\":11666:11695   */\n      swap1\n      pop\n        /* \"#utility.yul\":11704:11737   */\n      tag_531\n        /* \"#utility.yul\":11731:11736   */\n      dup2\n        /* \"#utility.yul\":11704:11737   */\n      tag_390\n      jump\t// in\n    tag_531:\n        /* \"#utility.yul\":11604:11743   */\n      swap3\n      swap2\n      pop\n      pop\n      jump\t// out\n        /* \"#utility.yul\":11763:12316   */\n    tag_392:\n        /* \"#utility.yul\":11821:11829   */\n      0x00\n        /* \"#utility.yul\":11831:11837   */\n      0x00\n        /* \"#utility.yul\":11881:11884   */\n      dup4\n        /* \"#utility.yul\":11874:11878   */\n      0x1f\n        /* \"#utility.yul\":11866:11872   */\n      dup5\n        /* \"#utility.yul\":11862:11879   */\n      add\n        /* \"#utility.yul\":11858:11885   */\n      slt\n        /* \"#utility.yul\":11848:11970   */\n      tag_533\n      jumpi\n        /* \"#utility.yul\":11889:11968   */\n      tag_534\n      tag_358\n      jump\t// in\n    tag_534:\n        /* \"#utility.yul\":11848:11970   */\n    tag_533:\n        /* \"#utility.yul\":12002:12008   */\n      dup3\n        /* \"#utility.yul\":11989:12009   */\n      calldataload\n        /* \"#utility.yul\":11979:12009   */\n      swap1\n      pop\n        /* \"#utility.yul\":12032:12050   */\n      0xffffffffffffffff\n        /* \"#utility.yul\":12024:12030   */\n      dup2\n        /* \"#utility.yul\":12021:12051   */\n      gt\n        /* \"#utility.yul\":12018:12135   */\n      iszero\n      tag_535\n      jumpi\n        /* \"#utility.yul\":12054:12133   */\n      tag_536\n      tag_359\n      jump\t// in\n    tag_536:\n        /* \"#utility.yul\":12018:12135   */\n    tag_535:\n        /* \"#utility.yul\":12168:12172   */\n      0x20\n        /* \"#utility.yul\":12160:12166   */\n      dup4\n        /* \"#utility.yul\":12156:12173   */\n      add\n        /* \"#utility.yul\":12144:12173   */\n      swap2\n      pop\n        /* \"#utility.yul\":12222:12225   */\n      dup4\n        /* \"#utility.yul\":12214:12218   */\n      0x01\n        /* \"#utility.yul\":12206:12212   */\n      dup3\n        /* \"#utility.yul\":12202:12219   */\n      mul\n        /* \"#utility.yul\":12192:12200   */\n      dup4\n        /* \"#utility.yul\":12188:12220   */\n      add\n        /* \"#utility.yul\":12185:12226   */\n      gt\n        /* \"#utility.yul\":12182:12310   */\n      iszero\n      tag_537\n      jumpi\n        /* \"#utility.yul\":12229:12308   */\n      tag_538\n      tag_360\n      jump\t// in\n    tag_538:\n        /* \"#utility.yul\":12182:12310   */\n    tag_537:\n        /* \"#utility.yul\":11763:12316   */\n      swap3\n      pop\n      swap3\n      swap1\n      pop\n      jump\t// out\n        /* \"#utility.yul\":12322:12996   */\n    tag_71:\n        /* \"#utility.yul\":12402:12408   */\n      0x00\n        /* \"#utility.yul\":12410:12416   */\n      0x00\n        /* \"#utility.yul\":12418:12424   */\n      0x00\n        /* \"#utility.yul\":12467:12469   */\n      0x40\n        /* \"#utility.yul\":12455:12464   */\n      dup5\n        /* \"#utility.yul\":12446:12453   */\n      dup7\n        /* \"#utility.yul\":12442:12465   */\n      sub\n        /* \"#utility.yul\":12438:12470   */\n      slt\n        /* \"#utility.yul\":12435:12554   */\n      iszero\n      tag_540\n      jumpi\n        /* \"#utility.yul\":12473:12552   */\n      tag_541\n      tag_353\n      jump\t// in\n    tag_541:\n        /* \"#utility.yul\":12435:12554   */\n    tag_540:\n        /* \"#utility.yul\":12593:12594   */\n      0x00\n        /* \"#utility.yul\":12618:12671   */\n      tag_542\n        /* \"#utility.yul\":12663:12670   */\n      dup7\n        /* \"#utility.yul\":12654:12660   */\n      dup3\n        /* \"#utility.yul\":12643:12652   */\n      dup8\n        /* \"#utility.yul\":12639:12661   */\n      add\n        /* \"#utility.yul\":12618:12671   */\n      tag_391\n      jump\t// in\n    tag_542:\n        /* \"#utility.yul\":12608:12671   */\n      swap4\n      pop\n        /* \"#utility.yul\":12564:12681   */\n      pop\n        /* \"#utility.yul\":12748:12750   */\n      0x20\n        /* \"#utility.yul\":12737:12746   */\n      dup5\n        /* \"#utility.yul\":12733:12751   */\n      add\n        /* \"#utility.yul\":12720:12752   */\n      calldataload\n        /* \"#utility.yul\":12779:12797   */\n      0xffffffffffffffff\n        /* \"#utility.yul\":12771:12777   */\n      dup2\n        /* \"#utility.yul\":12768:12798   */\n      gt\n        /* \"#utility.yul\":12765:12882   */\n      iszero\n      tag_543\n      jumpi\n        /* \"#utility.yul\":12801:12880   */\n      tag_544\n      tag_354\n      jump\t// in\n    tag_544:\n        /* \"#utility.yul\":12765:12882   */\n    tag_543:\n        /* \"#utility.yul\":12914:12979   */\n      tag_545\n        /* \"#utility.yul\":12971:12978   */\n      dup7\n        /* \"#utility.yul\":12962:12968   */\n      dup3\n        /* \"#utility.yul\":12951:12960   */\n      dup8\n        /* \"#utility.yul\":12947:12969   */\n      add\n        /* \"#utility.yul\":12914:12979   */\n      tag_392\n      jump\t// in\n    tag_545:\n        /* \"#utility.yul\":12896:12979   */\n      swap3\n      pop\n      swap3\n      pop\n        /* \"#utility.yul\":12691:12989   */\n      pop\n        /* \"#utility.yul\":12322:12996   */\n      swap3\n      pop\n      swap3\n      pop\n      swap3\n      jump\t// out\n        /* \"#utility.yul\":13002:13331   */\n    tag_77:\n        /* \"#utility.yul\":13061:13067   */\n      0x00\n        /* \"#utility.yul\":13110:13112   */\n      0x20\n        /* \"#utility.yul\":13098:13107   */\n      dup3\n        /* \"#utility.yul\":13089:13096   */\n      dup5\n        /* \"#utility.yul\":13085:13108   */\n      sub\n        /* \"#utility.yul\":13081:13113   */\n      slt\n        /* \"#utility.yul\":13078:13197   */\n      iszero\n      tag_547\n      jumpi\n        /* \"#utility.yul\":13116:13195   */\n      tag_548\n      tag_353\n      jump\t// in\n    tag_548:\n        /* \"#utility.yul\":13078:13197   */\n    tag_547:\n        /* \"#utility.yul\":13236:13237   */\n      0x00\n        /* \"#utility.yul\":13261:13314   */\n      tag_549\n        /* \"#utility.yul\":13306:13313   */\n      dup5\n        /* \"#utility.yul\":13297:13303   */\n      dup3\n        /* \"#utility.yul\":13286:13295   */\n      dup6\n        /* \"#utility.yul\":13282:13304   */\n      add\n        /* \"#utility.yul\":13261:13314   */\n      tag_391\n      jump\t// in\n    tag_549:\n        /* \"#utility.yul\":13251:13314   */\n      swap2\n      pop\n        /* \"#utility.yul\":13207:13324   */\n      pop\n        /* \"#utility.yul\":13002:13331   */\n      swap3\n      swap2\n      pop\n      pop\n      jump\t// out\n        /* \"#utility.yul\":13337:13506   */\n    tag_393:\n        /* \"#utility.yul\":13421:13432   */\n      0x00\n        /* \"#utility.yul\":13455:13461   */\n      dup3\n        /* \"#utility.yul\":13450:13453   */\n      dup3\n        /* \"#utility.yul\":13443:13462   */\n      mstore\n        /* \"#utility.yul\":13495:13499   */\n      0x20\n        /* \"#utility.yul\":13490:13493   */\n      dup3\n        /* \"#utility.yul\":13486:13500   */\n      add\n        /* \"#utility.yul\":13471:13500   */\n      swap1\n      pop\n        /* \"#utility.yul\":13337:13506   */\n      swap3\n      swap2\n      pop\n      pop\n      jump\t// out\n        /* \"#utility.yul\":13512:13755   */\n    tag_394:\n        /* \"#utility.yul\":13652:13686   */\n      0x5468697320616374696f6e206973206e6f7420617661696c61626c6520617420\n        /* \"#utility.yul\":13648:13649   */\n      0x00\n        /* \"#utility.yul\":13640:13646   */\n      dup3\n        /* \"#utility.yul\":13636:13650   */\n      add\n        /* \"#utility.yul\":13629:13687   */\n      mstore\n        /* \"#utility.yul\":13721:13747   */\n      0x74686973207374616765206f66207468652062616c6c6f740000000000000000\n        /* \"#utility.yul\":13716:13718   */\n      0x20\n        /* \"#utility.yul\":13708:13714   */\n      dup3\n        /* \"#utility.yul\":13704:13719   */\n      add\n        /* \"#utility.yul\":13697:13748   */\n      mstore\n        /* \"#utility.yul\":13512:13755   */\n      pop\n      jump\t// out\n        /* \"#utility.yul\":13761:14127   */\n    tag_395:\n        /* \"#utility.yul\":13903:13906   */\n      0x00\n        /* \"#utility.yul\":13924:13991   */\n      tag_553\n        /* \"#utility.yul\":13988:13990   */\n      0x38\n        /* \"#utility.yul\":13983:13986   */\n      dup4\n        /* \"#utility.yul\":13924:13991   */\n      tag_393\n      jump\t// in\n    tag_553:\n        /* \"#utility.yul\":13917:13991   */\n      swap2\n      pop\n        /* \"#utility.yul\":14000:14093   */\n      tag_554\n        /* \"#utility.yul\":14089:14092   */\n      dup3\n        /* \"#utility.yul\":14000:14093   */\n      tag_394\n      jump\t// in\n    tag_554:\n        /* \"#utility.yul\":14118:14120   */\n      0x40\n        /* \"#utility.yul\":14113:14116   */\n      dup3\n        /* \"#utility.yul\":14109:14121   */\n      add\n        /* \"#utility.yul\":14102:14121   */\n      swap1\n      pop\n        /* \"#utility.yul\":13761:14127   */\n      swap2\n      swap1\n      pop\n      jump\t// out\n        /* \"#utility.yul\":14133:14552   */\n    tag_87:\n        /* \"#utility.yul\":14299:14303   */\n      0x00\n        /* \"#utility.yul\":14337:14339   */\n      0x20\n        /* \"#utility.yul\":14326:14335   */\n      dup3\n        /* \"#utility.yul\":14322:14340   */\n      add\n        /* \"#utility.yul\":14314:14340   */\n      swap1\n      pop\n        /* \"#utility.yul\":14386:14395   */\n      dup2\n        /* \"#utility.yul\":14380:14384   */\n      dup2\n        /* \"#utility.yul\":14376:14396   */\n      sub\n        /* \"#utility.yul\":14372:14373   */\n      0x00\n        /* \"#utility.yul\":14361:14370   */\n      dup4\n        /* \"#utility.yul\":14357:14374   */\n      add\n        /* \"#utility.yul\":14350:14397   */\n      mstore\n        /* \"#utility.yul\":14414:14545   */\n      tag_556\n        /* \"#utility.yul\":14540:14544   */\n      dup2\n        /* \"#utility.yul\":14414:14545   */\n      tag_395\n      jump\t// in\n    tag_556:\n        /* \"#utility.yul\":14406:14545   */\n      swap1\n      pop\n        /* \"#utility.yul\":14133:14552   */\n      swap2\n      swap1\n      pop\n      jump\t// out\n        /* \"#utility.yul\":14558:14731   */\n    tag_396:\n        /* \"#utility.yul\":14698:14723   */\n      0x566f746572206973206e6f742072656769737465726564000000000000000000\n        /* \"#utility.yul\":14694:14695   */\n      0x00\n        /* \"#utility.yul\":14686:14692   */\n      dup3\n        /* \"#utility.yul\":14682:14696   */\n      add\n        /* \"#utility.yul\":14675:14724   */\n      mstore\n        /* \"#utility.yul\":14558:14731   */\n      pop\n      jump\t// out\n        /* \"#utility.yul\":14737:15103   */\n    tag_397:\n        /* \"#utility.yul\":14879:14882   */\n      0x00\n        /* \"#utility.yul\":14900:14967   */\n      tag_559\n        /* \"#utility.yul\":14964:14966   */\n      0x17\n        /* \"#utility.yul\":14959:14962   */\n      dup4\n        /* \"#utility.yul\":14900:14967   */\n      tag_393\n      jump\t// in\n    tag_559:\n        /* \"#utility.yul\":14893:14967   */\n      swap2\n      pop\n        /* \"#utility.yul\":14976:15069   */\n      tag_560\n        /* \"#utility.yul\":15065:15068   */\n      dup3\n        /* \"#utility.yul\":14976:15069   */\n      tag_396\n      jump\t// in\n    tag_560:\n        /* \"#utility.yul\":15094:15096   */\n      0x20\n        /* \"#utility.yul\":15089:15092   */\n      dup3\n        /* \"#utility.yul\":15085:15097   */\n      add\n        /* \"#utility.yul\":15078:15097   */\n      swap1\n      pop\n        /* \"#utility.yul\":14737:15103   */\n      swap2\n      swap1\n      pop\n      jump\t// out\n        /* \"#utility.yul\":15109:15528   */\n    tag_91:\n        /* \"#utility.yul\":15275:15279   */\n      0x00\n        /* \"#utility.yul\":15313:15315   */\n      0x20\n        /* \"#utility.yul\":15302:15311   */\n      dup3\n        /* \"#utility.yul\":15298:15316   */\n      add\n        /* \"#utility.yul\":15290:15316   */\n      swap1\n      pop\n        /* \"#utility.yul\":15362:15371   */\n      dup2\n        /* \"#utility.yul\":15356:15360   */\n      dup2\n        /* \"#utility.yul\":15352:15372   */\n      sub\n        /* \"#utility.yul\":15348:15349   */\n      0x00\n        /* \"#utility.yul\":15337:15346   */\n      dup4\n        /* \"#utility.yul\":15333:15350   */\n      add\n        /* \"#utility.yul\":15326:15373   */\n      mstore\n        /* \"#utility.yul\":15390:15521   */\n      tag_562\n        /* \"#utility.yul\":15516:15520   */\n      dup2\n        /* \"#utility.yul\":15390:15521   */\n      tag_397\n      jump\t// in\n    tag_562:\n        /* \"#utility.yul\":15382:15521   */\n      swap1\n      pop\n        /* \"#utility.yul\":15109:15528   */\n      swap2\n      swap1\n      pop\n      jump\t// out\n        /* \"#utility.yul\":15534:15755   */\n    tag_398:\n        /* \"#utility.yul\":15674:15708   */\n      0x566f746572206973206e6f7420616c6c6f77656420746f20766f746520747769\n        /* \"#utility.yul\":15670:15671   */\n      0x00\n        /* \"#utility.yul\":15662:15668   */\n      dup3\n        /* \"#utility.yul\":15658:15672   */\n      add\n        /* \"#utility.yul\":15651:15709   */\n      mstore\n        /* \"#utility.yul\":15743:15747   */\n      0x6365000000000000000000000000000000000000000000000000000000000000\n        /* \"#utility.yul\":15738:15740   */\n      0x20\n        /* \"#utility.yul\":15730:15736   */\n      dup3\n        /* \"#utility.yul\":15726:15741   */\n      add\n        /* \"#utility.yul\":15719:15748   */\n      mstore\n        /* \"#utility.yul\":15534:15755   */\n      pop\n      jump\t// out\n        /* \"#utility.yul\":15761:16127   */\n    tag_399:\n        /* \"#utility.yul\":15903:15906   */\n      0x00\n        /* \"#utility.yul\":15924:15991   */\n      tag_565\n        /* \"#utility.yul\":15988:15990   */\n      0x22\n        /* \"#utility.yul\":15983:15986   */\n      dup4\n        /* \"#utility.yul\":15924:15991   */\n      tag_393\n      jump\t// in\n    tag_565:\n        /* \"#utility.yul\":15917:15991   */\n      swap2\n      pop\n        /* \"#utility.yul\":16000:16093   */\n      tag_566\n        /* \"#utility.yul\":16089:16092   */\n      dup3\n        /* \"#utility.yul\":16000:16093   */\n      tag_398\n      jump\t// in\n    tag_566:\n        /* \"#utility.yul\":16118:16120   */\n      0x40\n        /* \"#utility.yul\":16113:16116   */\n      dup3\n        /* \"#utility.yul\":16109:16121   */\n      add\n        /* \"#utility.yul\":16102:16121   */\n      swap1\n      pop\n        /* \"#utility.yul\":15761:16127   */\n      swap2\n      swap1\n      pop\n      jump\t// out\n        /* \"#utility.yul\":16133:16552   */\n    tag_95:\n        /* \"#utility.yul\":16299:16303   */\n      0x00\n        /* \"#utility.yul\":16337:16339   */\n      0x20\n        /* \"#utility.yul\":16326:16335   */\n      dup3\n        /* \"#utility.yul\":16322:16340   */\n      add\n        /* \"#utility.yul\":16314:16340   */\n      swap1\n      pop\n        /* \"#utility.yul\":16386:16395   */\n      dup2\n        /* \"#utility.yul\":16380:16384   */\n      dup2\n        /* \"#utility.yul\":16376:16396   */\n      sub\n        /* \"#utility.yul\":16372:16373   */\n      0x00\n        /* \"#utility.yul\":16361:16370   */\n      dup4\n        /* \"#utility.yul\":16357:16374   */\n      add\n        /* \"#utility.yul\":16350:16397   */\n      mstore\n        /* \"#utility.yul\":16414:16545   */\n      tag_568\n        /* \"#utility.yul\":16540:16544   */\n      dup2\n        /* \"#utility.yul\":16414:16545   */\n      tag_399\n      jump\t// in\n    tag_568:\n        /* \"#utility.yul\":16406:16545   */\n      swap1\n      pop\n        /* \"#utility.yul\":16133:16552   */\n      swap2\n      swap1\n      pop\n      jump\t// out\n        /* \"#utility.yul\":16558:16738   */\n    tag_98:\n        /* \"#utility.yul\":16606:16683   */\n      0x4e487b7100000000000000000000000000000000000000000000000000000000\n        /* \"#utility.yul\":16603:16604   */\n      0x00\n        /* \"#utility.yul\":16596:16684   */\n      mstore\n        /* \"#utility.yul\":16703:16707   */\n      0x32\n        /* \"#utility.yul\":16700:16701   */\n      0x04\n        /* \"#utility.yul\":16693:16708   */\n      mstore\n        /* \"#utility.yul\":16727:16731   */\n      0x24\n        /* \"#utility.yul\":16724:16725   */\n      0x00\n        /* \"#utility.yul\":16717:16732   */\n      revert\n        /* \"#utility.yul\":16744:16924   */\n    tag_400:\n        /* \"#utility.yul\":16792:16869   */\n      0x4e487b7100000000000000000000000000000000000000000000000000000000\n        /* \"#utility.yul\":16789:16790   */\n      0x00\n        /* \"#utility.yul\":16782:16870   */\n      mstore\n        /* \"#utility.yul\":16889:16893   */\n      0x11\n        /* \"#utility.yul\":16886:16887   */\n      0x04\n        /* \"#utility.yul\":16879:16894   */\n      mstore\n        /* \"#utility.yul\":16913:16917   */\n      0x24\n        /* \"#utility.yul\":16910:16911   */\n      0x00\n        /* \"#utility.yul\":16903:16918   */\n      revert\n        /* \"#utility.yul\":16930:17121   */\n    tag_101:\n        /* \"#utility.yul\":16970:16973   */\n      0x00\n        /* \"#utility.yul\":16989:17009   */\n      tag_572\n        /* \"#utility.yul\":17007:17008   */\n      dup3\n        /* \"#utility.yul\":16989:17009   */\n      tag_355\n      jump\t// in\n    tag_572:\n        /* \"#utility.yul\":16984:17009   */\n      swap2\n      pop\n        /* \"#utility.yul\":17023:17043   */\n      tag_573\n        /* \"#utility.yul\":17041:17042   */\n      dup4\n        /* \"#utility.yul\":17023:17043   */\n      tag_355\n      jump\t// in\n    tag_573:\n        /* \"#utility.yul\":17018:17043   */\n      swap3\n      pop\n        /* \"#utility.yul\":17066:17067   */\n      dup3\n        /* \"#utility.yul\":17063:17064   */\n      dup3\n        /* \"#utility.yul\":17059:17068   */\n      add\n        /* \"#utility.yul\":17052:17068   */\n      swap1\n      pop\n        /* \"#utility.yul\":17087:17090   */\n      dup1\n        /* \"#utility.yul\":17084:17085   */\n      dup3\n        /* \"#utility.yul\":17081:17091   */\n      gt\n        /* \"#utility.yul\":17078:17114   */\n      iszero\n      tag_574\n      jumpi\n        /* \"#utility.yul\":17094:17112   */\n      tag_575\n      tag_400\n      jump\t// in\n    tag_575:\n        /* \"#utility.yul\":17078:17114   */\n    tag_574:\n        /* \"#utility.yul\":16930:17121   */\n      swap3\n      swap2\n      pop\n      pop\n      jump\t// out\n        /* \"#utility.yul\":17127:17245   */\n    tag_401:\n        /* \"#utility.yul\":17214:17238   */\n      tag_577\n        /* \"#utility.yul\":17232:17237   */\n      dup2\n        /* \"#utility.yul\":17214:17238   */\n      tag_355\n      jump\t// in\n    tag_577:\n        /* \"#utility.yul\":17209:17212   */\n      dup3\n        /* \"#utility.yul\":17202:17239   */\n      mstore\n        /* \"#utility.yul\":17127:17245   */\n      pop\n      pop\n      jump\t// out\n        /* \"#utility.yul\":17251:17583   */\n    tag_103:\n        /* \"#utility.yul\":17372:17376   */\n      0x00\n        /* \"#utility.yul\":17410:17412   */\n      0x40\n        /* \"#utility.yul\":17399:17408   */\n      dup3\n        /* \"#utility.yul\":17395:17413   */\n      add\n        /* \"#utility.yul\":17387:17413   */\n      swap1\n      pop\n        /* \"#utility.yul\":17423:17494   */\n      tag_579\n        /* \"#utility.yul\":17491:17492   */\n      0x00\n        /* \"#utility.yul\":17480:17489   */\n      dup4\n        /* \"#utility.yul\":17476:17493   */\n      add\n        /* \"#utility.yul\":17467:17473   */\n      dup6\n        /* \"#utility.yul\":17423:17494   */\n      tag_377\n      jump\t// in\n    tag_579:\n        /* \"#utility.yul\":17504:17576   */\n      tag_580\n        /* \"#utility.yul\":17572:17574   */\n      0x20\n        /* \"#utility.yul\":17561:17570   */\n      dup4\n        /* \"#utility.yul\":17557:17575   */\n      add\n        /* \"#utility.yul\":17548:17554   */\n      dup5\n        /* \"#utility.yul\":17504:17576   */\n      tag_401\n      jump\t// in\n    tag_580:\n        /* \"#utility.yul\":17251:17583   */\n      swap4\n      swap3\n      pop\n      pop\n      pop\n      jump\t// out\n        /* \"#utility.yul\":17589:17981   */\n    tag_111:\n        /* \"#utility.yul\":17740:17744   */\n      0x00\n        /* \"#utility.yul\":17778:17780   */\n      0x40\n        /* \"#utility.yul\":17767:17776   */\n      dup3\n        /* \"#utility.yul\":17763:17781   */\n      add\n        /* \"#utility.yul\":17755:17781   */\n      swap1\n      pop\n        /* \"#utility.yul\":17791:17877   */\n      tag_582\n        /* \"#utility.yul\":17874:17875   */\n      0x00\n        /* \"#utility.yul\":17863:17872   */\n      dup4\n        /* \"#utility.yul\":17859:17876   */\n      add\n        /* \"#utility.yul\":17850:17856   */\n      dup6\n        /* \"#utility.yul\":17791:17877   */\n      tag_381\n      jump\t// in\n    tag_582:\n        /* \"#utility.yul\":17887:17974   */\n      tag_583\n        /* \"#utility.yul\":17970:17972   */\n      0x20\n        /* \"#utility.yul\":17959:17968   */\n      dup4\n        /* \"#utility.yul\":17955:17973   */\n      add\n        /* \"#utility.yul\":17946:17952   */\n      dup5\n        /* \"#utility.yul\":17887:17974   */\n      tag_381\n      jump\t// in\n    tag_583:\n        /* \"#utility.yul\":17589:17981   */\n      swap4\n      swap3\n      pop\n      pop\n      pop\n      jump\t// out\n        /* \"#utility.yul\":17987:18155   */\n    tag_402:\n        /* \"#utility.yul\":18127:18147   */\n      0x4e6f20766f746572732070726f76696465640000000000000000000000000000\n        /* \"#utility.yul\":18123:18124   */\n      0x00\n        /* \"#utility.yul\":18115:18121   */\n      dup3\n        /* \"#utility.yul\":18111:18125   */\n      add\n        /* \"#utility.yul\":18104:18148   */\n      mstore\n        /* \"#utility.yul\":17987:18155   */\n      pop\n      jump\t// out\n        /* \"#utility.yul\":18161:18527   */\n    tag_403:\n        /* \"#utility.yul\":18303:18306   */\n      0x00\n        /* \"#utility.yul\":18324:18391   */\n      tag_586\n        /* \"#utility.yul\":18388:18390   */\n      0x12\n        /* \"#utility.yul\":18383:18386   */\n      dup4\n        /* \"#utility.yul\":18324:18391   */\n      tag_393\n      jump\t// in\n    tag_586:\n        /* \"#utility.yul\":18317:18391   */\n      swap2\n      pop\n        /* \"#utility.yul\":18400:18493   */\n      tag_587\n        /* \"#utility.yul\":18489:18492   */\n      dup3\n        /* \"#utility.yul\":18400:18493   */\n      tag_402\n      jump\t// in\n    tag_587:\n        /* \"#utility.yul\":18518:18520   */\n      0x20\n        /* \"#utility.yul\":18513:18516   */\n      dup3\n        /* \"#utility.yul\":18509:18521   */\n      add\n        /* \"#utility.yul\":18502:18521   */\n      swap1\n      pop\n        /* \"#utility.yul\":18161:18527   */\n      swap2\n      swap1\n      pop\n      jump\t// out\n        /* \"#utility.yul\":18533:18952   */\n    tag_124:\n        /* \"#utility.yul\":18699:18703   */\n      0x00\n        /* \"#utility.yul\":18737:18739   */\n      0x20\n        /* \"#utility.yul\":18726:18735   */\n      dup3\n        /* \"#utility.yul\":18722:18740   */\n      add\n        /* \"#utility.yul\":18714:18740   */\n      swap1\n      pop\n        /* \"#utility.yul\":18786:18795   */\n      dup2\n        /* \"#utility.yul\":18780:18784   */\n      dup2\n        /* \"#utility.yul\":18776:18796   */\n      sub\n        /* \"#utility.yul\":18772:18773   */\n      0x00\n        /* \"#utility.yul\":18761:18770   */\n      dup4\n        /* \"#utility.yul\":18757:18774   */\n      add\n        /* \"#utility.yul\":18750:18797   */\n      mstore\n        /* \"#utility.yul\":18814:18945   */\n      tag_589\n        /* \"#utility.yul\":18940:18944   */\n      dup2\n        /* \"#utility.yul\":18814:18945   */\n      tag_403\n      jump\t// in\n    tag_589:\n        /* \"#utility.yul\":18806:18945   */\n      swap1\n      pop\n        /* \"#utility.yul\":18533:18952   */\n      swap2\n      swap1\n      pop\n      jump\t// out\n        /* \"#utility.yul\":18958:19138   */\n    tag_404:\n        /* \"#utility.yul\":19006:19083   */\n      0x4e487b7100000000000000000000000000000000000000000000000000000000\n        /* \"#utility.yul\":19003:19004   */\n      0x00\n        /* \"#utility.yul\":18996:19084   */\n      mstore\n        /* \"#utility.yul\":19103:19107   */\n      0x22\n        /* \"#utility.yul\":19100:19101   */\n      0x04\n        /* \"#utility.yul\":19093:19108   */\n      mstore\n        /* \"#utility.yul\":19127:19131   */\n      0x24\n        /* \"#utility.yul\":19124:19125   */\n      0x00\n        /* \"#utility.yul\":19117:19132   */\n      revert\n        /* \"#utility.yul\":19144:19464   */\n    tag_162:\n        /* \"#utility.yul\":19188:19194   */\n      0x00\n        /* \"#utility.yul\":19225:19226   */\n      0x02\n        /* \"#utility.yul\":19219:19223   */\n      dup3\n        /* \"#utility.yul\":19215:19227   */\n      div\n        /* \"#utility.yul\":19205:19227   */\n      swap1\n      pop\n        /* \"#utility.yul\":19272:19273   */\n      0x01\n        /* \"#utility.yul\":19266:19270   */\n      dup3\n        /* \"#utility.yul\":19262:19274   */\n      and\n        /* \"#utility.yul\":19293:19311   */\n      dup1\n        /* \"#utility.yul\":19283:19364   */\n      tag_592\n      jumpi\n        /* \"#utility.yul\":19349:19353   */\n      0x7f\n        /* \"#utility.yul\":19341:19347   */\n      dup3\n        /* \"#utility.yul\":19337:19354   */\n      and\n        /* \"#utility.yul\":19327:19354   */\n      swap2\n      pop\n        /* \"#utility.yul\":19283:19364   */\n    tag_592:\n        /* \"#utility.yul\":19411:19413   */\n      0x20\n        /* \"#utility.yul\":19403:19409   */\n      dup3\n        /* \"#utility.yul\":19400:19414   */\n      lt\n        /* \"#utility.yul\":19380:19398   */\n      dup2\n        /* \"#utility.yul\":19377:19415   */\n      sub\n        /* \"#utility.yul\":19374:19458   */\n      tag_593\n      jumpi\n        /* \"#utility.yul\":19430:19448   */\n      tag_594\n      tag_404\n      jump\t// in\n    tag_594:\n        /* \"#utility.yul\":19374:19458   */\n    tag_593:\n        /* \"#utility.yul\":19195:19464   */\n      pop\n        /* \"#utility.yul\":19144:19464   */\n      swap2\n      swap1\n      pop\n      jump\t// out\n        /* \"#utility.yul\":19470:19763   */\n    tag_405:\n        /* \"#utility.yul\":19610:19644   */\n      0x54686520766f746520726571756972657320616e6f7468657220726f756e6420\n        /* \"#utility.yul\":19606:19607   */\n      0x00\n        /* \"#utility.yul\":19598:19604   */\n      dup3\n        /* \"#utility.yul\":19594:19608   */\n      add\n        /* \"#utility.yul\":19587:19645   */\n      mstore\n        /* \"#utility.yul\":19679:19713   */\n      0x617320736f6d652070726f706f73616c73206861766520656e64656420696e20\n        /* \"#utility.yul\":19674:19676   */\n      0x20\n        /* \"#utility.yul\":19666:19672   */\n      dup3\n        /* \"#utility.yul\":19662:19677   */\n      add\n        /* \"#utility.yul\":19655:19714   */\n      mstore\n        /* \"#utility.yul\":19748:19755   */\n      0x6120746965000000000000000000000000000000000000000000000000000000\n        /* \"#utility.yul\":19743:19745   */\n      0x40\n        /* \"#utility.yul\":19735:19741   */\n      dup3\n        /* \"#utility.yul\":19731:19746   */\n      add\n        /* \"#utility.yul\":19724:19756   */\n      mstore\n        /* \"#utility.yul\":19470:19763   */\n      pop\n      jump\t// out\n        /* \"#utility.yul\":19769:20135   */\n    tag_406:\n        /* \"#utility.yul\":19911:19914   */\n      0x00\n        /* \"#utility.yul\":19932:19999   */\n      tag_597\n        /* \"#utility.yul\":19996:19998   */\n      0x45\n        /* \"#utility.yul\":19991:19994   */\n      dup4\n        /* \"#utility.yul\":19932:19999   */\n      tag_393\n      jump\t// in\n    tag_597:\n        /* \"#utility.yul\":19925:19999   */\n      swap2\n      pop\n        /* \"#utility.yul\":20008:20101   */\n      tag_598\n        /* \"#utility.yul\":20097:20100   */\n      dup3\n        /* \"#utility.yul\":20008:20101   */\n      tag_405\n      jump\t// in\n    tag_598:\n        /* \"#utility.yul\":20126:20128   */\n      0x60\n        /* \"#utility.yul\":20121:20124   */\n      dup3\n        /* \"#utility.yul\":20117:20129   */\n      add\n        /* \"#utility.yul\":20110:20129   */\n      swap1\n      pop\n        /* \"#utility.yul\":19769:20135   */\n      swap2\n      swap1\n      pop\n      jump\t// out\n        /* \"#utility.yul\":20141:20560   */\n    tag_213:\n        /* \"#utility.yul\":20307:20311   */\n      0x00\n        /* \"#utility.yul\":20345:20347   */\n      0x20\n        /* \"#utility.yul\":20334:20343   */\n      dup3\n        /* \"#utility.yul\":20330:20348   */\n      add\n        /* \"#utility.yul\":20322:20348   */\n      swap1\n      pop\n        /* \"#utility.yul\":20394:20403   */\n      dup2\n        /* \"#utility.yul\":20388:20392   */\n      dup2\n        /* \"#utility.yul\":20384:20404   */\n      sub\n        /* \"#utility.yul\":20380:20381   */\n      0x00\n        /* \"#utility.yul\":20369:20378   */\n      dup4\n        /* \"#utility.yul\":20365:20382   */\n      add\n        /* \"#utility.yul\":20358:20405   */\n      mstore\n        /* \"#utility.yul\":20422:20553   */\n      tag_600\n        /* \"#utility.yul\":20548:20552   */\n      dup2\n        /* \"#utility.yul\":20422:20553   */\n      tag_406\n      jump\t// in\n    tag_600:\n        /* \"#utility.yul\":20414:20553   */\n      swap1\n      pop\n        /* \"#utility.yul\":20141:20560   */\n      swap2\n      swap1\n      pop\n      jump\t// out\n        /* \"#utility.yul\":20566:20746   */\n    tag_407:\n        /* \"#utility.yul\":20614:20691   */\n      0x4e487b7100000000000000000000000000000000000000000000000000000000\n        /* \"#utility.yul\":20611:20612   */\n      0x00\n        /* \"#utility.yul\":20604:20692   */\n      mstore\n        /* \"#utility.yul\":20711:20715   */\n      0x41\n        /* \"#utility.yul\":20708:20709   */\n      0x04\n        /* \"#utility.yul\":20701:20716   */\n      mstore\n        /* \"#utility.yul\":20735:20739   */\n      0x24\n        /* \"#utility.yul\":20732:20733   */\n      0x00\n        /* \"#utility.yul\":20725:20740   */\n      revert\n        /* \"#utility.yul\":20752:20893   */\n    tag_408:\n        /* \"#utility.yul\":20801:20805   */\n      0x00\n        /* \"#utility.yul\":20824:20827   */\n      dup2\n        /* \"#utility.yul\":20816:20827   */\n      swap1\n      pop\n        /* \"#utility.yul\":20847:20850   */\n      dup2\n        /* \"#utility.yul\":20844:20845   */\n      0x00\n        /* \"#utility.yul\":20837:20851   */\n      mstore\n        /* \"#utility.yul\":20881:20885   */\n      0x20\n        /* \"#utility.yul\":20878:20879   */\n      0x00\n        /* \"#utility.yul\":20868:20886   */\n      keccak256\n        /* \"#utility.yul\":20860:20886   */\n      swap1\n      pop\n        /* \"#utility.yul\":20752:20893   */\n      swap2\n      swap1\n      pop\n      jump\t// out\n        /* \"#utility.yul\":20899:20992   */\n    tag_409:\n        /* \"#utility.yul\":20936:20942   */\n      0x00\n        /* \"#utility.yul\":20983:20985   */\n      0x20\n        /* \"#utility.yul\":20978:20980   */\n      0x1f\n        /* \"#utility.yul\":20971:20976   */\n      dup4\n        /* \"#utility.yul\":20967:20981   */\n      add\n        /* \"#utility.yul\":20963:20986   */\n      div\n        /* \"#utility.yul\":20953:20986   */\n      swap1\n      pop\n        /* \"#utility.yul\":20899:20992   */\n      swap2\n      swap1\n      pop\n      jump\t// out\n        /* \"#utility.yul\":20998:21105   */\n    tag_410:\n        /* \"#utility.yul\":21042:21050   */\n      0x00\n        /* \"#utility.yul\":21092:21097   */\n      dup3\n        /* \"#utility.yul\":21086:21090   */\n      dup3\n        /* \"#utility.yul\":21082:21098   */\n      shl\n        /* \"#utility.yul\":21061:21098   */\n      swap1\n      pop\n        /* \"#utility.yul\":20998:21105   */\n      swap3\n      swap2\n      pop\n      pop\n      jump\t// out\n        /* \"#utility.yul\":21111:21504   */\n    tag_411:\n        /* \"#utility.yul\":21180:21186   */\n      0x00\n        /* \"#utility.yul\":21230:21231   */\n      0x08\n        /* \"#utility.yul\":21218:21228   */\n      dup4\n        /* \"#utility.yul\":21214:21232   */\n      mul\n        /* \"#utility.yul\":21253:21350   */\n      tag_606\n        /* \"#utility.yul\":21283:21349   */\n      0xffffffffffffffffffffffffffffffffffffffffffffffffffffffffffffffff\n        /* \"#utility.yul\":21272:21281   */\n      dup3\n        /* \"#utility.yul\":21253:21350   */\n      tag_410\n      jump\t// in\n    tag_606:\n        /* \"#utility.yul\":21371:21410   */\n      tag_607\n        /* \"#utility.yul\":21401:21409   */\n      dup7\n        /* \"#utility.yul\":21390:21399   */\n      dup4\n        /* \"#utility.yul\":21371:21410   */\n      tag_410\n      jump\t// in\n    tag_607:\n        /* \"#utility.yul\":21359:21410   */\n      swap6\n      pop\n        /* \"#utility.yul\":21443:21447   */\n      dup1\n        /* \"#utility.yul\":21439:21448   */\n      not\n        /* \"#utility.yul\":21432:21437   */\n      dup5\n        /* \"#utility.yul\":21428:21449   */\n      and\n        /* \"#utility.yul\":21419:21449   */\n      swap4\n      pop\n        /* \"#utility.yul\":21492:21496   */\n      dup1\n        /* \"#utility.yul\":21482:21490   */\n      dup7\n        /* \"#utility.yul\":21478:21497   */\n      and\n        /* \"#utility.yul\":21471:21476   */\n      dup5\n        /* \"#utility.yul\":21468:21498   */\n      or\n        /* \"#utility.yul\":21458:21498   */\n      swap3\n      pop\n        /* \"#utility.yul\":21187:21504   */\n      pop\n      pop\n        /* \"#utility.yul\":21111:21504   */\n      swap4\n      swap3\n      pop\n      pop\n      pop\n      jump\t// out\n        /* \"#utility.yul\":21510:21570   */\n    tag_412:\n        /* \"#utility.yul\":21538:21541   */\n      0x00\n        /* \"#utility.yul\":21559:21564   */\n      dup2\n        /* \"#utility.yul\":21552:21564   */\n      swap1\n      pop\n        /* \"#utility.yul\":21510:21570   */\n      swap2\n      swap1\n      pop\n      jump\t// out\n        /* \"#utility.yul\":21576:21718   */\n    tag_413:\n        /* \"#utility.yul\":21626:21635   */\n      0x00\n        /* \"#utility.yul\":21659:21712   */\n      tag_610\n        /* \"#utility.yul\":21677:21711   */\n      tag_611\n        /* \"#utility.yul\":21686:21710   */\n      tag_612\n        /* \"#utility.yul\":21704:21709   */\n      dup5\n        /* \"#utility.yul\":21686:21710   */\n      tag_355\n      jump\t// in\n    tag_612:\n        /* \"#utility.yul\":21677:21711   */\n      tag_412\n      jump\t// in\n    tag_611:\n        /* \"#utility.yul\":21659:21712   */\n      tag_355\n      jump\t// in\n    tag_610:\n        /* \"#utility.yul\":21646:21712   */\n      swap1\n      pop\n        /* \"#utility.yul\":21576:21718   */\n      swap2\n      swap1\n      pop\n      jump\t// out\n        /* \"#utility.yul\":21724:21799   */\n    tag_414:\n        /* \"#utility.yul\":21767:21770   */\n      0x00\n        /* \"#utility.yul\":21788:21793   */\n      dup2\n        /* \"#utility.yul\":21781:21793   */\n      swap1\n      pop\n        /* \"#utility.yul\":21724:21799   */\n      swap2\n      swap1\n      pop\n      jump\t// out\n        /* \"#utility.yul\":21805:22074   */\n    tag_415:\n        /* \"#utility.yul\":21915:21954   */\n      tag_615\n        /* \"#utility.yul\":21946:21953   */\n      dup4\n        /* \"#utility.yul\":21915:21954   */\n      tag_413\n      jump\t// in\n    tag_615:\n        /* \"#utility.yul\":21976:22067   */\n      tag_616\n        /* \"#utility.yul\":22025:22066   */\n      tag_617\n        /* \"#utility.yul\":22049:22065   */\n      dup3\n        /* \"#utility.yul\":22025:22066   */\n      tag_414\n      jump\t// in\n    tag_617:\n        /* \"#utility.yul\":22017:22023   */\n      dup5\n        /* \"#utility.yul\":22010:22014   */\n      dup5\n        /* \"#utility.yul\":22004:22015   */\n      sload\n        /* \"#utility.yul\":21976:22067   */\n      tag_411\n      jump\t// in\n    tag_616:\n        /* \"#utility.yul\":21970:21974   */\n      dup3\n        /* \"#utility.yul\":21963:22068   */\n      sstore\n        /* \"#utility.yul\":21881:22074   */\n      pop\n        /* \"#utility.yul\":21805:22074   */\n      pop\n      pop\n      pop\n      jump\t// out\n        /* \"#utility.yul\":22080:22153   */\n    tag_416:\n        /* \"#utility.yul\":22125:22128   */\n      0x00\n        /* \"#utility.yul\":22146:22147   */\n      0x00\n        /* \"#utility.yul\":22139:22147   */\n      swap1\n      pop\n        /* \"#utility.yul\":22080:22153   */\n      swap1\n      jump\t// out\n        /* \"#utility.yul\":22159:22348   */\n    tag_417:\n        /* \"#utility.yul\":22236:22268   */\n      tag_620\n      tag_416\n      jump\t// in\n    tag_620:\n        /* \"#utility.yul\":22277:22342   */\n      tag_621\n        /* \"#utility.yul\":22335:22341   */\n      dup2\n        /* \"#utility.yul\":22327:22333   */\n      dup5\n        /* \"#utility.yul\":22321:22325   */\n      dup5\n        /* \"#utility.yul\":22277:22342   */\n      tag_415\n      jump\t// in\n    tag_621:\n        /* \"#utility.yul\":22212:22348   */\n      pop\n        /* \"#utility.yul\":22159:22348   */\n      pop\n      pop\n      jump\t// out\n        /* \"#utility.yul\":22354:22540   */\n    tag_418:\n        /* \"#utility.yul\":22414:22534   */\n    tag_623:\n        /* \"#utility.yul\":22431:22434   */\n      dup2\n        /* \"#utility.yul\":22424:22429   */\n      dup2\n        /* \"#utility.yul\":22421:22435   */\n      lt\n        /* \"#utility.yul\":22414:22534   */\n      iszero\n      tag_625\n      jumpi\n        /* \"#utility.yul\":22485:22524   */\n      tag_626\n        /* \"#utility.yul\":22522:22523   */\n      0x00\n        /* \"#utility.yul\":22515:22520   */\n      dup3\n        /* \"#utility.yul\":22485:22524   */\n      tag_417\n      jump\t// in\n    tag_626:\n        /* \"#utility.yul\":22458:22459   */\n      0x01\n        /* \"#utility.yul\":22451:22456   */\n      dup2\n        /* \"#utility.yul\":22447:22460   */\n      add\n        /* \"#utility.yul\":22438:22460   */\n      swap1\n      pop\n        /* \"#utility.yul\":22414:22534   */\n      jump(tag_623)\n    tag_625:\n        /* \"#utility.yul\":22354:22540   */\n      pop\n      pop\n      jump\t// out\n        /* \"#utility.yul\":22546:23089   */\n    tag_419:\n        /* \"#utility.yul\":22647:22649   */\n      0x1f\n        /* \"#utility.yul\":22642:22645   */\n      dup3\n        /* \"#utility.yul\":22639:22650   */\n      gt\n        /* \"#utility.yul\":22636:23082   */\n      iszero\n      tag_628\n      jumpi\n        /* \"#utility.yul\":22681:22719   */\n      tag_629\n        /* \"#utility.yul\":22713:22718   */\n      dup2\n        /* \"#utility.yul\":22681:22719   */\n      tag_408\n      jump\t// in\n    tag_629:\n        /* \"#utility.yul\":22765:22794   */\n      tag_630\n        /* \"#utility.yul\":22783:22793   */\n      dup5\n        /* \"#utility.yul\":22765:22794   */\n      tag_409\n      jump\t// in\n    tag_630:\n        /* \"#utility.yul\":22755:22763   */\n      dup2\n        /* \"#utility.yul\":22751:22795   */\n      add\n        /* \"#utility.yul\":22948:22950   */\n      0x20\n        /* \"#utility.yul\":22936:22946   */\n      dup6\n        /* \"#utility.yul\":22933:22951   */\n      lt\n        /* \"#utility.yul\":22930:22979   */\n      iszero\n      tag_631\n      jumpi\n        /* \"#utility.yul\":22969:22977   */\n      dup2\n        /* \"#utility.yul\":22954:22977   */\n      swap1\n      pop\n        /* \"#utility.yul\":22930:22979   */\n    tag_631:\n        /* \"#utility.yul\":22992:23072   */\n      tag_632\n        /* \"#utility.yul\":23048:23070   */\n      tag_633\n        /* \"#utility.yul\":23066:23069   */\n      dup6\n        /* \"#utility.yul\":23048:23070   */\n      tag_409\n      jump\t// in\n    tag_633:\n        /* \"#utility.yul\":23038:23046   */\n      dup4\n        /* \"#utility.yul\":23034:23071   */\n      add\n        /* \"#utility.yul\":23021:23032   */\n      dup3\n        /* \"#utility.yul\":22992:23072   */\n      tag_418\n      jump\t// in\n    tag_632:\n        /* \"#utility.yul\":22651:23082   */\n      pop\n      pop\n        /* \"#utility.yul\":22636:23082   */\n    tag_628:\n        /* \"#utility.yul\":22546:23089   */\n      pop\n      pop\n      pop\n      jump\t// out\n        /* \"#utility.yul\":23095:23212   */\n    tag_420:\n        /* \"#utility.yul\":23149:23157   */\n      0x00\n        /* \"#utility.yul\":23199:23204   */\n      dup3\n        /* \"#utility.yul\":23193:23197   */\n      dup3\n        /* \"#utility.yul\":23189:23205   */\n      shr\n        /* \"#utility.yul\":23168:23205   */\n      swap1\n      pop\n        /* \"#utility.yul\":23095:23212   */\n      swap3\n      swap2\n      pop\n      pop\n      jump\t// out\n        /* \"#utility.yul\":23218:23387   */\n    tag_421:\n        /* \"#utility.yul\":23262:23268   */\n      0x00\n        /* \"#utility.yul\":23295:23346   */\n      tag_636\n        /* \"#utility.yul\":23343:23344   */\n      0x00\n        /* \"#utility.yul\":23339:23345   */\n      not\n        /* \"#utility.yul\":23331:23336   */\n      dup5\n        /* \"#utility.yul\":23328:23329   */\n      0x08\n        /* \"#utility.yul\":23324:23337   */\n      mul\n        /* \"#utility.yul\":23295:23346   */\n      tag_420\n      jump\t// in\n    tag_636:\n        /* \"#utility.yul\":23291:23347   */\n      not\n        /* \"#utility.yul\":23376:23380   */\n      dup1\n        /* \"#utility.yul\":23370:23374   */\n      dup4\n        /* \"#utility.yul\":23366:23381   */\n      and\n        /* \"#utility.yul\":23356:23381   */\n      swap2\n      pop\n        /* \"#utility.yul\":23269:23387   */\n      pop\n        /* \"#utility.yul\":23218:23387   */\n      swap3\n      swap2\n      pop\n      pop\n      jump\t// out\n        /* \"#utility.yul\":23392:23687   */\n    tag_422:\n        /* \"#utility.yul\":23468:23472   */\n      0x00\n        /* \"#utility.yul\":23614:23643   */\n      tag_638\n        /* \"#utility.yul\":23639:23642   */\n      dup4\n        /* \"#utility.yul\":23633:23637   */\n      dup4\n        /* \"#utility.yul\":23614:23643   */\n      tag_421\n      jump\t// in\n    tag_638:\n        /* \"#utility.yul\":23606:23643   */\n      swap2\n      pop\n        /* \"#utility.yul\":23676:23679   */\n      dup3\n        /* \"#utility.yul\":23673:23674   */\n      0x02\n        /* \"#utility.yul\":23669:23680   */\n      mul\n        /* \"#utility.yul\":23663:23667   */\n      dup3\n        /* \"#utility.yul\":23660:23681   */\n      or\n        /* \"#utility.yul\":23652:23681   */\n      swap1\n      pop\n        /* \"#utility.yul\":23392:23687   */\n      swap3\n      swap2\n      pop\n      pop\n      jump\t// out\n        /* \"#utility.yul\":23692:25087   */\n    tag_307:\n        /* \"#utility.yul\":23809:23846   */\n      tag_640\n        /* \"#utility.yul\":23842:23845   */\n      dup3\n        /* \"#utility.yul\":23809:23846   */\n      tag_365\n      jump\t// in\n    tag_640:\n        /* \"#utility.yul\":23911:23929   */\n      0xffffffffffffffff\n        /* \"#utility.yul\":23903:23909   */\n      dup2\n        /* \"#utility.yul\":23900:23930   */\n      gt\n        /* \"#utility.yul\":23897:23953   */\n      iszero\n      tag_641\n      jumpi\n        /* \"#utility.yul\":23933:23951   */\n      tag_642\n      tag_407\n      jump\t// in\n    tag_642:\n        /* \"#utility.yul\":23897:23953   */\n    tag_641:\n        /* \"#utility.yul\":23977:24015   */\n      tag_643\n        /* \"#utility.yul\":24009:24013   */\n      dup3\n        /* \"#utility.yul\":24003:24014   */\n      sload\n        /* \"#utility.yul\":23977:24015   */\n      tag_162\n      jump\t// in\n    tag_643:\n        /* \"#utility.yul\":24062:24129   */\n      tag_644\n        /* \"#utility.yul\":24122:24128   */\n      dup3\n        /* \"#utility.yul\":24114:24120   */\n      dup3\n        /* \"#utility.yul\":24108:24112   */\n      dup6\n        /* \"#utility.yul\":24062:24129   */\n      tag_419\n      jump\t// in\n    tag_644:\n        /* \"#utility.yul\":24156:24157   */\n      0x00\n        /* \"#utility.yul\":24180:24184   */\n      0x20\n        /* \"#utility.yul\":24167:24184   */\n      swap1\n      pop\n        /* \"#utility.yul\":24212:24214   */\n      0x1f\n        /* \"#utility.yul\":24204:24210   */\n      dup4\n        /* \"#utility.yul\":24201:24215   */\n      gt\n        /* \"#utility.yul\":24229:24230   */\n      0x01\n        /* \"#utility.yul\":24224:24842   */\n      dup2\n      eq\n      tag_646\n      jumpi\n        /* \"#utility.yul\":24886:24887   */\n      0x00\n        /* \"#utility.yul\":24903:24909   */\n      dup5\n        /* \"#utility.yul\":24900:24977   */\n      iszero\n      tag_647\n      jumpi\n        /* \"#utility.yul\":24952:24961   */\n      dup3\n        /* \"#utility.yul\":24947:24950   */\n      dup8\n        /* \"#utility.yul\":24943:24962   */\n      add\n        /* \"#utility.yul\":24937:24963   */\n      mload\n        /* \"#utility.yul\":24928:24963   */\n      swap1\n      pop\n        /* \"#utility.yul\":24900:24977   */\n    tag_647:\n        /* \"#utility.yul\":25003:25070   */\n      tag_648\n        /* \"#utility.yul\":25063:25069   */\n      dup6\n        /* \"#utility.yul\":25056:25061   */\n      dup3\n        /* \"#utility.yul\":25003:25070   */\n      tag_422\n      jump\t// in\n    tag_648:\n        /* \"#utility.yul\":24997:25001   */\n      dup7\n        /* \"#utility.yul\":24990:25071   */\n      sstore\n        /* \"#utility.yul\":24859:25081   */\n      pop\n        /* \"#utility.yul\":24194:25081   */\n      jump(tag_645)\n        /* \"#utility.yul\":24224:24842   */\n    tag_646:\n        /* \"#utility.yul\":24276:24280   */\n      0x1f\n        /* \"#utility.yul\":24272:24281   */\n      not\n        /* \"#utility.yul\":24264:24270   */\n      dup5\n        /* \"#utility.yul\":24260:24282   */\n      and\n        /* \"#utility.yul\":24310:24347   */\n      tag_649\n        /* \"#utility.yul\":24342:24346   */\n      dup7\n        /* \"#utility.yul\":24310:24347   */\n      tag_408\n      jump\t// in\n    tag_649:\n        /* \"#utility.yul\":24369:24370   */\n      0x00\n        /* \"#utility.yul\":24383:24591   */\n    tag_650:\n        /* \"#utility.yul\":24397:24404   */\n      dup3\n        /* \"#utility.yul\":24394:24395   */\n      dup2\n        /* \"#utility.yul\":24391:24405   */\n      lt\n        /* \"#utility.yul\":24383:24591   */\n      iszero\n      tag_652\n      jumpi\n        /* \"#utility.yul\":24476:24485   */\n      dup5\n        /* \"#utility.yul\":24471:24474   */\n      dup10\n        /* \"#utility.yul\":24467:24486   */\n      add\n        /* \"#utility.yul\":24461:24487   */\n      mload\n        /* \"#utility.yul\":24453:24459   */\n      dup3\n        /* \"#utility.yul\":24446:24488   */\n      sstore\n        /* \"#utility.yul\":24527:24528   */\n      0x01\n        /* \"#utility.yul\":24519:24525   */\n      dup3\n        /* \"#utility.yul\":24515:24529   */\n      add\n        /* \"#utility.yul\":24505:24529   */\n      swap2\n      pop\n        /* \"#utility.yul\":24574:24576   */\n      0x20\n        /* \"#utility.yul\":24563:24572   */\n      dup6\n        /* \"#utility.yul\":24559:24577   */\n      add\n        /* \"#utility.yul\":24546:24577   */\n      swap5\n      pop\n        /* \"#utility.yul\":24420:24424   */\n      0x20\n        /* \"#utility.yul\":24417:24418   */\n      dup2\n        /* \"#utility.yul\":24413:24425   */\n      add\n        /* \"#utility.yul\":24408:24425   */\n      swap1\n      pop\n        /* \"#utility.yul\":24383:24591   */\n      jump(tag_650)\n    tag_652:\n        /* \"#utility.yul\":24619:24625   */\n      dup7\n        /* \"#utility.yul\":24610:24617   */\n      dup4\n        /* \"#utility.yul\":24607:24626   */\n      lt\n        /* \"#utility.yul\":24604:24783   */\n      iszero\n      tag_653\n      jumpi\n        /* \"#utility.yul\":24677:24686   */\n      dup5\n        /* \"#utility.yul\":24672:24675   */\n      dup10\n        /* \"#utility.yul\":24668:24687   */\n      add\n        /* \"#utility.yul\":24662:24688   */\n      mload\n        /* \"#utility.yul\":24720:24768   */\n      tag_654\n        /* \"#utility.yul\":24762:24766   */\n      0x1f\n        /* \"#utility.yul\":24754:24760   */\n      dup10\n        /* \"#utility.yul\":24750:24767   */\n      and\n        /* \"#utility.yul\":24739:24748   */\n      dup3\n        /* \"#utility.yul\":24720:24768   */\n      tag_421\n      jump\t// in\n    tag_654:\n        /* \"#utility.yul\":24712:24718   */\n      dup4\n        /* \"#utility.yul\":24705:24769   */\n      sstore\n        /* \"#utility.yul\":24627:24783   */\n      pop\n        /* \"#utility.yul\":24604:24783   */\n    tag_653:\n        /* \"#utility.yul\":24829:24830   */\n      0x01\n        /* \"#utility.yul\":24825:24826   */\n      0x02\n        /* \"#utility.yul\":24817:24823   */\n      dup9\n        /* \"#utility.yul\":24813:24827   */\n      mul\n        /* \"#utility.yul\":24809:24831   */\n      add\n        /* \"#utility.yul\":24803:24807   */\n      dup9\n        /* \"#utility.yul\":24796:24832   */\n      sstore\n        /* \"#utility.yul\":24231:24842   */\n      pop\n      pop\n      pop\n        /* \"#utility.yul\":24194:25081   */\n    tag_645:\n      pop\n        /* \"#utility.yul\":23784:25087   */\n      pop\n      pop\n      pop\n        /* \"#utility.yul\":23692:25087   */\n      pop\n      pop\n      jump\t// out\n        /* \"#utility.yul\":25093:25287   */\n    tag_309:\n        /* \"#utility.yul\":25133:25137   */\n      0x00\n        /* \"#utility.yul\":25153:25173   */\n      tag_656\n        /* \"#utility.yul\":25171:25172   */\n      dup3\n        /* \"#utility.yul\":25153:25173   */\n      tag_355\n      jump\t// in\n    tag_656:\n        /* \"#utility.yul\":25148:25173   */\n      swap2\n      pop\n        /* \"#utility.yul\":25187:25207   */\n      tag_657\n        /* \"#utility.yul\":25205:25206   */\n      dup4\n        /* \"#utility.yul\":25187:25207   */\n      tag_355\n      jump\t// in\n    tag_657:\n        /* \"#utility.yul\":25182:25207   */\n      swap3\n      pop\n        /* \"#utility.yul\":25231:25232   */\n      dup3\n        /* \"#utility.yul\":25228:25229   */\n      dup3\n        /* \"#utility.yul\":25224:25233   */\n      sub\n        /* \"#utility.yul\":25216:25233   */\n      swap1\n      pop\n        /* \"#utility.yul\":25255:25256   */\n      dup2\n        /* \"#utility.yul\":25249:25253   */\n      dup2\n        /* \"#utility.yul\":25246:25257   */\n      gt\n        /* \"#utility.yul\":25243:25280   */\n      iszero\n      tag_658\n      jumpi\n        /* \"#utility.yul\":25260:25278   */\n      tag_659\n      tag_400\n      jump\t// in\n    tag_659:\n        /* \"#utility.yul\":25243:25280   */\n    tag_658:\n        /* \"#utility.yul\":25093:25287   */\n      swap3\n      swap2\n      pop\n      pop\n      jump\t// out\n        /* \"#utility.yul\":25293:25515   */\n    tag_312:\n        /* \"#utility.yul\":25386:25390   */\n      0x00\n        /* \"#utility.yul\":25424:25426   */\n      0x20\n        /* \"#utility.yul\":25413:25422   */\n      dup3\n        /* \"#utility.yul\":25409:25427   */\n      add\n        /* \"#utility.yul\":25401:25427   */\n      swap1\n      pop\n        /* \"#utility.yul\":25437:25508   */\n      tag_661\n        /* \"#utility.yul\":25505:25506   */\n      0x00\n        /* \"#utility.yul\":25494:25503   */\n      dup4\n        /* \"#utility.yul\":25490:25507   */\n      add\n        /* \"#utility.yul\":25481:25487   */\n      dup5\n        /* \"#utility.yul\":25437:25508   */\n      tag_401\n      jump\t// in\n    tag_661:\n        /* \"#utility.yul\":25293:25515   */\n      swap3\n      swap2\n      pop\n      pop\n      jump\t// out\n\n    auxdata: 0xa2646970667358221220e4a0418e140874b186aece8397bacfa030cc8369d3c57d245b44cbf7181b6ed864736f6c634300081c0033\n}\n",
				"bytecode": {
					"linkReferences": {},
					"object": "608060405234801561000f575f5ffd5b50335f73ffffffffffffffffffffffffffffffffffffffff168173ffffffffffffffffffffffffffffffffffffffff1603610081575f6040517f1e4fbdf70000000000000000000000000000000000000000000000000000000081526004016100789190610265565b60405180910390fd5b6100908161016560201b60201c565b5060405180606001604052806001151581526020015f151581526020015f81525060015f3373ffffffffffffffffffffffffffffffffffffffff1673ffffffffffffffffffffffffffffffffffffffff1681526020019081526020015f205f820151815f015f6101000a81548160ff0219169083151502179055506020820151815f0160016101000a81548160ff021916908315150217905550604082015181600101559050505f60075f6101000a81548160ff0219169083600581111561015b5761015a61027e565b5b02179055506102ab565b5f5f5f9054906101000a900473ffffffffffffffffffffffffffffffffffffffff169050815f5f6101000a81548173ffffffffffffffffffffffffffffffffffffffff021916908373ffffffffffffffffffffffffffffffffffffffff1602179055508173ffffffffffffffffffffffffffffffffffffffff168173ffffffffffffffffffffffffffffffffffffffff167f8be0079c531659141344cd1fd0a4f28419497f9722a3daafe3b4186f6b6457e060405160405180910390a35050565b5f73ffffffffffffffffffffffffffffffffffffffff82169050919050565b5f61024f82610226565b9050919050565b61025f81610245565b82525050565b5f6020820190506102785f830184610256565b92915050565b7f4e487b71000000000000000000000000000000000000000000000000000000005f52602160045260245ffd5b612825806102b85f395ff3fe608060405234801561000f575f5ffd5b5060043610610114575f3560e01c8063a10cfae5116100a0578063cdd722531161006f578063cdd7225314610222578063e09b8c7914610240578063e5349fe81461024a578063ee74c67814610266578063f2fde38b1461027057610114565b8063a10cfae5146101d2578063a5134620146101f0578063a7bfab161461020e578063b647990a1461021857610114565b80636c297445116100e75780636c29744514610178578063715018a614610182578063856e698c1461018c5780638da5cb5b146101965780638e7ea5b2146101b457610114565b80630121b93f14610118578063378a21781461013457806343dc3ab21461013e57806362564c481461015a575b5f5ffd5b610132600480360381019061012d9190611b89565b61028c565b005b61013c610531565b005b61015860048036038101906101539190611c15565b6105ad565b005b61016261091f565b60405161016f9190611dd4565b60405180910390f35b610180610b1a565b005b61018a610b96565b005b610194610ba9565b005b61019e610d6c565b6040516101ab9190611e33565b60405180910390f35b6101bc610d93565b6040516101c99190611e33565b60405180910390f35b6101da610f1a565b6040516101e79190611ebf565b60405180910390f35b6101f8610fbc565b6040516102059190611f12565b60405180910390f35b6102166111dd565b005b610220611259565b005b61022a611417565b6040516102379190611fe9565b60405180910390f35b61024861152f565b005b610264600480360381019061025f9190612088565b6115aa565b005b61026e611805565b005b61028a600480360381019061028591906120e5565b611881565b005b60075f9054906101000a900460ff1660038060058111156102b0576102af611e4c565b5b8260058111156102c3576102c2611e4c565b5b14610303576040517f08c379a00000000000000000000000000000000000000000000000000000000081526004016102fa90612190565b60405180910390fd5b3360015f8273ffffffffffffffffffffffffffffffffffffffff1673ffffffffffffffffffffffffffffffffffffffff1681526020019081526020015f205f015f9054906101000a900460ff1661038f576040517f08c379a0000000000000000000000000000000000000000000000000000000008152600401610386906121f8565b60405180910390fd5b60015f3373ffffffffffffffffffffffffffffffffffffffff1673ffffffffffffffffffffffffffffffffffffffff1681526020019081526020015f205f0160019054906101000a900460ff161561041c576040517f08c379a000000000000000000000000000000000000000000000000000000000815260040161041390612286565b60405180910390fd5b6001805f3373ffffffffffffffffffffffffffffffffffffffff1673ffffffffffffffffffffffffffffffffffffffff1681526020019081526020015f205f0160016101000a81548160ff0219169083151502179055508360015f3373ffffffffffffffffffffffffffffffffffffffff1673ffffffffffffffffffffffffffffffffffffffff1681526020019081526020015f20600101819055506001600385815481106104ce576104cd6122a4565b5b905f5260205f2090600202016001015f8282546104eb91906122fe565b925050819055507f4d99b957a2bc29a30ebd96a7be8e68fe50a3c701db28a91436490b7d53870ca43385604051610523929190612340565b60405180910390a150505050565b610539611905565b600560075f6101000a81548160ff0219169083600581111561055e5761055d611e4c565b5b02179055507f0a97a4ee45751e2abf3e4fc8946939630b11b371ea8ae39ccdc3056e98f5cc3f600460075f9054906101000a900460ff166040516105a3929190612367565b60405180910390a1565b6105b5611905565b60075f9054906101000a900460ff165f8060058111156105d8576105d7611e4c565b5b8260058111156105eb576105ea611e4c565b5b1461062b576040517f08c379a000000000000000000000000000000000000000000000000000000000815260040161062290612190565b60405180910390fd5b5f8484905011610670576040517f08c379a0000000000000000000000000000000000000000000000000000000008152600401610667906123d8565b60405180910390fd5b5f5b848490508110156109185760015f868684818110610693576106926122a4565b5b90506020020160208101906106a891906120e5565b73ffffffffffffffffffffffffffffffffffffffff1673ffffffffffffffffffffffffffffffffffffffff1681526020019081526020015f205f015f9054906101000a900460ff1615610758577fc501dbfd9728024faba6134c46be8337745e19067dac2a0503f57d8f9f89d5f0858583818110610729576107286122a4565b5b905060200201602081019061073e91906120e5565b60405161074b9190611e33565b60405180910390a161090b565b60405180606001604052806001151581526020015f151581526020015f81525060015f87878581811061078e5761078d6122a4565b5b90506020020160208101906107a391906120e5565b73ffffffffffffffffffffffffffffffffffffffff1673ffffffffffffffffffffffffffffffffffffffff1681526020019081526020015f205f820151815f015f6101000a81548160ff0219169083151502179055506020820151815f0160016101000a81548160ff02191690831515021790555060408201518160010155905050600485858381811061083a576108396122a4565b5b905060200201602081019061084f91906120e5565b908060018154018082558091505060019003905f5260205f20015f9091909190916101000a81548173ffffffffffffffffffffffffffffffffffffffff021916908373ffffffffffffffffffffffffffffffffffffffff1602179055507fb6be2187d059cc2a55fe29e0e503b566e1e0f8c8780096e185429350acffd3dd8585838181106108e0576108df6122a4565b5b90506020020160208101906108f591906120e5565b6040516109029190611e33565b60405180910390a15b8080600101915050610672565b5050505050565b606060075f9054906101000a900460ff16600380600581111561094557610944611e4c565b5b82600581111561095857610957611e4c565b5b14610998576040517f08c379a000000000000000000000000000000000000000000000000000000000815260040161098f90612190565b60405180910390fd5b3360015f8273ffffffffffffffffffffffffffffffffffffffff1673ffffffffffffffffffffffffffffffffffffffff1681526020019081526020015f205f015f9054906101000a900460ff16610a24576040517f08c379a0000000000000000000000000000000000000000000000000000000008152600401610a1b906121f8565b60405180910390fd5b6003805480602002602001604051908101604052809291908181526020015f905b82821015610b0e578382905f5260205f2090600202016040518060400160405290815f82018054610a7590612423565b80601f0160208091040260200160405190810160405280929190818152602001828054610aa190612423565b8015610aec5780601f10610ac357610100808354040283529160200191610aec565b820191905f5260205f20905b815481529060010190602001808311610acf57829003601f168201915b5050505050815260200160018201548152505081526020019060010190610a45565b50505050935050505090565b610b22611905565b600260075f6101000a81548160ff02191690836005811115610b4757610b46611e4c565b5b02179055507f0a97a4ee45751e2abf3e4fc8946939630b11b371ea8ae39ccdc3056e98f5cc3f600160075f9054906101000a900460ff16604051610b8c929190612367565b60405180910390a1565b610b9e611905565b610ba75f61198c565b565b610bb1611905565b5f5f90505b600480549050811015610c775760015f60048381548110610bda57610bd96122a4565b5b905f5260205f20015f9054906101000a900473ffffffffffffffffffffffffffffffffffffffff1673ffffffffffffffffffffffffffffffffffffffff1673ffffffffffffffffffffffffffffffffffffffff1681526020019081526020015f205f5f82015f6101000a81549060ff02191690555f820160016101000a81549060ff0219169055600182015f905550508080600101915050610bb6565b5060045f610c859190611a54565b5f5f90505b600380549050811015610cd75760025f8281526020019081526020015f205f6101000a81549073ffffffffffffffffffffffffffffffffffffffff02191690558080600101915050610c8a565b5060035f610ce59190611a72565b60065f610cf29190611a93565b5f6005819055505f60075f6101000a81548160ff02191690836005811115610d1d57610d1c611e4c565b5b02179055507f0a97a4ee45751e2abf3e4fc8946939630b11b371ea8ae39ccdc3056e98f5cc3f600560075f9054906101000a900460ff16604051610d62929190612367565b60405180910390a1565b5f5f5f9054906101000a900473ffffffffffffffffffffffffffffffffffffffff16905090565b5f60075f9054906101000a900460ff166005806005811115610db857610db7611e4c565b5b826005811115610dcb57610dca611e4c565b5b14610e0b576040517f08c379a0000000000000000000000000000000000000000000000000000000008152600401610e0290612190565b60405180910390fd5b3360015f8273ffffffffffffffffffffffffffffffffffffffff1673ffffffffffffffffffffffffffffffffffffffff1681526020019081526020015f205f015f9054906101000a900460ff16610e97576040517f08c379a0000000000000000000000000000000000000000000000000000000008152600401610e8e906121f8565b60405180910390fd5b600160068054905014610edf576040517f08c379a0000000000000000000000000000000000000000000000000000000008152600401610ed6906124e9565b60405180910390fd5b60025f60055481526020019081526020015f205f9054906101000a900473ffffffffffffffffffffffffffffffffffffffff16935050505090565b5f3360015f8273ffffffffffffffffffffffffffffffffffffffff1673ffffffffffffffffffffffffffffffffffffffff1681526020019081526020015f205f015f9054906101000a900460ff16610fa7576040517f08c379a0000000000000000000000000000000000000000000000000000000008152600401610f9e906121f8565b60405180910390fd5b60075f9054906101000a900460ff1691505090565b610fc4611ab1565b60075f9054906101000a900460ff166005806005811115610fe857610fe7611e4c565b5b826005811115610ffb57610ffa611e4c565b5b1461103b576040517f08c379a000000000000000000000000000000000000000000000000000000000815260040161103290612190565b60405180910390fd5b3360015f8273ffffffffffffffffffffffffffffffffffffffff1673ffffffffffffffffffffffffffffffffffffffff1681526020019081526020015f205f015f9054906101000a900460ff166110c7576040517f08c379a00000000000000000000000000000000000000000000000000000000081526004016110be906121f8565b60405180910390fd5b60016006805490501461110f576040517f08c379a0000000000000000000000000000000000000000000000000000000008152600401611106906124e9565b60405180910390fd5b600360055481548110611125576111246122a4565b5b905f5260205f2090600202016040518060400160405290815f8201805461114b90612423565b80601f016020809104026020016040519081016040528092919081815260200182805461117790612423565b80156111c25780601f10611199576101008083540402835291602001916111c2565b820191905f5260205f20905b8154815290600101906020018083116111a557829003601f168201915b50505050508152602001600182015481525050935050505090565b6111e5611905565b600460075f6101000a81548160ff0219169083600581111561120a57611209611e4c565b5b02179055507f0a97a4ee45751e2abf3e4fc8946939630b11b371ea8ae39ccdc3056e98f5cc3f600360075f9054906101000a900460ff1660405161124f929190612367565b60405180910390a1565b60075f9054906101000a900460ff16600480600581111561127d5761127c611e4c565b5b8260058111156112905761128f611e4c565b5b146112d0576040517f08c379a00000000000000000000000000000000000000000000000000000000081526004016112c790612190565b60405180910390fd5b6112d8611905565b5f60065f6112e69190611a93565b5f5f90505b6003805490508110156113e057816003828154811061130d5761130c6122a4565b5b905f5260205f2090600202016001015411156113815760038181548110611337576113366122a4565b5b905f5260205f20906002020160010154915060065f6113569190611a93565b600681908060018154018082558091505060019003905f5260205f20015f90919091909150556113d3565b8160038281548110611396576113956122a4565b5b905f5260205f20906002020160010154036113d257600681908060018154018082558091505060019003905f5260205f20015f90919091909150555b5b80806001019150506112eb565b506001600680549050036114125760065f81548110611402576114016122a4565b5b905f5260205f2001546005819055505b505050565b60603360015f8273ffffffffffffffffffffffffffffffffffffffff1673ffffffffffffffffffffffffffffffffffffffff1681526020019081526020015f205f015f9054906101000a900460ff166114a5576040517f08c379a000000000000000000000000000000000000000000000000000000000815260040161149c906121f8565b60405180910390fd5b600480548060200260200160405190810160405280929190818152602001828054801561152457602002820191905f5260205f20905b815f9054906101000a900473ffffffffffffffffffffffffffffffffffffffff1673ffffffffffffffffffffffffffffffffffffffff16815260200190600101908083116114db575b505050505091505090565b611537611905565b600160075f6101000a81548160ff0219169083600581111561155c5761155b611e4c565b5b02179055507f0a97a4ee45751e2abf3e4fc8946939630b11b371ea8ae39ccdc3056e98f5cc3f5f60075f9054906101000a900460ff166040516115a0929190612367565b60405180910390a1565b6115b2611905565b60075f9054906101000a900460ff1660018060058111156115d6576115d5611e4c565b5b8260058111156115e9576115e8611e4c565b5b14611629576040517f08c379a000000000000000000000000000000000000000000000000000000000815260040161162090612190565b60405180910390fd5b8460015f8273ffffffffffffffffffffffffffffffffffffffff1673ffffffffffffffffffffffffffffffffffffffff1681526020019081526020015f205f015f9054906101000a900460ff166116b5576040517f08c379a00000000000000000000000000000000000000000000000000000000081526004016116ac906121f8565b60405180910390fd5b6003604051806040016040528087878080601f0160208091040260200160405190810160405280939291908181526020018383808284375f81840152601f19601f8201169050808301925050505050505081526020015f815250908060018154018082558091505060019003905f5260205f2090600202015f909190919091505f820151815f01908161174891906126d4565b506020820151816001015550508560025f600160038054905061176b91906127a3565b81526020019081526020015f205f6101000a81548173ffffffffffffffffffffffffffffffffffffffff021916908373ffffffffffffffffffffffffffffffffffffffff1602179055507f92e393e9b54e2f801d3ea4beb0c5e71a21cc34a5d34b77d0fb8a3aa1650dc18f60016003805490506117e891906127a3565b6040516117f591906127d6565b60405180910390a1505050505050565b61180d611905565b600360075f6101000a81548160ff0219169083600581111561183257611831611e4c565b5b02179055507f0a97a4ee45751e2abf3e4fc8946939630b11b371ea8ae39ccdc3056e98f5cc3f600260075f9054906101000a900460ff16604051611877929190612367565b60405180910390a1565b611889611905565b5f73ffffffffffffffffffffffffffffffffffffffff168173ffffffffffffffffffffffffffffffffffffffff16036118f9575f6040517f1e4fbdf70000000000000000000000000000000000000000000000000000000081526004016118f09190611e33565b60405180910390fd5b6119028161198c565b50565b61190d611a4d565b73ffffffffffffffffffffffffffffffffffffffff1661192b610d6c565b73ffffffffffffffffffffffffffffffffffffffff161461198a5761194e611a4d565b6040517f118cdaa70000000000000000000000000000000000000000000000000000000081526004016119819190611e33565b60405180910390fd5b565b5f5f5f9054906101000a900473ffffffffffffffffffffffffffffffffffffffff169050815f5f6101000a81548173ffffffffffffffffffffffffffffffffffffffff021916908373ffffffffffffffffffffffffffffffffffffffff1602179055508173ffffffffffffffffffffffffffffffffffffffff168173ffffffffffffffffffffffffffffffffffffffff167f8be0079c531659141344cd1fd0a4f28419497f9722a3daafe3b4186f6b6457e060405160405180910390a35050565b5f33905090565b5080545f8255905f5260205f2090810190611a6f9190611aca565b50565b5080545f8255600202905f5260205f2090810190611a909190611ae5565b50565b5080545f8255905f5260205f2090810190611aae9190611aca565b50565b6040518060400160405280606081526020015f81525090565b5b80821115611ae1575f815f905550600101611acb565b5090565b5b80821115611b0d575f5f82015f611afd9190611b11565b600182015f905550600201611ae6565b5090565b508054611b1d90612423565b5f825580601f10611b2e5750611b4b565b601f0160209004905f5260205f2090810190611b4a9190611aca565b5b50565b5f5ffd5b5f5ffd5b5f819050919050565b611b6881611b56565b8114611b72575f5ffd5b50565b5f81359050611b8381611b5f565b92915050565b5f60208284031215611b9e57611b9d611b4e565b5b5f611bab84828501611b75565b91505092915050565b5f5ffd5b5f5ffd5b5f5ffd5b5f5f83601f840112611bd557611bd4611bb4565b5b8235905067ffffffffffffffff811115611bf257611bf1611bb8565b5b602083019150836020820283011115611c0e57611c0d611bbc565b5b9250929050565b5f5f60208385031215611c2b57611c2a611b4e565b5b5f83013567ffffffffffffffff811115611c4857611c47611b52565b5b611c5485828601611bc0565b92509250509250929050565b5f81519050919050565b5f82825260208201905092915050565b5f819050602082019050919050565b5f81519050919050565b5f82825260208201905092915050565b8281835e5f83830152505050565b5f601f19601f8301169050919050565b5f611ccb82611c89565b611cd58185611c93565b9350611ce5818560208601611ca3565b611cee81611cb1565b840191505092915050565b611d0281611b56565b82525050565b5f604083015f8301518482035f860152611d228282611cc1565b9150506020830151611d376020860182611cf9565b508091505092915050565b5f611d4d8383611d08565b905092915050565b5f602082019050919050565b5f611d6b82611c60565b611d758185611c6a565b935083602082028501611d8785611c7a565b805f5b85811015611dc25784840389528151611da38582611d42565b9450611dae83611d55565b925060208a01995050600181019050611d8a565b50829750879550505050505092915050565b5f6020820190508181035f830152611dec8184611d61565b905092915050565b5f73ffffffffffffffffffffffffffffffffffffffff82169050919050565b5f611e1d82611df4565b9050919050565b611e2d81611e13565b82525050565b5f602082019050611e465f830184611e24565b92915050565b7f4e487b71000000000000000000000000000000000000000000000000000000005f52602160045260245ffd5b60068110611e8a57611e89611e4c565b5b50565b5f819050611e9a82611e79565b919050565b5f611ea982611e8d565b9050919050565b611eb981611e9f565b82525050565b5f602082019050611ed25f830184611eb0565b92915050565b5f604083015f8301518482035f860152611ef28282611cc1565b9150506020830151611f076020860182611cf9565b508091505092915050565b5f6020820190508181035f830152611f2a8184611ed8565b905092915050565b5f81519050919050565b5f82825260208201905092915050565b5f819050602082019050919050565b611f6481611e13565b82525050565b5f611f758383611f5b565b60208301905092915050565b5f602082019050919050565b5f611f9782611f32565b611fa18185611f3c565b9350611fac83611f4c565b805f5b83811015611fdc578151611fc38882611f6a565b9750611fce83611f81565b925050600181019050611faf565b5085935050505092915050565b5f6020820190508181035f8301526120018184611f8d565b905092915050565b61201281611e13565b811461201c575f5ffd5b50565b5f8135905061202d81612009565b92915050565b5f5f83601f84011261204857612047611bb4565b5b8235905067ffffffffffffffff81111561206557612064611bb8565b5b60208301915083600182028301111561208157612080611bbc565b5b9250929050565b5f5f5f6040848603121561209f5761209e611b4e565b5b5f6120ac8682870161201f565b935050602084013567ffffffffffffffff8111156120cd576120cc611b52565b5b6120d986828701612033565b92509250509250925092565b5f602082840312156120fa576120f9611b4e565b5b5f6121078482850161201f565b91505092915050565b5f82825260208201905092915050565b7f5468697320616374696f6e206973206e6f7420617661696c61626c65206174205f8201527f74686973207374616765206f66207468652062616c6c6f740000000000000000602082015250565b5f61217a603883612110565b915061218582612120565b604082019050919050565b5f6020820190508181035f8301526121a78161216e565b9050919050565b7f566f746572206973206e6f7420726567697374657265640000000000000000005f82015250565b5f6121e2601783612110565b91506121ed826121ae565b602082019050919050565b5f6020820190508181035f83015261220f816121d6565b9050919050565b7f566f746572206973206e6f7420616c6c6f77656420746f20766f7465207477695f8201527f6365000000000000000000000000000000000000000000000000000000000000602082015250565b5f612270602283612110565b915061227b82612216565b604082019050919050565b5f6020820190508181035f83015261229d81612264565b9050919050565b7f4e487b71000000000000000000000000000000000000000000000000000000005f52603260045260245ffd5b7f4e487b71000000000000000000000000000000000000000000000000000000005f52601160045260245ffd5b5f61230882611b56565b915061231383611b56565b925082820190508082111561232b5761232a6122d1565b5b92915050565b61233a81611b56565b82525050565b5f6040820190506123535f830185611e24565b6123606020830184612331565b9392505050565b5f60408201905061237a5f830185611eb0565b6123876020830184611eb0565b9392505050565b7f4e6f20766f746572732070726f766964656400000000000000000000000000005f82015250565b5f6123c2601283612110565b91506123cd8261238e565b602082019050919050565b5f6020820190508181035f8301526123ef816123b6565b9050919050565b7f4e487b71000000000000000000000000000000000000000000000000000000005f52602260045260245ffd5b5f600282049050600182168061243a57607f821691505b60208210810361244d5761244c6123f6565b5b50919050565b7f54686520766f746520726571756972657320616e6f7468657220726f756e64205f8201527f617320736f6d652070726f706f73616c73206861766520656e64656420696e2060208201527f6120746965000000000000000000000000000000000000000000000000000000604082015250565b5f6124d3604583612110565b91506124de82612453565b606082019050919050565b5f6020820190508181035f830152612500816124c7565b9050919050565b7f4e487b71000000000000000000000000000000000000000000000000000000005f52604160045260245ffd5b5f819050815f5260205f209050919050565b5f6020601f8301049050919050565b5f82821b905092915050565b5f600883026125907fffffffffffffffffffffffffffffffffffffffffffffffffffffffffffffffff82612555565b61259a8683612555565b95508019841693508086168417925050509392505050565b5f819050919050565b5f6125d56125d06125cb84611b56565b6125b2565b611b56565b9050919050565b5f819050919050565b6125ee836125bb565b6126026125fa826125dc565b848454612561565b825550505050565b5f5f905090565b61261961260a565b6126248184846125e5565b505050565b5b818110156126475761263c5f82612611565b60018101905061262a565b5050565b601f82111561268c5761265d81612534565b61266684612546565b81016020851015612675578190505b61268961268185612546565b830182612629565b50505b505050565b5f82821c905092915050565b5f6126ac5f1984600802612691565b1980831691505092915050565b5f6126c4838361269d565b9150826002028217905092915050565b6126dd82611c89565b67ffffffffffffffff8111156126f6576126f5612507565b5b6127008254612423565b61270b82828561264b565b5f60209050601f83116001811461273c575f841561272a578287015190505b61273485826126b9565b86555061279b565b601f19841661274a86612534565b5f5b828110156127715784890151825560018201915060208501945060208101905061274c565b8683101561278e578489015161278a601f89168261269d565b8355505b6001600288020188555050505b505050505050565b5f6127ad82611b56565b91506127b883611b56565b92508282039050818111156127d0576127cf6122d1565b5b92915050565b5f6020820190506127e95f830184612331565b9291505056fea2646970667358221220e4a0418e140874b186aece8397bacfa030cc8369d3c57d245b44cbf7181b6ed864736f6c634300081c0033",
					"opcodes": "PUSH1 0x80 PUSH1 0x40 MSTORE CALLVALUE DUP1 ISZERO PUSH2 0xF JUMPI PUSH0 PUSH0 REVERT JUMPDEST POP CALLER PUSH0 PUSH20 0xFFFFFFFFFFFFFFFFFFFFFFFFFFFFFFFFFFFFFFFF AND DUP2 PUSH20 0xFFFFFFFFFFFFFFFFFFFFFFFFFFFFFFFFFFFFFFFF AND SUB PUSH2 0x81 JUMPI PUSH0 PUSH1 0x40 MLOAD PUSH32 0x1E4FBDF700000000000000000000000000000000000000000000000000000000 DUP2 MSTORE PUSH1 0x4 ADD PUSH2 0x78 SWAP2 SWAP1 PUSH2 0x265 JUMP JUMPDEST PUSH1 0x40 MLOAD DUP1 SWAP2 SUB SWAP1 REVERT JUMPDEST PUSH2 0x90 DUP2 PUSH2 0x165 PUSH1 0x20 SHL PUSH1 0x20 SHR JUMP JUMPDEST POP PUSH1 0x40 MLOAD DUP1 PUSH1 0x60 ADD PUSH1 0x40 MSTORE DUP1 PUSH1 0x1 ISZERO ISZERO DUP2 MSTORE PUSH1 0x20 ADD PUSH0 ISZERO ISZERO DUP2 MSTORE PUSH1 0x20 ADD PUSH0 DUP2 MSTORE POP PUSH1 0x1 PUSH0 CALLER PUSH20 0xFFFFFFFFFFFFFFFFFFFFFFFFFFFFFFFFFFFFFFFF AND PUSH20 0xFFFFFFFFFFFFFFFFFFFFFFFFFFFFFFFFFFFFFFFF AND DUP2 MSTORE PUSH1 0x20 ADD SWAP1 DUP2 MSTORE PUSH1 0x20 ADD PUSH0 KECCAK256 PUSH0 DUP3 ADD MLOAD DUP2 PUSH0 ADD PUSH0 PUSH2 0x100 EXP DUP2 SLOAD DUP2 PUSH1 0xFF MUL NOT AND SWAP1 DUP4 ISZERO ISZERO MUL OR SWAP1 SSTORE POP PUSH1 0x20 DUP3 ADD MLOAD DUP2 PUSH0 ADD PUSH1 0x1 PUSH2 0x100 EXP DUP2 SLOAD DUP2 PUSH1 0xFF MUL NOT AND SWAP1 DUP4 ISZERO ISZERO MUL OR SWAP1 SSTORE POP PUSH1 0x40 DUP3 ADD MLOAD DUP2 PUSH1 0x1 ADD SSTORE SWAP1 POP POP PUSH0 PUSH1 0x7 PUSH0 PUSH2 0x100 EXP DUP2 SLOAD DUP2 PUSH1 0xFF MUL NOT AND SWAP1 DUP4 PUSH1 0x5 DUP2 GT ISZERO PUSH2 0x15B JUMPI PUSH2 0x15A PUSH2 0x27E JUMP JUMPDEST JUMPDEST MUL OR SWAP1 SSTORE POP PUSH2 0x2AB JUMP JUMPDEST PUSH0 PUSH0 PUSH0 SWAP1 SLOAD SWAP1 PUSH2 0x100 EXP SWAP1 DIV PUSH20 0xFFFFFFFFFFFFFFFFFFFFFFFFFFFFFFFFFFFFFFFF AND SWAP1 POP DUP2 PUSH0 PUSH0 PUSH2 0x100 EXP DUP2 SLOAD DUP2 PUSH20 0xFFFFFFFFFFFFFFFFFFFFFFFFFFFFFFFFFFFFFFFF MUL NOT AND SWAP1 DUP4 PUSH20 0xFFFFFFFFFFFFFFFFFFFFFFFFFFFFFFFFFFFFFFFF AND MUL OR SWAP1 SSTORE POP DUP2 PUSH20 0xFFFFFFFFFFFFFFFFFFFFFFFFFFFFFFFFFFFFFFFF AND DUP2 PUSH20 0xFFFFFFFFFFFFFFFFFFFFFFFFFFFFFFFFFFFFFFFF AND PUSH32 0x8BE0079C531659141344CD1FD0A4F28419497F9722A3DAAFE3B4186F6B6457E0 PUSH1 0x40 MLOAD PUSH1 0x40 MLOAD DUP1 SWAP2 SUB SWAP1 LOG3 POP POP JUMP JUMPDEST PUSH0 PUSH20 0xFFFFFFFFFFFFFFFFFFFFFFFFFFFFFFFFFFFFFFFF DUP3 AND SWAP1 POP SWAP2 SWAP1 POP JUMP JUMPDEST PUSH0 PUSH2 0x24F DUP3 PUSH2 0x226 JUMP JUMPDEST SWAP1 POP SWAP2 SWAP1 POP JUMP JUMPDEST PUSH2 0x25F DUP2 PUSH2 0x245 JUMP JUMPDEST DUP3 MSTORE POP POP JUMP JUMPDEST PUSH0 PUSH1 0x20 DUP3 ADD SWAP1 POP PUSH2 0x278 PUSH0 DUP4 ADD DUP5 PUSH2 0x256 JUMP JUMPDEST SWAP3 SWAP2 POP POP JUMP JUMPDEST PUSH32 0x4E487B7100000000000000000000000000000000000000000000000000000000 PUSH0 MSTORE PUSH1 0x21 PUSH1 0x4 MSTORE PUSH1 0x24 PUSH0 REVERT JUMPDEST PUSH2 0x2825 DUP1 PUSH2 0x2B8 PUSH0 CODECOPY PUSH0 RETURN INVALID PUSH1 0x80 PUSH1 0x40 MSTORE CALLVALUE DUP1 ISZERO PUSH2 0xF JUMPI PUSH0 PUSH0 REVERT JUMPDEST POP PUSH1 0x4 CALLDATASIZE LT PUSH2 0x114 JUMPI PUSH0 CALLDATALOAD PUSH1 0xE0 SHR DUP1 PUSH4 0xA10CFAE5 GT PUSH2 0xA0 JUMPI DUP1 PUSH4 0xCDD72253 GT PUSH2 0x6F JUMPI DUP1 PUSH4 0xCDD72253 EQ PUSH2 0x222 JUMPI DUP1 PUSH4 0xE09B8C79 EQ PUSH2 0x240 JUMPI DUP1 PUSH4 0xE5349FE8 EQ PUSH2 0x24A JUMPI DUP1 PUSH4 0xEE74C678 EQ PUSH2 0x266 JUMPI DUP1 PUSH4 0xF2FDE38B EQ PUSH2 0x270 JUMPI PUSH2 0x114 JUMP JUMPDEST DUP1 PUSH4 0xA10CFAE5 EQ PUSH2 0x1D2 JUMPI DUP1 PUSH4 0xA5134620 EQ PUSH2 0x1F0 JUMPI DUP1 PUSH4 0xA7BFAB16 EQ PUSH2 0x20E JUMPI DUP1 PUSH4 0xB647990A EQ PUSH2 0x218 JUMPI PUSH2 0x114 JUMP JUMPDEST DUP1 PUSH4 0x6C297445 GT PUSH2 0xE7 JUMPI DUP1 PUSH4 0x6C297445 EQ PUSH2 0x178 JUMPI DUP1 PUSH4 0x715018A6 EQ PUSH2 0x182 JUMPI DUP1 PUSH4 0x856E698C EQ PUSH2 0x18C JUMPI DUP1 PUSH4 0x8DA5CB5B EQ PUSH2 0x196 JUMPI DUP1 PUSH4 0x8E7EA5B2 EQ PUSH2 0x1B4 JUMPI PUSH2 0x114 JUMP JUMPDEST DUP1 PUSH4 0x121B93F EQ PUSH2 0x118 JUMPI DUP1 PUSH4 0x378A2178 EQ PUSH2 0x134 JUMPI DUP1 PUSH4 0x43DC3AB2 EQ PUSH2 0x13E JUMPI DUP1 PUSH4 0x62564C48 EQ PUSH2 0x15A JUMPI JUMPDEST PUSH0 PUSH0 REVERT JUMPDEST PUSH2 0x132 PUSH1 0x4 DUP1 CALLDATASIZE SUB DUP2 ADD SWAP1 PUSH2 0x12D SWAP2 SWAP1 PUSH2 0x1B89 JUMP JUMPDEST PUSH2 0x28C JUMP JUMPDEST STOP JUMPDEST PUSH2 0x13C PUSH2 0x531 JUMP JUMPDEST STOP JUMPDEST PUSH2 0x158 PUSH1 0x4 DUP1 CALLDATASIZE SUB DUP2 ADD SWAP1 PUSH2 0x153 SWAP2 SWAP1 PUSH2 0x1C15 JUMP JUMPDEST PUSH2 0x5AD JUMP JUMPDEST STOP JUMPDEST PUSH2 0x162 PUSH2 0x91F JUMP JUMPDEST PUSH1 0x40 MLOAD PUSH2 0x16F SWAP2 SWAP1 PUSH2 0x1DD4 JUMP JUMPDEST PUSH1 0x40 MLOAD DUP1 SWAP2 SUB SWAP1 RETURN JUMPDEST PUSH2 0x180 PUSH2 0xB1A JUMP JUMPDEST STOP JUMPDEST PUSH2 0x18A PUSH2 0xB96 JUMP JUMPDEST STOP JUMPDEST PUSH2 0x194 PUSH2 0xBA9 JUMP JUMPDEST STOP JUMPDEST PUSH2 0x19E PUSH2 0xD6C JUMP JUMPDEST PUSH1 0x40 MLOAD PUSH2 0x1AB SWAP2 SWAP1 PUSH2 0x1E33 JUMP JUMPDEST PUSH1 0x40 MLOAD DUP1 SWAP2 SUB SWAP1 RETURN JUMPDEST PUSH2 0x1BC PUSH2 0xD93 JUMP JUMPDEST PUSH1 0x40 MLOAD PUSH2 0x1C9 SWAP2 SWAP1 PUSH2 0x1E33 JUMP JUMPDEST PUSH1 0x40 MLOAD DUP1 SWAP2 SUB SWAP1 RETURN JUMPDEST PUSH2 0x1DA PUSH2 0xF1A JUMP JUMPDEST PUSH1 0x40 MLOAD PUSH2 0x1E7 SWAP2 SWAP1 PUSH2 0x1EBF JUMP JUMPDEST PUSH1 0x40 MLOAD DUP1 SWAP2 SUB SWAP1 RETURN JUMPDEST PUSH2 0x1F8 PUSH2 0xFBC JUMP JUMPDEST PUSH1 0x40 MLOAD PUSH2 0x205 SWAP2 SWAP1 PUSH2 0x1F12 JUMP JUMPDEST PUSH1 0x40 MLOAD DUP1 SWAP2 SUB SWAP1 RETURN JUMPDEST PUSH2 0x216 PUSH2 0x11DD JUMP JUMPDEST STOP JUMPDEST PUSH2 0x220 PUSH2 0x1259 JUMP JUMPDEST STOP JUMPDEST PUSH2 0x22A PUSH2 0x1417 JUMP JUMPDEST PUSH1 0x40 MLOAD PUSH2 0x237 SWAP2 SWAP1 PUSH2 0x1FE9 JUMP JUMPDEST PUSH1 0x40 MLOAD DUP1 SWAP2 SUB SWAP1 RETURN JUMPDEST PUSH2 0x248 PUSH2 0x152F JUMP JUMPDEST STOP JUMPDEST PUSH2 0x264 PUSH1 0x4 DUP1 CALLDATASIZE SUB DUP2 ADD SWAP1 PUSH2 0x25F SWAP2 SWAP1 PUSH2 0x2088 JUMP JUMPDEST PUSH2 0x15AA JUMP JUMPDEST STOP JUMPDEST PUSH2 0x26E PUSH2 0x1805 JUMP JUMPDEST STOP JUMPDEST PUSH2 0x28A PUSH1 0x4 DUP1 CALLDATASIZE SUB DUP2 ADD SWAP1 PUSH2 0x285 SWAP2 SWAP1 PUSH2 0x20E5 JUMP JUMPDEST PUSH2 0x1881 JUMP JUMPDEST STOP JUMPDEST PUSH1 0x7 PUSH0 SWAP1 SLOAD SWAP1 PUSH2 0x100 EXP SWAP1 DIV PUSH1 0xFF AND PUSH1 0x3 DUP1 PUSH1 0x5 DUP2 GT ISZERO PUSH2 0x2B0 JUMPI PUSH2 0x2AF PUSH2 0x1E4C JUMP JUMPDEST JUMPDEST DUP3 PUSH1 0x5 DUP2 GT ISZERO PUSH2 0x2C3 JUMPI PUSH2 0x2C2 PUSH2 0x1E4C JUMP JUMPDEST JUMPDEST EQ PUSH2 0x303 JUMPI PUSH1 0x40 MLOAD PUSH32 0x8C379A000000000000000000000000000000000000000000000000000000000 DUP2 MSTORE PUSH1 0x4 ADD PUSH2 0x2FA SWAP1 PUSH2 0x2190 JUMP JUMPDEST PUSH1 0x40 MLOAD DUP1 SWAP2 SUB SWAP1 REVERT JUMPDEST CALLER PUSH1 0x1 PUSH0 DUP3 PUSH20 0xFFFFFFFFFFFFFFFFFFFFFFFFFFFFFFFFFFFFFFFF AND PUSH20 0xFFFFFFFFFFFFFFFFFFFFFFFFFFFFFFFFFFFFFFFF AND DUP2 MSTORE PUSH1 0x20 ADD SWAP1 DUP2 MSTORE PUSH1 0x20 ADD PUSH0 KECCAK256 PUSH0 ADD PUSH0 SWAP1 SLOAD SWAP1 PUSH2 0x100 EXP SWAP1 DIV PUSH1 0xFF AND PUSH2 0x38F JUMPI PUSH1 0x40 MLOAD PUSH32 0x8C379A000000000000000000000000000000000000000000000000000000000 DUP2 MSTORE PUSH1 0x4 ADD PUSH2 0x386 SWAP1 PUSH2 0x21F8 JUMP JUMPDEST PUSH1 0x40 MLOAD DUP1 SWAP2 SUB SWAP1 REVERT JUMPDEST PUSH1 0x1 PUSH0 CALLER PUSH20 0xFFFFFFFFFFFFFFFFFFFFFFFFFFFFFFFFFFFFFFFF AND PUSH20 0xFFFFFFFFFFFFFFFFFFFFFFFFFFFFFFFFFFFFFFFF AND DUP2 MSTORE PUSH1 0x20 ADD SWAP1 DUP2 MSTORE PUSH1 0x20 ADD PUSH0 KECCAK256 PUSH0 ADD PUSH1 0x1 SWAP1 SLOAD SWAP1 PUSH2 0x100 EXP SWAP1 DIV PUSH1 0xFF AND ISZERO PUSH2 0x41C JUMPI PUSH1 0x40 MLOAD PUSH32 0x8C379A000000000000000000000000000000000000000000000000000000000 DUP2 MSTORE PUSH1 0x4 ADD PUSH2 0x413 SWAP1 PUSH2 0x2286 JUMP JUMPDEST PUSH1 0x40 MLOAD DUP1 SWAP2 SUB SWAP1 REVERT JUMPDEST PUSH1 0x1 DUP1 PUSH0 CALLER PUSH20 0xFFFFFFFFFFFFFFFFFFFFFFFFFFFFFFFFFFFFFFFF AND PUSH20 0xFFFFFFFFFFFFFFFFFFFFFFFFFFFFFFFFFFFFFFFF AND DUP2 MSTORE PUSH1 0x20 ADD SWAP1 DUP2 MSTORE PUSH1 0x20 ADD PUSH0 KECCAK256 PUSH0 ADD PUSH1 0x1 PUSH2 0x100 EXP DUP2 SLOAD DUP2 PUSH1 0xFF MUL NOT AND SWAP1 DUP4 ISZERO ISZERO MUL OR SWAP1 SSTORE POP DUP4 PUSH1 0x1 PUSH0 CALLER PUSH20 0xFFFFFFFFFFFFFFFFFFFFFFFFFFFFFFFFFFFFFFFF AND PUSH20 0xFFFFFFFFFFFFFFFFFFFFFFFFFFFFFFFFFFFFFFFF AND DUP2 MSTORE PUSH1 0x20 ADD SWAP1 DUP2 MSTORE PUSH1 0x20 ADD PUSH0 KECCAK256 PUSH1 0x1 ADD DUP2 SWAP1 SSTORE POP PUSH1 0x1 PUSH1 0x3 DUP6 DUP2 SLOAD DUP2 LT PUSH2 0x4CE JUMPI PUSH2 0x4CD PUSH2 0x22A4 JUMP JUMPDEST JUMPDEST SWAP1 PUSH0 MSTORE PUSH1 0x20 PUSH0 KECCAK256 SWAP1 PUSH1 0x2 MUL ADD PUSH1 0x1 ADD PUSH0 DUP3 DUP3 SLOAD PUSH2 0x4EB SWAP2 SWAP1 PUSH2 0x22FE JUMP JUMPDEST SWAP3 POP POP DUP2 SWAP1 SSTORE POP PUSH32 0x4D99B957A2BC29A30EBD96A7BE8E68FE50A3C701DB28A91436490B7D53870CA4 CALLER DUP6 PUSH1 0x40 MLOAD PUSH2 0x523 SWAP3 SWAP2 SWAP1 PUSH2 0x2340 JUMP JUMPDEST PUSH1 0x40 MLOAD DUP1 SWAP2 SUB SWAP1 LOG1 POP POP POP POP JUMP JUMPDEST PUSH2 0x539 PUSH2 0x1905 JUMP JUMPDEST PUSH1 0x5 PUSH1 0x7 PUSH0 PUSH2 0x100 EXP DUP2 SLOAD DUP2 PUSH1 0xFF MUL NOT AND SWAP1 DUP4 PUSH1 0x5 DUP2 GT ISZERO PUSH2 0x55E JUMPI PUSH2 0x55D PUSH2 0x1E4C JUMP JUMPDEST JUMPDEST MUL OR SWAP1 SSTORE POP PUSH32 0xA97A4EE45751E2ABF3E4FC8946939630B11B371EA8AE39CCDC3056E98F5CC3F PUSH1 0x4 PUSH1 0x7 PUSH0 SWAP1 SLOAD SWAP1 PUSH2 0x100 EXP SWAP1 DIV PUSH1 0xFF AND PUSH1 0x40 MLOAD PUSH2 0x5A3 SWAP3 SWAP2 SWAP1 PUSH2 0x2367 JUMP JUMPDEST PUSH1 0x40 MLOAD DUP1 SWAP2 SUB SWAP1 LOG1 JUMP JUMPDEST PUSH2 0x5B5 PUSH2 0x1905 JUMP JUMPDEST PUSH1 0x7 PUSH0 SWAP1 SLOAD SWAP1 PUSH2 0x100 EXP SWAP1 DIV PUSH1 0xFF AND PUSH0 DUP1 PUSH1 0x5 DUP2 GT ISZERO PUSH2 0x5D8 JUMPI PUSH2 0x5D7 PUSH2 0x1E4C JUMP JUMPDEST JUMPDEST DUP3 PUSH1 0x5 DUP2 GT ISZERO PUSH2 0x5EB JUMPI PUSH2 0x5EA PUSH2 0x1E4C JUMP JUMPDEST JUMPDEST EQ PUSH2 0x62B JUMPI PUSH1 0x40 MLOAD PUSH32 0x8C379A000000000000000000000000000000000000000000000000000000000 DUP2 MSTORE PUSH1 0x4 ADD PUSH2 0x622 SWAP1 PUSH2 0x2190 JUMP JUMPDEST PUSH1 0x40 MLOAD DUP1 SWAP2 SUB SWAP1 REVERT JUMPDEST PUSH0 DUP5 DUP5 SWAP1 POP GT PUSH2 0x670 JUMPI PUSH1 0x40 MLOAD PUSH32 0x8C379A000000000000000000000000000000000000000000000000000000000 DUP2 MSTORE PUSH1 0x4 ADD PUSH2 0x667 SWAP1 PUSH2 0x23D8 JUMP JUMPDEST PUSH1 0x40 MLOAD DUP1 SWAP2 SUB SWAP1 REVERT JUMPDEST PUSH0 JUMPDEST DUP5 DUP5 SWAP1 POP DUP2 LT ISZERO PUSH2 0x918 JUMPI PUSH1 0x1 PUSH0 DUP7 DUP7 DUP5 DUP2 DUP2 LT PUSH2 0x693 JUMPI PUSH2 0x692 PUSH2 0x22A4 JUMP JUMPDEST JUMPDEST SWAP1 POP PUSH1 0x20 MUL ADD PUSH1 0x20 DUP2 ADD SWAP1 PUSH2 0x6A8 SWAP2 SWAP1 PUSH2 0x20E5 JUMP JUMPDEST PUSH20 0xFFFFFFFFFFFFFFFFFFFFFFFFFFFFFFFFFFFFFFFF AND PUSH20 0xFFFFFFFFFFFFFFFFFFFFFFFFFFFFFFFFFFFFFFFF AND DUP2 MSTORE PUSH1 0x20 ADD SWAP1 DUP2 MSTORE PUSH1 0x20 ADD PUSH0 KECCAK256 PUSH0 ADD PUSH0 SWAP1 SLOAD SWAP1 PUSH2 0x100 EXP SWAP1 DIV PUSH1 0xFF AND ISZERO PUSH2 0x758 JUMPI PUSH32 0xC501DBFD9728024FABA6134C46BE8337745E19067DAC2A0503F57D8F9F89D5F0 DUP6 DUP6 DUP4 DUP2 DUP2 LT PUSH2 0x729 JUMPI PUSH2 0x728 PUSH2 0x22A4 JUMP JUMPDEST JUMPDEST SWAP1 POP PUSH1 0x20 MUL ADD PUSH1 0x20 DUP2 ADD SWAP1 PUSH2 0x73E SWAP2 SWAP1 PUSH2 0x20E5 JUMP JUMPDEST PUSH1 0x40 MLOAD PUSH2 0x74B SWAP2 SWAP1 PUSH2 0x1E33 JUMP JUMPDEST PUSH1 0x40 MLOAD DUP1 SWAP2 SUB SWAP1 LOG1 PUSH2 0x90B JUMP JUMPDEST PUSH1 0x40 MLOAD DUP1 PUSH1 0x60 ADD PUSH1 0x40 MSTORE DUP1 PUSH1 0x1 ISZERO ISZERO DUP2 MSTORE PUSH1 0x20 ADD PUSH0 ISZERO ISZERO DUP2 MSTORE PUSH1 0x20 ADD PUSH0 DUP2 MSTORE POP PUSH1 0x1 PUSH0 DUP8 DUP8 DUP6 DUP2 DUP2 LT PUSH2 0x78E JUMPI PUSH2 0x78D PUSH2 0x22A4 JUMP JUMPDEST JUMPDEST SWAP1 POP PUSH1 0x20 MUL ADD PUSH1 0x20 DUP2 ADD SWAP1 PUSH2 0x7A3 SWAP2 SWAP1 PUSH2 0x20E5 JUMP JUMPDEST PUSH20 0xFFFFFFFFFFFFFFFFFFFFFFFFFFFFFFFFFFFFFFFF AND PUSH20 0xFFFFFFFFFFFFFFFFFFFFFFFFFFFFFFFFFFFFFFFF AND DUP2 MSTORE PUSH1 0x20 ADD SWAP1 DUP2 MSTORE PUSH1 0x20 ADD PUSH0 KECCAK256 PUSH0 DUP3 ADD MLOAD DUP2 PUSH0 ADD PUSH0 PUSH2 0x100 EXP DUP2 SLOAD DUP2 PUSH1 0xFF MUL NOT AND SWAP1 DUP4 ISZERO ISZERO MUL OR SWAP1 SSTORE POP PUSH1 0x20 DUP3 ADD MLOAD DUP2 PUSH0 ADD PUSH1 0x1 PUSH2 0x100 EXP DUP2 SLOAD DUP2 PUSH1 0xFF MUL NOT AND SWAP1 DUP4 ISZERO ISZERO MUL OR SWAP1 SSTORE POP PUSH1 0x40 DUP3 ADD MLOAD DUP2 PUSH1 0x1 ADD SSTORE SWAP1 POP POP PUSH1 0x4 DUP6 DUP6 DUP4 DUP2 DUP2 LT PUSH2 0x83A JUMPI PUSH2 0x839 PUSH2 0x22A4 JUMP JUMPDEST JUMPDEST SWAP1 POP PUSH1 0x20 MUL ADD PUSH1 0x20 DUP2 ADD SWAP1 PUSH2 0x84F SWAP2 SWAP1 PUSH2 0x20E5 JUMP JUMPDEST SWAP1 DUP1 PUSH1 0x1 DUP2 SLOAD ADD DUP1 DUP3 SSTORE DUP1 SWAP2 POP POP PUSH1 0x1 SWAP1 SUB SWAP1 PUSH0 MSTORE PUSH1 0x20 PUSH0 KECCAK256 ADD PUSH0 SWAP1 SWAP2 SWAP1 SWAP2 SWAP1 SWAP2 PUSH2 0x100 EXP DUP2 SLOAD DUP2 PUSH20 0xFFFFFFFFFFFFFFFFFFFFFFFFFFFFFFFFFFFFFFFF MUL NOT AND SWAP1 DUP4 PUSH20 0xFFFFFFFFFFFFFFFFFFFFFFFFFFFFFFFFFFFFFFFF AND MUL OR SWAP1 SSTORE POP PUSH32 0xB6BE2187D059CC2A55FE29E0E503B566E1E0F8C8780096E185429350ACFFD3DD DUP6 DUP6 DUP4 DUP2 DUP2 LT PUSH2 0x8E0 JUMPI PUSH2 0x8DF PUSH2 0x22A4 JUMP JUMPDEST JUMPDEST SWAP1 POP PUSH1 0x20 MUL ADD PUSH1 0x20 DUP2 ADD SWAP1 PUSH2 0x8F5 SWAP2 SWAP1 PUSH2 0x20E5 JUMP JUMPDEST PUSH1 0x40 MLOAD PUSH2 0x902 SWAP2 SWAP1 PUSH2 0x1E33 JUMP JUMPDEST PUSH1 0x40 MLOAD DUP1 SWAP2 SUB SWAP1 LOG1 JUMPDEST DUP1 DUP1 PUSH1 0x1 ADD SWAP2 POP POP PUSH2 0x672 JUMP JUMPDEST POP POP POP POP POP JUMP JUMPDEST PUSH1 0x60 PUSH1 0x7 PUSH0 SWAP1 SLOAD SWAP1 PUSH2 0x100 EXP SWAP1 DIV PUSH1 0xFF AND PUSH1 0x3 DUP1 PUSH1 0x5 DUP2 GT ISZERO PUSH2 0x945 JUMPI PUSH2 0x944 PUSH2 0x1E4C JUMP JUMPDEST JUMPDEST DUP3 PUSH1 0x5 DUP2 GT ISZERO PUSH2 0x958 JUMPI PUSH2 0x957 PUSH2 0x1E4C JUMP JUMPDEST JUMPDEST EQ PUSH2 0x998 JUMPI PUSH1 0x40 MLOAD PUSH32 0x8C379A000000000000000000000000000000000000000000000000000000000 DUP2 MSTORE PUSH1 0x4 ADD PUSH2 0x98F SWAP1 PUSH2 0x2190 JUMP JUMPDEST PUSH1 0x40 MLOAD DUP1 SWAP2 SUB SWAP1 REVERT JUMPDEST CALLER PUSH1 0x1 PUSH0 DUP3 PUSH20 0xFFFFFFFFFFFFFFFFFFFFFFFFFFFFFFFFFFFFFFFF AND PUSH20 0xFFFFFFFFFFFFFFFFFFFFFFFFFFFFFFFFFFFFFFFF AND DUP2 MSTORE PUSH1 0x20 ADD SWAP1 DUP2 MSTORE PUSH1 0x20 ADD PUSH0 KECCAK256 PUSH0 ADD PUSH0 SWAP1 SLOAD SWAP1 PUSH2 0x100 EXP SWAP1 DIV PUSH1 0xFF AND PUSH2 0xA24 JUMPI PUSH1 0x40 MLOAD PUSH32 0x8C379A000000000000000000000000000000000000000000000000000000000 DUP2 MSTORE PUSH1 0x4 ADD PUSH2 0xA1B SWAP1 PUSH2 0x21F8 JUMP JUMPDEST PUSH1 0x40 MLOAD DUP1 SWAP2 SUB SWAP1 REVERT JUMPDEST PUSH1 0x3 DUP1 SLOAD DUP1 PUSH1 0x20 MUL PUSH1 0x20 ADD PUSH1 0x40 MLOAD SWAP1 DUP2 ADD PUSH1 0x40 MSTORE DUP1 SWAP3 SWAP2 SWAP1 DUP2 DUP2 MSTORE PUSH1 0x20 ADD PUSH0 SWAP1 JUMPDEST DUP3 DUP3 LT ISZERO PUSH2 0xB0E JUMPI DUP4 DUP3 SWAP1 PUSH0 MSTORE PUSH1 0x20 PUSH0 KECCAK256 SWAP1 PUSH1 0x2 MUL ADD PUSH1 0x40 MLOAD DUP1 PUSH1 0x40 ADD PUSH1 0x40 MSTORE SWAP1 DUP2 PUSH0 DUP3 ADD DUP1 SLOAD PUSH2 0xA75 SWAP1 PUSH2 0x2423 JUMP JUMPDEST DUP1 PUSH1 0x1F ADD PUSH1 0x20 DUP1 SWAP2 DIV MUL PUSH1 0x20 ADD PUSH1 0x40 MLOAD SWAP1 DUP2 ADD PUSH1 0x40 MSTORE DUP1 SWAP3 SWAP2 SWAP1 DUP2 DUP2 MSTORE PUSH1 0x20 ADD DUP3 DUP1 SLOAD PUSH2 0xAA1 SWAP1 PUSH2 0x2423 JUMP JUMPDEST DUP1 ISZERO PUSH2 0xAEC JUMPI DUP1 PUSH1 0x1F LT PUSH2 0xAC3 JUMPI PUSH2 0x100 DUP1 DUP4 SLOAD DIV MUL DUP4 MSTORE SWAP2 PUSH1 0x20 ADD SWAP2 PUSH2 0xAEC JUMP JUMPDEST DUP3 ADD SWAP2 SWAP1 PUSH0 MSTORE PUSH1 0x20 PUSH0 KECCAK256 SWAP1 JUMPDEST DUP2 SLOAD DUP2 MSTORE SWAP1 PUSH1 0x1 ADD SWAP1 PUSH1 0x20 ADD DUP1 DUP4 GT PUSH2 0xACF JUMPI DUP3 SWAP1 SUB PUSH1 0x1F AND DUP3 ADD SWAP2 JUMPDEST POP POP POP POP POP DUP2 MSTORE PUSH1 0x20 ADD PUSH1 0x1 DUP3 ADD SLOAD DUP2 MSTORE POP POP DUP2 MSTORE PUSH1 0x20 ADD SWAP1 PUSH1 0x1 ADD SWAP1 PUSH2 0xA45 JUMP JUMPDEST POP POP POP POP SWAP4 POP POP POP POP SWAP1 JUMP JUMPDEST PUSH2 0xB22 PUSH2 0x1905 JUMP JUMPDEST PUSH1 0x2 PUSH1 0x7 PUSH0 PUSH2 0x100 EXP DUP2 SLOAD DUP2 PUSH1 0xFF MUL NOT AND SWAP1 DUP4 PUSH1 0x5 DUP2 GT ISZERO PUSH2 0xB47 JUMPI PUSH2 0xB46 PUSH2 0x1E4C JUMP JUMPDEST JUMPDEST MUL OR SWAP1 SSTORE POP PUSH32 0xA97A4EE45751E2ABF3E4FC8946939630B11B371EA8AE39CCDC3056E98F5CC3F PUSH1 0x1 PUSH1 0x7 PUSH0 SWAP1 SLOAD SWAP1 PUSH2 0x100 EXP SWAP1 DIV PUSH1 0xFF AND PUSH1 0x40 MLOAD PUSH2 0xB8C SWAP3 SWAP2 SWAP1 PUSH2 0x2367 JUMP JUMPDEST PUSH1 0x40 MLOAD DUP1 SWAP2 SUB SWAP1 LOG1 JUMP JUMPDEST PUSH2 0xB9E PUSH2 0x1905 JUMP JUMPDEST PUSH2 0xBA7 PUSH0 PUSH2 0x198C JUMP JUMPDEST JUMP JUMPDEST PUSH2 0xBB1 PUSH2 0x1905 JUMP JUMPDEST PUSH0 PUSH0 SWAP1 POP JUMPDEST PUSH1 0x4 DUP1 SLOAD SWAP1 POP DUP2 LT ISZERO PUSH2 0xC77 JUMPI PUSH1 0x1 PUSH0 PUSH1 0x4 DUP4 DUP2 SLOAD DUP2 LT PUSH2 0xBDA JUMPI PUSH2 0xBD9 PUSH2 0x22A4 JUMP JUMPDEST JUMPDEST SWAP1 PUSH0 MSTORE PUSH1 0x20 PUSH0 KECCAK256 ADD PUSH0 SWAP1 SLOAD SWAP1 PUSH2 0x100 EXP SWAP1 DIV PUSH20 0xFFFFFFFFFFFFFFFFFFFFFFFFFFFFFFFFFFFFFFFF AND PUSH20 0xFFFFFFFFFFFFFFFFFFFFFFFFFFFFFFFFFFFFFFFF AND PUSH20 0xFFFFFFFFFFFFFFFFFFFFFFFFFFFFFFFFFFFFFFFF AND DUP2 MSTORE PUSH1 0x20 ADD SWAP1 DUP2 MSTORE PUSH1 0x20 ADD PUSH0 KECCAK256 PUSH0 PUSH0 DUP3 ADD PUSH0 PUSH2 0x100 EXP DUP2 SLOAD SWAP1 PUSH1 0xFF MUL NOT AND SWAP1 SSTORE PUSH0 DUP3 ADD PUSH1 0x1 PUSH2 0x100 EXP DUP2 SLOAD SWAP1 PUSH1 0xFF MUL NOT AND SWAP1 SSTORE PUSH1 0x1 DUP3 ADD PUSH0 SWAP1 SSTORE POP POP DUP1 DUP1 PUSH1 0x1 ADD SWAP2 POP POP PUSH2 0xBB6 JUMP JUMPDEST POP PUSH1 0x4 PUSH0 PUSH2 0xC85 SWAP2 SWAP1 PUSH2 0x1A54 JUMP JUMPDEST PUSH0 PUSH0 SWAP1 POP JUMPDEST PUSH1 0x3 DUP1 SLOAD SWAP1 POP DUP2 LT ISZERO PUSH2 0xCD7 JUMPI PUSH1 0x2 PUSH0 DUP3 DUP2 MSTORE PUSH1 0x20 ADD SWAP1 DUP2 MSTORE PUSH1 0x20 ADD PUSH0 KECCAK256 PUSH0 PUSH2 0x100 EXP DUP2 SLOAD SWAP1 PUSH20 0xFFFFFFFFFFFFFFFFFFFFFFFFFFFFFFFFFFFFFFFF MUL NOT AND SWAP1 SSTORE DUP1 DUP1 PUSH1 0x1 ADD SWAP2 POP POP PUSH2 0xC8A JUMP JUMPDEST POP PUSH1 0x3 PUSH0 PUSH2 0xCE5 SWAP2 SWAP1 PUSH2 0x1A72 JUMP JUMPDEST PUSH1 0x6 PUSH0 PUSH2 0xCF2 SWAP2 SWAP1 PUSH2 0x1A93 JUMP JUMPDEST PUSH0 PUSH1 0x5 DUP2 SWAP1 SSTORE POP PUSH0 PUSH1 0x7 PUSH0 PUSH2 0x100 EXP DUP2 SLOAD DUP2 PUSH1 0xFF MUL NOT AND SWAP1 DUP4 PUSH1 0x5 DUP2 GT ISZERO PUSH2 0xD1D JUMPI PUSH2 0xD1C PUSH2 0x1E4C JUMP JUMPDEST JUMPDEST MUL OR SWAP1 SSTORE POP PUSH32 0xA97A4EE45751E2ABF3E4FC8946939630B11B371EA8AE39CCDC3056E98F5CC3F PUSH1 0x5 PUSH1 0x7 PUSH0 SWAP1 SLOAD SWAP1 PUSH2 0x100 EXP SWAP1 DIV PUSH1 0xFF AND PUSH1 0x40 MLOAD PUSH2 0xD62 SWAP3 SWAP2 SWAP1 PUSH2 0x2367 JUMP JUMPDEST PUSH1 0x40 MLOAD DUP1 SWAP2 SUB SWAP1 LOG1 JUMP JUMPDEST PUSH0 PUSH0 PUSH0 SWAP1 SLOAD SWAP1 PUSH2 0x100 EXP SWAP1 DIV PUSH20 0xFFFFFFFFFFFFFFFFFFFFFFFFFFFFFFFFFFFFFFFF AND SWAP1 POP SWAP1 JUMP JUMPDEST PUSH0 PUSH1 0x7 PUSH0 SWAP1 SLOAD SWAP1 PUSH2 0x100 EXP SWAP1 DIV PUSH1 0xFF AND PUSH1 0x5 DUP1 PUSH1 0x5 DUP2 GT ISZERO PUSH2 0xDB8 JUMPI PUSH2 0xDB7 PUSH2 0x1E4C JUMP JUMPDEST JUMPDEST DUP3 PUSH1 0x5 DUP2 GT ISZERO PUSH2 0xDCB JUMPI PUSH2 0xDCA PUSH2 0x1E4C JUMP JUMPDEST JUMPDEST EQ PUSH2 0xE0B JUMPI PUSH1 0x40 MLOAD PUSH32 0x8C379A000000000000000000000000000000000000000000000000000000000 DUP2 MSTORE PUSH1 0x4 ADD PUSH2 0xE02 SWAP1 PUSH2 0x2190 JUMP JUMPDEST PUSH1 0x40 MLOAD DUP1 SWAP2 SUB SWAP1 REVERT JUMPDEST CALLER PUSH1 0x1 PUSH0 DUP3 PUSH20 0xFFFFFFFFFFFFFFFFFFFFFFFFFFFFFFFFFFFFFFFF AND PUSH20 0xFFFFFFFFFFFFFFFFFFFFFFFFFFFFFFFFFFFFFFFF AND DUP2 MSTORE PUSH1 0x20 ADD SWAP1 DUP2 MSTORE PUSH1 0x20 ADD PUSH0 KECCAK256 PUSH0 ADD PUSH0 SWAP1 SLOAD SWAP1 PUSH2 0x100 EXP SWAP1 DIV PUSH1 0xFF AND PUSH2 0xE97 JUMPI PUSH1 0x40 MLOAD PUSH32 0x8C379A000000000000000000000000000000000000000000000000000000000 DUP2 MSTORE PUSH1 0x4 ADD PUSH2 0xE8E SWAP1 PUSH2 0x21F8 JUMP JUMPDEST PUSH1 0x40 MLOAD DUP1 SWAP2 SUB SWAP1 REVERT JUMPDEST PUSH1 0x1 PUSH1 0x6 DUP1 SLOAD SWAP1 POP EQ PUSH2 0xEDF JUMPI PUSH1 0x40 MLOAD PUSH32 0x8C379A000000000000000000000000000000000000000000000000000000000 DUP2 MSTORE PUSH1 0x4 ADD PUSH2 0xED6 SWAP1 PUSH2 0x24E9 JUMP JUMPDEST PUSH1 0x40 MLOAD DUP1 SWAP2 SUB SWAP1 REVERT JUMPDEST PUSH1 0x2 PUSH0 PUSH1 0x5 SLOAD DUP2 MSTORE PUSH1 0x20 ADD SWAP1 DUP2 MSTORE PUSH1 0x20 ADD PUSH0 KECCAK256 PUSH0 SWAP1 SLOAD SWAP1 PUSH2 0x100 EXP SWAP1 DIV PUSH20 0xFFFFFFFFFFFFFFFFFFFFFFFFFFFFFFFFFFFFFFFF AND SWAP4 POP POP POP POP SWAP1 JUMP JUMPDEST PUSH0 CALLER PUSH1 0x1 PUSH0 DUP3 PUSH20 0xFFFFFFFFFFFFFFFFFFFFFFFFFFFFFFFFFFFFFFFF AND PUSH20 0xFFFFFFFFFFFFFFFFFFFFFFFFFFFFFFFFFFFFFFFF AND DUP2 MSTORE PUSH1 0x20 ADD SWAP1 DUP2 MSTORE PUSH1 0x20 ADD PUSH0 KECCAK256 PUSH0 ADD PUSH0 SWAP1 SLOAD SWAP1 PUSH2 0x100 EXP SWAP1 DIV PUSH1 0xFF AND PUSH2 0xFA7 JUMPI PUSH1 0x40 MLOAD PUSH32 0x8C379A000000000000000000000000000000000000000000000000000000000 DUP2 MSTORE PUSH1 0x4 ADD PUSH2 0xF9E SWAP1 PUSH2 0x21F8 JUMP JUMPDEST PUSH1 0x40 MLOAD DUP1 SWAP2 SUB SWAP1 REVERT JUMPDEST PUSH1 0x7 PUSH0 SWAP1 SLOAD SWAP1 PUSH2 0x100 EXP SWAP1 DIV PUSH1 0xFF AND SWAP2 POP POP SWAP1 JUMP JUMPDEST PUSH2 0xFC4 PUSH2 0x1AB1 JUMP JUMPDEST PUSH1 0x7 PUSH0 SWAP1 SLOAD SWAP1 PUSH2 0x100 EXP SWAP1 DIV PUSH1 0xFF AND PUSH1 0x5 DUP1 PUSH1 0x5 DUP2 GT ISZERO PUSH2 0xFE8 JUMPI PUSH2 0xFE7 PUSH2 0x1E4C JUMP JUMPDEST JUMPDEST DUP3 PUSH1 0x5 DUP2 GT ISZERO PUSH2 0xFFB JUMPI PUSH2 0xFFA PUSH2 0x1E4C JUMP JUMPDEST JUMPDEST EQ PUSH2 0x103B JUMPI PUSH1 0x40 MLOAD PUSH32 0x8C379A000000000000000000000000000000000000000000000000000000000 DUP2 MSTORE PUSH1 0x4 ADD PUSH2 0x1032 SWAP1 PUSH2 0x2190 JUMP JUMPDEST PUSH1 0x40 MLOAD DUP1 SWAP2 SUB SWAP1 REVERT JUMPDEST CALLER PUSH1 0x1 PUSH0 DUP3 PUSH20 0xFFFFFFFFFFFFFFFFFFFFFFFFFFFFFFFFFFFFFFFF AND PUSH20 0xFFFFFFFFFFFFFFFFFFFFFFFFFFFFFFFFFFFFFFFF AND DUP2 MSTORE PUSH1 0x20 ADD SWAP1 DUP2 MSTORE PUSH1 0x20 ADD PUSH0 KECCAK256 PUSH0 ADD PUSH0 SWAP1 SLOAD SWAP1 PUSH2 0x100 EXP SWAP1 DIV PUSH1 0xFF AND PUSH2 0x10C7 JUMPI PUSH1 0x40 MLOAD PUSH32 0x8C379A000000000000000000000000000000000000000000000000000000000 DUP2 MSTORE PUSH1 0x4 ADD PUSH2 0x10BE SWAP1 PUSH2 0x21F8 JUMP JUMPDEST PUSH1 0x40 MLOAD DUP1 SWAP2 SUB SWAP1 REVERT JUMPDEST PUSH1 0x1 PUSH1 0x6 DUP1 SLOAD SWAP1 POP EQ PUSH2 0x110F JUMPI PUSH1 0x40 MLOAD PUSH32 0x8C379A000000000000000000000000000000000000000000000000000000000 DUP2 MSTORE PUSH1 0x4 ADD PUSH2 0x1106 SWAP1 PUSH2 0x24E9 JUMP JUMPDEST PUSH1 0x40 MLOAD DUP1 SWAP2 SUB SWAP1 REVERT JUMPDEST PUSH1 0x3 PUSH1 0x5 SLOAD DUP2 SLOAD DUP2 LT PUSH2 0x1125 JUMPI PUSH2 0x1124 PUSH2 0x22A4 JUMP JUMPDEST JUMPDEST SWAP1 PUSH0 MSTORE PUSH1 0x20 PUSH0 KECCAK256 SWAP1 PUSH1 0x2 MUL ADD PUSH1 0x40 MLOAD DUP1 PUSH1 0x40 ADD PUSH1 0x40 MSTORE SWAP1 DUP2 PUSH0 DUP3 ADD DUP1 SLOAD PUSH2 0x114B SWAP1 PUSH2 0x2423 JUMP JUMPDEST DUP1 PUSH1 0x1F ADD PUSH1 0x20 DUP1 SWAP2 DIV MUL PUSH1 0x20 ADD PUSH1 0x40 MLOAD SWAP1 DUP2 ADD PUSH1 0x40 MSTORE DUP1 SWAP3 SWAP2 SWAP1 DUP2 DUP2 MSTORE PUSH1 0x20 ADD DUP3 DUP1 SLOAD PUSH2 0x1177 SWAP1 PUSH2 0x2423 JUMP JUMPDEST DUP1 ISZERO PUSH2 0x11C2 JUMPI DUP1 PUSH1 0x1F LT PUSH2 0x1199 JUMPI PUSH2 0x100 DUP1 DUP4 SLOAD DIV MUL DUP4 MSTORE SWAP2 PUSH1 0x20 ADD SWAP2 PUSH2 0x11C2 JUMP JUMPDEST DUP3 ADD SWAP2 SWAP1 PUSH0 MSTORE PUSH1 0x20 PUSH0 KECCAK256 SWAP1 JUMPDEST DUP2 SLOAD DUP2 MSTORE SWAP1 PUSH1 0x1 ADD SWAP1 PUSH1 0x20 ADD DUP1 DUP4 GT PUSH2 0x11A5 JUMPI DUP3 SWAP1 SUB PUSH1 0x1F AND DUP3 ADD SWAP2 JUMPDEST POP POP POP POP POP DUP2 MSTORE PUSH1 0x20 ADD PUSH1 0x1 DUP3 ADD SLOAD DUP2 MSTORE POP POP SWAP4 POP POP POP POP SWAP1 JUMP JUMPDEST PUSH2 0x11E5 PUSH2 0x1905 JUMP JUMPDEST PUSH1 0x4 PUSH1 0x7 PUSH0 PUSH2 0x100 EXP DUP2 SLOAD DUP2 PUSH1 0xFF MUL NOT AND SWAP1 DUP4 PUSH1 0x5 DUP2 GT ISZERO PUSH2 0x120A JUMPI PUSH2 0x1209 PUSH2 0x1E4C JUMP JUMPDEST JUMPDEST MUL OR SWAP1 SSTORE POP PUSH32 0xA97A4EE45751E2ABF3E4FC8946939630B11B371EA8AE39CCDC3056E98F5CC3F PUSH1 0x3 PUSH1 0x7 PUSH0 SWAP1 SLOAD SWAP1 PUSH2 0x100 EXP SWAP1 DIV PUSH1 0xFF AND PUSH1 0x40 MLOAD PUSH2 0x124F SWAP3 SWAP2 SWAP1 PUSH2 0x2367 JUMP JUMPDEST PUSH1 0x40 MLOAD DUP1 SWAP2 SUB SWAP1 LOG1 JUMP JUMPDEST PUSH1 0x7 PUSH0 SWAP1 SLOAD SWAP1 PUSH2 0x100 EXP SWAP1 DIV PUSH1 0xFF AND PUSH1 0x4 DUP1 PUSH1 0x5 DUP2 GT ISZERO PUSH2 0x127D JUMPI PUSH2 0x127C PUSH2 0x1E4C JUMP JUMPDEST JUMPDEST DUP3 PUSH1 0x5 DUP2 GT ISZERO PUSH2 0x1290 JUMPI PUSH2 0x128F PUSH2 0x1E4C JUMP JUMPDEST JUMPDEST EQ PUSH2 0x12D0 JUMPI PUSH1 0x40 MLOAD PUSH32 0x8C379A000000000000000000000000000000000000000000000000000000000 DUP2 MSTORE PUSH1 0x4 ADD PUSH2 0x12C7 SWAP1 PUSH2 0x2190 JUMP JUMPDEST PUSH1 0x40 MLOAD DUP1 SWAP2 SUB SWAP1 REVERT JUMPDEST PUSH2 0x12D8 PUSH2 0x1905 JUMP JUMPDEST PUSH0 PUSH1 0x6 PUSH0 PUSH2 0x12E6 SWAP2 SWAP1 PUSH2 0x1A93 JUMP JUMPDEST PUSH0 PUSH0 SWAP1 POP JUMPDEST PUSH1 0x3 DUP1 SLOAD SWAP1 POP DUP2 LT ISZERO PUSH2 0x13E0 JUMPI DUP2 PUSH1 0x3 DUP3 DUP2 SLOAD DUP2 LT PUSH2 0x130D JUMPI PUSH2 0x130C PUSH2 0x22A4 JUMP JUMPDEST JUMPDEST SWAP1 PUSH0 MSTORE PUSH1 0x20 PUSH0 KECCAK256 SWAP1 PUSH1 0x2 MUL ADD PUSH1 0x1 ADD SLOAD GT ISZERO PUSH2 0x1381 JUMPI PUSH1 0x3 DUP2 DUP2 SLOAD DUP2 LT PUSH2 0x1337 JUMPI PUSH2 0x1336 PUSH2 0x22A4 JUMP JUMPDEST JUMPDEST SWAP1 PUSH0 MSTORE PUSH1 0x20 PUSH0 KECCAK256 SWAP1 PUSH1 0x2 MUL ADD PUSH1 0x1 ADD SLOAD SWAP2 POP PUSH1 0x6 PUSH0 PUSH2 0x1356 SWAP2 SWAP1 PUSH2 0x1A93 JUMP JUMPDEST PUSH1 0x6 DUP2 SWAP1 DUP1 PUSH1 0x1 DUP2 SLOAD ADD DUP1 DUP3 SSTORE DUP1 SWAP2 POP POP PUSH1 0x1 SWAP1 SUB SWAP1 PUSH0 MSTORE PUSH1 0x20 PUSH0 KECCAK256 ADD PUSH0 SWAP1 SWAP2 SWAP1 SWAP2 SWAP1 SWAP2 POP SSTORE PUSH2 0x13D3 JUMP JUMPDEST DUP2 PUSH1 0x3 DUP3 DUP2 SLOAD DUP2 LT PUSH2 0x1396 JUMPI PUSH2 0x1395 PUSH2 0x22A4 JUMP JUMPDEST JUMPDEST SWAP1 PUSH0 MSTORE PUSH1 0x20 PUSH0 KECCAK256 SWAP1 PUSH1 0x2 MUL ADD PUSH1 0x1 ADD SLOAD SUB PUSH2 0x13D2 JUMPI PUSH1 0x6 DUP2 SWAP1 DUP1 PUSH1 0x1 DUP2 SLOAD ADD DUP1 DUP3 SSTORE DUP1 SWAP2 POP POP PUSH1 0x1 SWAP1 SUB SWAP1 PUSH0 MSTORE PUSH1 0x20 PUSH0 KECCAK256 ADD PUSH0 SWAP1 SWAP2 SWAP1 SWAP2 SWAP1 SWAP2 POP SSTORE JUMPDEST JUMPDEST DUP1 DUP1 PUSH1 0x1 ADD SWAP2 POP POP PUSH2 0x12EB JUMP JUMPDEST POP PUSH1 0x1 PUSH1 0x6 DUP1 SLOAD SWAP1 POP SUB PUSH2 0x1412 JUMPI PUSH1 0x6 PUSH0 DUP2 SLOAD DUP2 LT PUSH2 0x1402 JUMPI PUSH2 0x1401 PUSH2 0x22A4 JUMP JUMPDEST JUMPDEST SWAP1 PUSH0 MSTORE PUSH1 0x20 PUSH0 KECCAK256 ADD SLOAD PUSH1 0x5 DUP2 SWAP1 SSTORE POP JUMPDEST POP POP POP JUMP JUMPDEST PUSH1 0x60 CALLER PUSH1 0x1 PUSH0 DUP3 PUSH20 0xFFFFFFFFFFFFFFFFFFFFFFFFFFFFFFFFFFFFFFFF AND PUSH20 0xFFFFFFFFFFFFFFFFFFFFFFFFFFFFFFFFFFFFFFFF AND DUP2 MSTORE PUSH1 0x20 ADD SWAP1 DUP2 MSTORE PUSH1 0x20 ADD PUSH0 KECCAK256 PUSH0 ADD PUSH0 SWAP1 SLOAD SWAP1 PUSH2 0x100 EXP SWAP1 DIV PUSH1 0xFF AND PUSH2 0x14A5 JUMPI PUSH1 0x40 MLOAD PUSH32 0x8C379A000000000000000000000000000000000000000000000000000000000 DUP2 MSTORE PUSH1 0x4 ADD PUSH2 0x149C SWAP1 PUSH2 0x21F8 JUMP JUMPDEST PUSH1 0x40 MLOAD DUP1 SWAP2 SUB SWAP1 REVERT JUMPDEST PUSH1 0x4 DUP1 SLOAD DUP1 PUSH1 0x20 MUL PUSH1 0x20 ADD PUSH1 0x40 MLOAD SWAP1 DUP2 ADD PUSH1 0x40 MSTORE DUP1 SWAP3 SWAP2 SWAP1 DUP2 DUP2 MSTORE PUSH1 0x20 ADD DUP3 DUP1 SLOAD DUP1 ISZERO PUSH2 0x1524 JUMPI PUSH1 0x20 MUL DUP3 ADD SWAP2 SWAP1 PUSH0 MSTORE PUSH1 0x20 PUSH0 KECCAK256 SWAP1 JUMPDEST DUP2 PUSH0 SWAP1 SLOAD SWAP1 PUSH2 0x100 EXP SWAP1 DIV PUSH20 0xFFFFFFFFFFFFFFFFFFFFFFFFFFFFFFFFFFFFFFFF AND PUSH20 0xFFFFFFFFFFFFFFFFFFFFFFFFFFFFFFFFFFFFFFFF AND DUP2 MSTORE PUSH1 0x20 ADD SWAP1 PUSH1 0x1 ADD SWAP1 DUP1 DUP4 GT PUSH2 0x14DB JUMPI JUMPDEST POP POP POP POP POP SWAP2 POP POP SWAP1 JUMP JUMPDEST PUSH2 0x1537 PUSH2 0x1905 JUMP JUMPDEST PUSH1 0x1 PUSH1 0x7 PUSH0 PUSH2 0x100 EXP DUP2 SLOAD DUP2 PUSH1 0xFF MUL NOT AND SWAP1 DUP4 PUSH1 0x5 DUP2 GT ISZERO PUSH2 0x155C JUMPI PUSH2 0x155B PUSH2 0x1E4C JUMP JUMPDEST JUMPDEST MUL OR SWAP1 SSTORE POP PUSH32 0xA97A4EE45751E2ABF3E4FC8946939630B11B371EA8AE39CCDC3056E98F5CC3F PUSH0 PUSH1 0x7 PUSH0 SWAP1 SLOAD SWAP1 PUSH2 0x100 EXP SWAP1 DIV PUSH1 0xFF AND PUSH1 0x40 MLOAD PUSH2 0x15A0 SWAP3 SWAP2 SWAP1 PUSH2 0x2367 JUMP JUMPDEST PUSH1 0x40 MLOAD DUP1 SWAP2 SUB SWAP1 LOG1 JUMP JUMPDEST PUSH2 0x15B2 PUSH2 0x1905 JUMP JUMPDEST PUSH1 0x7 PUSH0 SWAP1 SLOAD SWAP1 PUSH2 0x100 EXP SWAP1 DIV PUSH1 0xFF AND PUSH1 0x1 DUP1 PUSH1 0x5 DUP2 GT ISZERO PUSH2 0x15D6 JUMPI PUSH2 0x15D5 PUSH2 0x1E4C JUMP JUMPDEST JUMPDEST DUP3 PUSH1 0x5 DUP2 GT ISZERO PUSH2 0x15E9 JUMPI PUSH2 0x15E8 PUSH2 0x1E4C JUMP JUMPDEST JUMPDEST EQ PUSH2 0x1629 JUMPI PUSH1 0x40 MLOAD PUSH32 0x8C379A000000000000000000000000000000000000000000000000000000000 DUP2 MSTORE PUSH1 0x4 ADD PUSH2 0x1620 SWAP1 PUSH2 0x2190 JUMP JUMPDEST PUSH1 0x40 MLOAD DUP1 SWAP2 SUB SWAP1 REVERT JUMPDEST DUP5 PUSH1 0x1 PUSH0 DUP3 PUSH20 0xFFFFFFFFFFFFFFFFFFFFFFFFFFFFFFFFFFFFFFFF AND PUSH20 0xFFFFFFFFFFFFFFFFFFFFFFFFFFFFFFFFFFFFFFFF AND DUP2 MSTORE PUSH1 0x20 ADD SWAP1 DUP2 MSTORE PUSH1 0x20 ADD PUSH0 KECCAK256 PUSH0 ADD PUSH0 SWAP1 SLOAD SWAP1 PUSH2 0x100 EXP SWAP1 DIV PUSH1 0xFF AND PUSH2 0x16B5 JUMPI PUSH1 0x40 MLOAD PUSH32 0x8C379A000000000000000000000000000000000000000000000000000000000 DUP2 MSTORE PUSH1 0x4 ADD PUSH2 0x16AC SWAP1 PUSH2 0x21F8 JUMP JUMPDEST PUSH1 0x40 MLOAD DUP1 SWAP2 SUB SWAP1 REVERT JUMPDEST PUSH1 0x3 PUSH1 0x40 MLOAD DUP1 PUSH1 0x40 ADD PUSH1 0x40 MSTORE DUP1 DUP8 DUP8 DUP1 DUP1 PUSH1 0x1F ADD PUSH1 0x20 DUP1 SWAP2 DIV MUL PUSH1 0x20 ADD PUSH1 0x40 MLOAD SWAP1 DUP2 ADD PUSH1 0x40 MSTORE DUP1 SWAP4 SWAP3 SWAP2 SWAP1 DUP2 DUP2 MSTORE PUSH1 0x20 ADD DUP4 DUP4 DUP1 DUP3 DUP5 CALLDATACOPY PUSH0 DUP2 DUP5 ADD MSTORE PUSH1 0x1F NOT PUSH1 0x1F DUP3 ADD AND SWAP1 POP DUP1 DUP4 ADD SWAP3 POP POP POP POP POP POP POP DUP2 MSTORE PUSH1 0x20 ADD PUSH0 DUP2 MSTORE POP SWAP1 DUP1 PUSH1 0x1 DUP2 SLOAD ADD DUP1 DUP3 SSTORE DUP1 SWAP2 POP POP PUSH1 0x1 SWAP1 SUB SWAP1 PUSH0 MSTORE PUSH1 0x20 PUSH0 KECCAK256 SWAP1 PUSH1 0x2 MUL ADD PUSH0 SWAP1 SWAP2 SWAP1 SWAP2 SWAP1 SWAP2 POP PUSH0 DUP3 ADD MLOAD DUP2 PUSH0 ADD SWAP1 DUP2 PUSH2 0x1748 SWAP2 SWAP1 PUSH2 0x26D4 JUMP JUMPDEST POP PUSH1 0x20 DUP3 ADD MLOAD DUP2 PUSH1 0x1 ADD SSTORE POP POP DUP6 PUSH1 0x2 PUSH0 PUSH1 0x1 PUSH1 0x3 DUP1 SLOAD SWAP1 POP PUSH2 0x176B SWAP2 SWAP1 PUSH2 0x27A3 JUMP JUMPDEST DUP2 MSTORE PUSH1 0x20 ADD SWAP1 DUP2 MSTORE PUSH1 0x20 ADD PUSH0 KECCAK256 PUSH0 PUSH2 0x100 EXP DUP2 SLOAD DUP2 PUSH20 0xFFFFFFFFFFFFFFFFFFFFFFFFFFFFFFFFFFFFFFFF MUL NOT AND SWAP1 DUP4 PUSH20 0xFFFFFFFFFFFFFFFFFFFFFFFFFFFFFFFFFFFFFFFF AND MUL OR SWAP1 SSTORE POP PUSH32 0x92E393E9B54E2F801D3EA4BEB0C5E71A21CC34A5D34B77D0FB8A3AA1650DC18F PUSH1 0x1 PUSH1 0x3 DUP1 SLOAD SWAP1 POP PUSH2 0x17E8 SWAP2 SWAP1 PUSH2 0x27A3 JUMP JUMPDEST PUSH1 0x40 MLOAD PUSH2 0x17F5 SWAP2 SWAP1 PUSH2 0x27D6 JUMP JUMPDEST PUSH1 0x40 MLOAD DUP1 SWAP2 SUB SWAP1 LOG1 POP POP POP POP POP POP JUMP JUMPDEST PUSH2 0x180D PUSH2 0x1905 JUMP JUMPDEST PUSH1 0x3 PUSH1 0x7 PUSH0 PUSH2 0x100 EXP DUP2 SLOAD DUP2 PUSH1 0xFF MUL NOT AND SWAP1 DUP4 PUSH1 0x5 DUP2 GT ISZERO PUSH2 0x1832 JUMPI PUSH2 0x1831 PUSH2 0x1E4C JUMP JUMPDEST JUMPDEST MUL OR SWAP1 SSTORE POP PUSH32 0xA97A4EE45751E2ABF3E4FC8946939630B11B371EA8AE39CCDC3056E98F5CC3F PUSH1 0x2 PUSH1 0x7 PUSH0 SWAP1 SLOAD SWAP1 PUSH2 0x100 EXP SWAP1 DIV PUSH1 0xFF AND PUSH1 0x40 MLOAD PUSH2 0x1877 SWAP3 SWAP2 SWAP1 PUSH2 0x2367 JUMP JUMPDEST PUSH1 0x40 MLOAD DUP1 SWAP2 SUB SWAP1 LOG1 JUMP JUMPDEST PUSH2 0x1889 PUSH2 0x1905 JUMP JUMPDEST PUSH0 PUSH20 0xFFFFFFFFFFFFFFFFFFFFFFFFFFFFFFFFFFFFFFFF AND DUP2 PUSH20 0xFFFFFFFFFFFFFFFFFFFFFFFFFFFFFFFFFFFFFFFF AND SUB PUSH2 0x18F9 JUMPI PUSH0 PUSH1 0x40 MLOAD PUSH32 0x1E4FBDF700000000000000000000000000000000000000000000000000000000 DUP2 MSTORE PUSH1 0x4 ADD PUSH2 0x18F0 SWAP2 SWAP1 PUSH2 0x1E33 JUMP JUMPDEST PUSH1 0x40 MLOAD DUP1 SWAP2 SUB SWAP1 REVERT JUMPDEST PUSH2 0x1902 DUP2 PUSH2 0x198C JUMP JUMPDEST POP JUMP JUMPDEST PUSH2 0x190D PUSH2 0x1A4D JUMP JUMPDEST PUSH20 0xFFFFFFFFFFFFFFFFFFFFFFFFFFFFFFFFFFFFFFFF AND PUSH2 0x192B PUSH2 0xD6C JUMP JUMPDEST PUSH20 0xFFFFFFFFFFFFFFFFFFFFFFFFFFFFFFFFFFFFFFFF AND EQ PUSH2 0x198A JUMPI PUSH2 0x194E PUSH2 0x1A4D JUMP JUMPDEST PUSH1 0x40 MLOAD PUSH32 0x118CDAA700000000000000000000000000000000000000000000000000000000 DUP2 MSTORE PUSH1 0x4 ADD PUSH2 0x1981 SWAP2 SWAP1 PUSH2 0x1E33 JUMP JUMPDEST PUSH1 0x40 MLOAD DUP1 SWAP2 SUB SWAP1 REVERT JUMPDEST JUMP JUMPDEST PUSH0 PUSH0 PUSH0 SWAP1 SLOAD SWAP1 PUSH2 0x100 EXP SWAP1 DIV PUSH20 0xFFFFFFFFFFFFFFFFFFFFFFFFFFFFFFFFFFFFFFFF AND SWAP1 POP DUP2 PUSH0 PUSH0 PUSH2 0x100 EXP DUP2 SLOAD DUP2 PUSH20 0xFFFFFFFFFFFFFFFFFFFFFFFFFFFFFFFFFFFFFFFF MUL NOT AND SWAP1 DUP4 PUSH20 0xFFFFFFFFFFFFFFFFFFFFFFFFFFFFFFFFFFFFFFFF AND MUL OR SWAP1 SSTORE POP DUP2 PUSH20 0xFFFFFFFFFFFFFFFFFFFFFFFFFFFFFFFFFFFFFFFF AND DUP2 PUSH20 0xFFFFFFFFFFFFFFFFFFFFFFFFFFFFFFFFFFFFFFFF AND PUSH32 0x8BE0079C531659141344CD1FD0A4F28419497F9722A3DAAFE3B4186F6B6457E0 PUSH1 0x40 MLOAD PUSH1 0x40 MLOAD DUP1 SWAP2 SUB SWAP1 LOG3 POP POP JUMP JUMPDEST PUSH0 CALLER SWAP1 POP SWAP1 JUMP JUMPDEST POP DUP1 SLOAD PUSH0 DUP3 SSTORE SWAP1 PUSH0 MSTORE PUSH1 0x20 PUSH0 KECCAK256 SWAP1 DUP2 ADD SWAP1 PUSH2 0x1A6F SWAP2 SWAP1 PUSH2 0x1ACA JUMP JUMPDEST POP JUMP JUMPDEST POP DUP1 SLOAD PUSH0 DUP3 SSTORE PUSH1 0x2 MUL SWAP1 PUSH0 MSTORE PUSH1 0x20 PUSH0 KECCAK256 SWAP1 DUP2 ADD SWAP1 PUSH2 0x1A90 SWAP2 SWAP1 PUSH2 0x1AE5 JUMP JUMPDEST POP JUMP JUMPDEST POP DUP1 SLOAD PUSH0 DUP3 SSTORE SWAP1 PUSH0 MSTORE PUSH1 0x20 PUSH0 KECCAK256 SWAP1 DUP2 ADD SWAP1 PUSH2 0x1AAE SWAP2 SWAP1 PUSH2 0x1ACA JUMP JUMPDEST POP JUMP JUMPDEST PUSH1 0x40 MLOAD DUP1 PUSH1 0x40 ADD PUSH1 0x40 MSTORE DUP1 PUSH1 0x60 DUP2 MSTORE PUSH1 0x20 ADD PUSH0 DUP2 MSTORE POP SWAP1 JUMP JUMPDEST JUMPDEST DUP1 DUP3 GT ISZERO PUSH2 0x1AE1 JUMPI PUSH0 DUP2 PUSH0 SWAP1 SSTORE POP PUSH1 0x1 ADD PUSH2 0x1ACB JUMP JUMPDEST POP SWAP1 JUMP JUMPDEST JUMPDEST DUP1 DUP3 GT ISZERO PUSH2 0x1B0D JUMPI PUSH0 PUSH0 DUP3 ADD PUSH0 PUSH2 0x1AFD SWAP2 SWAP1 PUSH2 0x1B11 JUMP JUMPDEST PUSH1 0x1 DUP3 ADD PUSH0 SWAP1 SSTORE POP PUSH1 0x2 ADD PUSH2 0x1AE6 JUMP JUMPDEST POP SWAP1 JUMP JUMPDEST POP DUP1 SLOAD PUSH2 0x1B1D SWAP1 PUSH2 0x2423 JUMP JUMPDEST PUSH0 DUP3 SSTORE DUP1 PUSH1 0x1F LT PUSH2 0x1B2E JUMPI POP PUSH2 0x1B4B JUMP JUMPDEST PUSH1 0x1F ADD PUSH1 0x20 SWAP1 DIV SWAP1 PUSH0 MSTORE PUSH1 0x20 PUSH0 KECCAK256 SWAP1 DUP2 ADD SWAP1 PUSH2 0x1B4A SWAP2 SWAP1 PUSH2 0x1ACA JUMP JUMPDEST JUMPDEST POP JUMP JUMPDEST PUSH0 PUSH0 REVERT JUMPDEST PUSH0 PUSH0 REVERT JUMPDEST PUSH0 DUP2 SWAP1 POP SWAP2 SWAP1 POP JUMP JUMPDEST PUSH2 0x1B68 DUP2 PUSH2 0x1B56 JUMP JUMPDEST DUP2 EQ PUSH2 0x1B72 JUMPI PUSH0 PUSH0 REVERT JUMPDEST POP JUMP JUMPDEST PUSH0 DUP2 CALLDATALOAD SWAP1 POP PUSH2 0x1B83 DUP2 PUSH2 0x1B5F JUMP JUMPDEST SWAP3 SWAP2 POP POP JUMP JUMPDEST PUSH0 PUSH1 0x20 DUP3 DUP5 SUB SLT ISZERO PUSH2 0x1B9E JUMPI PUSH2 0x1B9D PUSH2 0x1B4E JUMP JUMPDEST JUMPDEST PUSH0 PUSH2 0x1BAB DUP5 DUP3 DUP6 ADD PUSH2 0x1B75 JUMP JUMPDEST SWAP2 POP POP SWAP3 SWAP2 POP POP JUMP JUMPDEST PUSH0 PUSH0 REVERT JUMPDEST PUSH0 PUSH0 REVERT JUMPDEST PUSH0 PUSH0 REVERT JUMPDEST PUSH0 PUSH0 DUP4 PUSH1 0x1F DUP5 ADD SLT PUSH2 0x1BD5 JUMPI PUSH2 0x1BD4 PUSH2 0x1BB4 JUMP JUMPDEST JUMPDEST DUP3 CALLDATALOAD SWAP1 POP PUSH8 0xFFFFFFFFFFFFFFFF DUP2 GT ISZERO PUSH2 0x1BF2 JUMPI PUSH2 0x1BF1 PUSH2 0x1BB8 JUMP JUMPDEST JUMPDEST PUSH1 0x20 DUP4 ADD SWAP2 POP DUP4 PUSH1 0x20 DUP3 MUL DUP4 ADD GT ISZERO PUSH2 0x1C0E JUMPI PUSH2 0x1C0D PUSH2 0x1BBC JUMP JUMPDEST JUMPDEST SWAP3 POP SWAP3 SWAP1 POP JUMP JUMPDEST PUSH0 PUSH0 PUSH1 0x20 DUP4 DUP6 SUB SLT ISZERO PUSH2 0x1C2B JUMPI PUSH2 0x1C2A PUSH2 0x1B4E JUMP JUMPDEST JUMPDEST PUSH0 DUP4 ADD CALLDATALOAD PUSH8 0xFFFFFFFFFFFFFFFF DUP2 GT ISZERO PUSH2 0x1C48 JUMPI PUSH2 0x1C47 PUSH2 0x1B52 JUMP JUMPDEST JUMPDEST PUSH2 0x1C54 DUP6 DUP3 DUP7 ADD PUSH2 0x1BC0 JUMP JUMPDEST SWAP3 POP SWAP3 POP POP SWAP3 POP SWAP3 SWAP1 POP JUMP JUMPDEST PUSH0 DUP2 MLOAD SWAP1 POP SWAP2 SWAP1 POP JUMP JUMPDEST PUSH0 DUP3 DUP3 MSTORE PUSH1 0x20 DUP3 ADD SWAP1 POP SWAP3 SWAP2 POP POP JUMP JUMPDEST PUSH0 DUP2 SWAP1 POP PUSH1 0x20 DUP3 ADD SWAP1 POP SWAP2 SWAP1 POP JUMP JUMPDEST PUSH0 DUP2 MLOAD SWAP1 POP SWAP2 SWAP1 POP JUMP JUMPDEST PUSH0 DUP3 DUP3 MSTORE PUSH1 0x20 DUP3 ADD SWAP1 POP SWAP3 SWAP2 POP POP JUMP JUMPDEST DUP3 DUP2 DUP4 MCOPY PUSH0 DUP4 DUP4 ADD MSTORE POP POP POP JUMP JUMPDEST PUSH0 PUSH1 0x1F NOT PUSH1 0x1F DUP4 ADD AND SWAP1 POP SWAP2 SWAP1 POP JUMP JUMPDEST PUSH0 PUSH2 0x1CCB DUP3 PUSH2 0x1C89 JUMP JUMPDEST PUSH2 0x1CD5 DUP2 DUP6 PUSH2 0x1C93 JUMP JUMPDEST SWAP4 POP PUSH2 0x1CE5 DUP2 DUP6 PUSH1 0x20 DUP7 ADD PUSH2 0x1CA3 JUMP JUMPDEST PUSH2 0x1CEE DUP2 PUSH2 0x1CB1 JUMP JUMPDEST DUP5 ADD SWAP2 POP POP SWAP3 SWAP2 POP POP JUMP JUMPDEST PUSH2 0x1D02 DUP2 PUSH2 0x1B56 JUMP JUMPDEST DUP3 MSTORE POP POP JUMP JUMPDEST PUSH0 PUSH1 0x40 DUP4 ADD PUSH0 DUP4 ADD MLOAD DUP5 DUP3 SUB PUSH0 DUP7 ADD MSTORE PUSH2 0x1D22 DUP3 DUP3 PUSH2 0x1CC1 JUMP JUMPDEST SWAP2 POP POP PUSH1 0x20 DUP4 ADD MLOAD PUSH2 0x1D37 PUSH1 0x20 DUP7 ADD DUP3 PUSH2 0x1CF9 JUMP JUMPDEST POP DUP1 SWAP2 POP POP SWAP3 SWAP2 POP POP JUMP JUMPDEST PUSH0 PUSH2 0x1D4D DUP4 DUP4 PUSH2 0x1D08 JUMP JUMPDEST SWAP1 POP SWAP3 SWAP2 POP POP JUMP JUMPDEST PUSH0 PUSH1 0x20 DUP3 ADD SWAP1 POP SWAP2 SWAP1 POP JUMP JUMPDEST PUSH0 PUSH2 0x1D6B DUP3 PUSH2 0x1C60 JUMP JUMPDEST PUSH2 0x1D75 DUP2 DUP6 PUSH2 0x1C6A JUMP JUMPDEST SWAP4 POP DUP4 PUSH1 0x20 DUP3 MUL DUP6 ADD PUSH2 0x1D87 DUP6 PUSH2 0x1C7A JUMP JUMPDEST DUP1 PUSH0 JUMPDEST DUP6 DUP2 LT ISZERO PUSH2 0x1DC2 JUMPI DUP5 DUP5 SUB DUP10 MSTORE DUP2 MLOAD PUSH2 0x1DA3 DUP6 DUP3 PUSH2 0x1D42 JUMP JUMPDEST SWAP5 POP PUSH2 0x1DAE DUP4 PUSH2 0x1D55 JUMP JUMPDEST SWAP3 POP PUSH1 0x20 DUP11 ADD SWAP10 POP POP PUSH1 0x1 DUP2 ADD SWAP1 POP PUSH2 0x1D8A JUMP JUMPDEST POP DUP3 SWAP8 POP DUP8 SWAP6 POP POP POP POP POP POP SWAP3 SWAP2 POP POP JUMP JUMPDEST PUSH0 PUSH1 0x20 DUP3 ADD SWAP1 POP DUP2 DUP2 SUB PUSH0 DUP4 ADD MSTORE PUSH2 0x1DEC DUP2 DUP5 PUSH2 0x1D61 JUMP JUMPDEST SWAP1 POP SWAP3 SWAP2 POP POP JUMP JUMPDEST PUSH0 PUSH20 0xFFFFFFFFFFFFFFFFFFFFFFFFFFFFFFFFFFFFFFFF DUP3 AND SWAP1 POP SWAP2 SWAP1 POP JUMP JUMPDEST PUSH0 PUSH2 0x1E1D DUP3 PUSH2 0x1DF4 JUMP JUMPDEST SWAP1 POP SWAP2 SWAP1 POP JUMP JUMPDEST PUSH2 0x1E2D DUP2 PUSH2 0x1E13 JUMP JUMPDEST DUP3 MSTORE POP POP JUMP JUMPDEST PUSH0 PUSH1 0x20 DUP3 ADD SWAP1 POP PUSH2 0x1E46 PUSH0 DUP4 ADD DUP5 PUSH2 0x1E24 JUMP JUMPDEST SWAP3 SWAP2 POP POP JUMP JUMPDEST PUSH32 0x4E487B7100000000000000000000000000000000000000000000000000000000 PUSH0 MSTORE PUSH1 0x21 PUSH1 0x4 MSTORE PUSH1 0x24 PUSH0 REVERT JUMPDEST PUSH1 0x6 DUP2 LT PUSH2 0x1E8A JUMPI PUSH2 0x1E89 PUSH2 0x1E4C JUMP JUMPDEST JUMPDEST POP JUMP JUMPDEST PUSH0 DUP2 SWAP1 POP PUSH2 0x1E9A DUP3 PUSH2 0x1E79 JUMP JUMPDEST SWAP2 SWAP1 POP JUMP JUMPDEST PUSH0 PUSH2 0x1EA9 DUP3 PUSH2 0x1E8D JUMP JUMPDEST SWAP1 POP SWAP2 SWAP1 POP JUMP JUMPDEST PUSH2 0x1EB9 DUP2 PUSH2 0x1E9F JUMP JUMPDEST DUP3 MSTORE POP POP JUMP JUMPDEST PUSH0 PUSH1 0x20 DUP3 ADD SWAP1 POP PUSH2 0x1ED2 PUSH0 DUP4 ADD DUP5 PUSH2 0x1EB0 JUMP JUMPDEST SWAP3 SWAP2 POP POP JUMP JUMPDEST PUSH0 PUSH1 0x40 DUP4 ADD PUSH0 DUP4 ADD MLOAD DUP5 DUP3 SUB PUSH0 DUP7 ADD MSTORE PUSH2 0x1EF2 DUP3 DUP3 PUSH2 0x1CC1 JUMP JUMPDEST SWAP2 POP POP PUSH1 0x20 DUP4 ADD MLOAD PUSH2 0x1F07 PUSH1 0x20 DUP7 ADD DUP3 PUSH2 0x1CF9 JUMP JUMPDEST POP DUP1 SWAP2 POP POP SWAP3 SWAP2 POP POP JUMP JUMPDEST PUSH0 PUSH1 0x20 DUP3 ADD SWAP1 POP DUP2 DUP2 SUB PUSH0 DUP4 ADD MSTORE PUSH2 0x1F2A DUP2 DUP5 PUSH2 0x1ED8 JUMP JUMPDEST SWAP1 POP SWAP3 SWAP2 POP POP JUMP JUMPDEST PUSH0 DUP2 MLOAD SWAP1 POP SWAP2 SWAP1 POP JUMP JUMPDEST PUSH0 DUP3 DUP3 MSTORE PUSH1 0x20 DUP3 ADD SWAP1 POP SWAP3 SWAP2 POP POP JUMP JUMPDEST PUSH0 DUP2 SWAP1 POP PUSH1 0x20 DUP3 ADD SWAP1 POP SWAP2 SWAP1 POP JUMP JUMPDEST PUSH2 0x1F64 DUP2 PUSH2 0x1E13 JUMP JUMPDEST DUP3 MSTORE POP POP JUMP JUMPDEST PUSH0 PUSH2 0x1F75 DUP4 DUP4 PUSH2 0x1F5B JUMP JUMPDEST PUSH1 0x20 DUP4 ADD SWAP1 POP SWAP3 SWAP2 POP POP JUMP JUMPDEST PUSH0 PUSH1 0x20 DUP3 ADD SWAP1 POP SWAP2 SWAP1 POP JUMP JUMPDEST PUSH0 PUSH2 0x1F97 DUP3 PUSH2 0x1F32 JUMP JUMPDEST PUSH2 0x1FA1 DUP2 DUP6 PUSH2 0x1F3C JUMP JUMPDEST SWAP4 POP PUSH2 0x1FAC DUP4 PUSH2 0x1F4C JUMP JUMPDEST DUP1 PUSH0 JUMPDEST DUP4 DUP2 LT ISZERO PUSH2 0x1FDC JUMPI DUP2 MLOAD PUSH2 0x1FC3 DUP9 DUP3 PUSH2 0x1F6A JUMP JUMPDEST SWAP8 POP PUSH2 0x1FCE DUP4 PUSH2 0x1F81 JUMP JUMPDEST SWAP3 POP POP PUSH1 0x1 DUP2 ADD SWAP1 POP PUSH2 0x1FAF JUMP JUMPDEST POP DUP6 SWAP4 POP POP POP POP SWAP3 SWAP2 POP POP JUMP JUMPDEST PUSH0 PUSH1 0x20 DUP3 ADD SWAP1 POP DUP2 DUP2 SUB PUSH0 DUP4 ADD MSTORE PUSH2 0x2001 DUP2 DUP5 PUSH2 0x1F8D JUMP JUMPDEST SWAP1 POP SWAP3 SWAP2 POP POP JUMP JUMPDEST PUSH2 0x2012 DUP2 PUSH2 0x1E13 JUMP JUMPDEST DUP2 EQ PUSH2 0x201C JUMPI PUSH0 PUSH0 REVERT JUMPDEST POP JUMP JUMPDEST PUSH0 DUP2 CALLDATALOAD SWAP1 POP PUSH2 0x202D DUP2 PUSH2 0x2009 JUMP JUMPDEST SWAP3 SWAP2 POP POP JUMP JUMPDEST PUSH0 PUSH0 DUP4 PUSH1 0x1F DUP5 ADD SLT PUSH2 0x2048 JUMPI PUSH2 0x2047 PUSH2 0x1BB4 JUMP JUMPDEST JUMPDEST DUP3 CALLDATALOAD SWAP1 POP PUSH8 0xFFFFFFFFFFFFFFFF DUP2 GT ISZERO PUSH2 0x2065 JUMPI PUSH2 0x2064 PUSH2 0x1BB8 JUMP JUMPDEST JUMPDEST PUSH1 0x20 DUP4 ADD SWAP2 POP DUP4 PUSH1 0x1 DUP3 MUL DUP4 ADD GT ISZERO PUSH2 0x2081 JUMPI PUSH2 0x2080 PUSH2 0x1BBC JUMP JUMPDEST JUMPDEST SWAP3 POP SWAP3 SWAP1 POP JUMP JUMPDEST PUSH0 PUSH0 PUSH0 PUSH1 0x40 DUP5 DUP7 SUB SLT ISZERO PUSH2 0x209F JUMPI PUSH2 0x209E PUSH2 0x1B4E JUMP JUMPDEST JUMPDEST PUSH0 PUSH2 0x20AC DUP7 DUP3 DUP8 ADD PUSH2 0x201F JUMP JUMPDEST SWAP4 POP POP PUSH1 0x20 DUP5 ADD CALLDATALOAD PUSH8 0xFFFFFFFFFFFFFFFF DUP2 GT ISZERO PUSH2 0x20CD JUMPI PUSH2 0x20CC PUSH2 0x1B52 JUMP JUMPDEST JUMPDEST PUSH2 0x20D9 DUP7 DUP3 DUP8 ADD PUSH2 0x2033 JUMP JUMPDEST SWAP3 POP SWAP3 POP POP SWAP3 POP SWAP3 POP SWAP3 JUMP JUMPDEST PUSH0 PUSH1 0x20 DUP3 DUP5 SUB SLT ISZERO PUSH2 0x20FA JUMPI PUSH2 0x20F9 PUSH2 0x1B4E JUMP JUMPDEST JUMPDEST PUSH0 PUSH2 0x2107 DUP5 DUP3 DUP6 ADD PUSH2 0x201F JUMP JUMPDEST SWAP2 POP POP SWAP3 SWAP2 POP POP JUMP JUMPDEST PUSH0 DUP3 DUP3 MSTORE PUSH1 0x20 DUP3 ADD SWAP1 POP SWAP3 SWAP2 POP POP JUMP JUMPDEST PUSH32 0x5468697320616374696F6E206973206E6F7420617661696C61626C6520617420 PUSH0 DUP3 ADD MSTORE PUSH32 0x74686973207374616765206F66207468652062616C6C6F740000000000000000 PUSH1 0x20 DUP3 ADD MSTORE POP JUMP JUMPDEST PUSH0 PUSH2 0x217A PUSH1 0x38 DUP4 PUSH2 0x2110 JUMP JUMPDEST SWAP2 POP PUSH2 0x2185 DUP3 PUSH2 0x2120 JUMP JUMPDEST PUSH1 0x40 DUP3 ADD SWAP1 POP SWAP2 SWAP1 POP JUMP JUMPDEST PUSH0 PUSH1 0x20 DUP3 ADD SWAP1 POP DUP2 DUP2 SUB PUSH0 DUP4 ADD MSTORE PUSH2 0x21A7 DUP2 PUSH2 0x216E JUMP JUMPDEST SWAP1 POP SWAP2 SWAP1 POP JUMP JUMPDEST PUSH32 0x566F746572206973206E6F742072656769737465726564000000000000000000 PUSH0 DUP3 ADD MSTORE POP JUMP JUMPDEST PUSH0 PUSH2 0x21E2 PUSH1 0x17 DUP4 PUSH2 0x2110 JUMP JUMPDEST SWAP2 POP PUSH2 0x21ED DUP3 PUSH2 0x21AE JUMP JUMPDEST PUSH1 0x20 DUP3 ADD SWAP1 POP SWAP2 SWAP1 POP JUMP JUMPDEST PUSH0 PUSH1 0x20 DUP3 ADD SWAP1 POP DUP2 DUP2 SUB PUSH0 DUP4 ADD MSTORE PUSH2 0x220F DUP2 PUSH2 0x21D6 JUMP JUMPDEST SWAP1 POP SWAP2 SWAP1 POP JUMP JUMPDEST PUSH32 0x566F746572206973206E6F7420616C6C6F77656420746F20766F746520747769 PUSH0 DUP3 ADD MSTORE PUSH32 0x6365000000000000000000000000000000000000000000000000000000000000 PUSH1 0x20 DUP3 ADD MSTORE POP JUMP JUMPDEST PUSH0 PUSH2 0x2270 PUSH1 0x22 DUP4 PUSH2 0x2110 JUMP JUMPDEST SWAP2 POP PUSH2 0x227B DUP3 PUSH2 0x2216 JUMP JUMPDEST PUSH1 0x40 DUP3 ADD SWAP1 POP SWAP2 SWAP1 POP JUMP JUMPDEST PUSH0 PUSH1 0x20 DUP3 ADD SWAP1 POP DUP2 DUP2 SUB PUSH0 DUP4 ADD MSTORE PUSH2 0x229D DUP2 PUSH2 0x2264 JUMP JUMPDEST SWAP1 POP SWAP2 SWAP1 POP JUMP JUMPDEST PUSH32 0x4E487B7100000000000000000000000000000000000000000000000000000000 PUSH0 MSTORE PUSH1 0x32 PUSH1 0x4 MSTORE PUSH1 0x24 PUSH0 REVERT JUMPDEST PUSH32 0x4E487B7100000000000000000000000000000000000000000000000000000000 PUSH0 MSTORE PUSH1 0x11 PUSH1 0x4 MSTORE PUSH1 0x24 PUSH0 REVERT JUMPDEST PUSH0 PUSH2 0x2308 DUP3 PUSH2 0x1B56 JUMP JUMPDEST SWAP2 POP PUSH2 0x2313 DUP4 PUSH2 0x1B56 JUMP JUMPDEST SWAP3 POP DUP3 DUP3 ADD SWAP1 POP DUP1 DUP3 GT ISZERO PUSH2 0x232B JUMPI PUSH2 0x232A PUSH2 0x22D1 JUMP JUMPDEST JUMPDEST SWAP3 SWAP2 POP POP JUMP JUMPDEST PUSH2 0x233A DUP2 PUSH2 0x1B56 JUMP JUMPDEST DUP3 MSTORE POP POP JUMP JUMPDEST PUSH0 PUSH1 0x40 DUP3 ADD SWAP1 POP PUSH2 0x2353 PUSH0 DUP4 ADD DUP6 PUSH2 0x1E24 JUMP JUMPDEST PUSH2 0x2360 PUSH1 0x20 DUP4 ADD DUP5 PUSH2 0x2331 JUMP JUMPDEST SWAP4 SWAP3 POP POP POP JUMP JUMPDEST PUSH0 PUSH1 0x40 DUP3 ADD SWAP1 POP PUSH2 0x237A PUSH0 DUP4 ADD DUP6 PUSH2 0x1EB0 JUMP JUMPDEST PUSH2 0x2387 PUSH1 0x20 DUP4 ADD DUP5 PUSH2 0x1EB0 JUMP JUMPDEST SWAP4 SWAP3 POP POP POP JUMP JUMPDEST PUSH32 0x4E6F20766F746572732070726F76696465640000000000000000000000000000 PUSH0 DUP3 ADD MSTORE POP JUMP JUMPDEST PUSH0 PUSH2 0x23C2 PUSH1 0x12 DUP4 PUSH2 0x2110 JUMP JUMPDEST SWAP2 POP PUSH2 0x23CD DUP3 PUSH2 0x238E JUMP JUMPDEST PUSH1 0x20 DUP3 ADD SWAP1 POP SWAP2 SWAP1 POP JUMP JUMPDEST PUSH0 PUSH1 0x20 DUP3 ADD SWAP1 POP DUP2 DUP2 SUB PUSH0 DUP4 ADD MSTORE PUSH2 0x23EF DUP2 PUSH2 0x23B6 JUMP JUMPDEST SWAP1 POP SWAP2 SWAP1 POP JUMP JUMPDEST PUSH32 0x4E487B7100000000000000000000000000000000000000000000000000000000 PUSH0 MSTORE PUSH1 0x22 PUSH1 0x4 MSTORE PUSH1 0x24 PUSH0 REVERT JUMPDEST PUSH0 PUSH1 0x2 DUP3 DIV SWAP1 POP PUSH1 0x1 DUP3 AND DUP1 PUSH2 0x243A JUMPI PUSH1 0x7F DUP3 AND SWAP2 POP JUMPDEST PUSH1 0x20 DUP3 LT DUP2 SUB PUSH2 0x244D JUMPI PUSH2 0x244C PUSH2 0x23F6 JUMP JUMPDEST JUMPDEST POP SWAP2 SWAP1 POP JUMP JUMPDEST PUSH32 0x54686520766F746520726571756972657320616E6F7468657220726F756E6420 PUSH0 DUP3 ADD MSTORE PUSH32 0x617320736F6D652070726F706F73616C73206861766520656E64656420696E20 PUSH1 0x20 DUP3 ADD MSTORE PUSH32 0x6120746965000000000000000000000000000000000000000000000000000000 PUSH1 0x40 DUP3 ADD MSTORE POP JUMP JUMPDEST PUSH0 PUSH2 0x24D3 PUSH1 0x45 DUP4 PUSH2 0x2110 JUMP JUMPDEST SWAP2 POP PUSH2 0x24DE DUP3 PUSH2 0x2453 JUMP JUMPDEST PUSH1 0x60 DUP3 ADD SWAP1 POP SWAP2 SWAP1 POP JUMP JUMPDEST PUSH0 PUSH1 0x20 DUP3 ADD SWAP1 POP DUP2 DUP2 SUB PUSH0 DUP4 ADD MSTORE PUSH2 0x2500 DUP2 PUSH2 0x24C7 JUMP JUMPDEST SWAP1 POP SWAP2 SWAP1 POP JUMP JUMPDEST PUSH32 0x4E487B7100000000000000000000000000000000000000000000000000000000 PUSH0 MSTORE PUSH1 0x41 PUSH1 0x4 MSTORE PUSH1 0x24 PUSH0 REVERT JUMPDEST PUSH0 DUP2 SWAP1 POP DUP2 PUSH0 MSTORE PUSH1 0x20 PUSH0 KECCAK256 SWAP1 POP SWAP2 SWAP1 POP JUMP JUMPDEST PUSH0 PUSH1 0x20 PUSH1 0x1F DUP4 ADD DIV SWAP1 POP SWAP2 SWAP1 POP JUMP JUMPDEST PUSH0 DUP3 DUP3 SHL SWAP1 POP SWAP3 SWAP2 POP POP JUMP JUMPDEST PUSH0 PUSH1 0x8 DUP4 MUL PUSH2 0x2590 PUSH32 0xFFFFFFFFFFFFFFFFFFFFFFFFFFFFFFFFFFFFFFFFFFFFFFFFFFFFFFFFFFFFFFFF DUP3 PUSH2 0x2555 JUMP JUMPDEST PUSH2 0x259A DUP7 DUP4 PUSH2 0x2555 JUMP JUMPDEST SWAP6 POP DUP1 NOT DUP5 AND SWAP4 POP DUP1 DUP7 AND DUP5 OR SWAP3 POP POP POP SWAP4 SWAP3 POP POP POP JUMP JUMPDEST PUSH0 DUP2 SWAP1 POP SWAP2 SWAP1 POP JUMP JUMPDEST PUSH0 PUSH2 0x25D5 PUSH2 0x25D0 PUSH2 0x25CB DUP5 PUSH2 0x1B56 JUMP JUMPDEST PUSH2 0x25B2 JUMP JUMPDEST PUSH2 0x1B56 JUMP JUMPDEST SWAP1 POP SWAP2 SWAP1 POP JUMP JUMPDEST PUSH0 DUP2 SWAP1 POP SWAP2 SWAP1 POP JUMP JUMPDEST PUSH2 0x25EE DUP4 PUSH2 0x25BB JUMP JUMPDEST PUSH2 0x2602 PUSH2 0x25FA DUP3 PUSH2 0x25DC JUMP JUMPDEST DUP5 DUP5 SLOAD PUSH2 0x2561 JUMP JUMPDEST DUP3 SSTORE POP POP POP POP JUMP JUMPDEST PUSH0 PUSH0 SWAP1 POP SWAP1 JUMP JUMPDEST PUSH2 0x2619 PUSH2 0x260A JUMP JUMPDEST PUSH2 0x2624 DUP2 DUP5 DUP5 PUSH2 0x25E5 JUMP JUMPDEST POP POP POP JUMP JUMPDEST JUMPDEST DUP2 DUP2 LT ISZERO PUSH2 0x2647 JUMPI PUSH2 0x263C PUSH0 DUP3 PUSH2 0x2611 JUMP JUMPDEST PUSH1 0x1 DUP2 ADD SWAP1 POP PUSH2 0x262A JUMP JUMPDEST POP POP JUMP JUMPDEST PUSH1 0x1F DUP3 GT ISZERO PUSH2 0x268C JUMPI PUSH2 0x265D DUP2 PUSH2 0x2534 JUMP JUMPDEST PUSH2 0x2666 DUP5 PUSH2 0x2546 JUMP JUMPDEST DUP2 ADD PUSH1 0x20 DUP6 LT ISZERO PUSH2 0x2675 JUMPI DUP2 SWAP1 POP JUMPDEST PUSH2 0x2689 PUSH2 0x2681 DUP6 PUSH2 0x2546 JUMP JUMPDEST DUP4 ADD DUP3 PUSH2 0x2629 JUMP JUMPDEST POP POP JUMPDEST POP POP POP JUMP JUMPDEST PUSH0 DUP3 DUP3 SHR SWAP1 POP SWAP3 SWAP2 POP POP JUMP JUMPDEST PUSH0 PUSH2 0x26AC PUSH0 NOT DUP5 PUSH1 0x8 MUL PUSH2 0x2691 JUMP JUMPDEST NOT DUP1 DUP4 AND SWAP2 POP POP SWAP3 SWAP2 POP POP JUMP JUMPDEST PUSH0 PUSH2 0x26C4 DUP4 DUP4 PUSH2 0x269D JUMP JUMPDEST SWAP2 POP DUP3 PUSH1 0x2 MUL DUP3 OR SWAP1 POP SWAP3 SWAP2 POP POP JUMP JUMPDEST PUSH2 0x26DD DUP3 PUSH2 0x1C89 JUMP JUMPDEST PUSH8 0xFFFFFFFFFFFFFFFF DUP2 GT ISZERO PUSH2 0x26F6 JUMPI PUSH2 0x26F5 PUSH2 0x2507 JUMP JUMPDEST JUMPDEST PUSH2 0x2700 DUP3 SLOAD PUSH2 0x2423 JUMP JUMPDEST PUSH2 0x270B DUP3 DUP3 DUP6 PUSH2 0x264B JUMP JUMPDEST PUSH0 PUSH1 0x20 SWAP1 POP PUSH1 0x1F DUP4 GT PUSH1 0x1 DUP2 EQ PUSH2 0x273C JUMPI PUSH0 DUP5 ISZERO PUSH2 0x272A JUMPI DUP3 DUP8 ADD MLOAD SWAP1 POP JUMPDEST PUSH2 0x2734 DUP6 DUP3 PUSH2 0x26B9 JUMP JUMPDEST DUP7 SSTORE POP PUSH2 0x279B JUMP JUMPDEST PUSH1 0x1F NOT DUP5 AND PUSH2 0x274A DUP7 PUSH2 0x2534 JUMP JUMPDEST PUSH0 JUMPDEST DUP3 DUP2 LT ISZERO PUSH2 0x2771 JUMPI DUP5 DUP10 ADD MLOAD DUP3 SSTORE PUSH1 0x1 DUP3 ADD SWAP2 POP PUSH1 0x20 DUP6 ADD SWAP5 POP PUSH1 0x20 DUP2 ADD SWAP1 POP PUSH2 0x274C JUMP JUMPDEST DUP7 DUP4 LT ISZERO PUSH2 0x278E JUMPI DUP5 DUP10 ADD MLOAD PUSH2 0x278A PUSH1 0x1F DUP10 AND DUP3 PUSH2 0x269D JUMP JUMPDEST DUP4 SSTORE POP JUMPDEST PUSH1 0x1 PUSH1 0x2 DUP9 MUL ADD DUP9 SSTORE POP POP POP JUMPDEST POP POP POP POP POP POP JUMP JUMPDEST PUSH0 PUSH2 0x27AD DUP3 PUSH2 0x1B56 JUMP JUMPDEST SWAP2 POP PUSH2 0x27B8 DUP4 PUSH2 0x1B56 JUMP JUMPDEST SWAP3 POP DUP3 DUP3 SUB SWAP1 POP DUP2 DUP2 GT ISZERO PUSH2 0x27D0 JUMPI PUSH2 0x27CF PUSH2 0x22D1 JUMP JUMPDEST JUMPDEST SWAP3 SWAP2 POP POP JUMP JUMPDEST PUSH0 PUSH1 0x20 DUP3 ADD SWAP1 POP PUSH2 0x27E9 PUSH0 DUP4 ADD DUP5 PUSH2 0x2331 JUMP JUMPDEST SWAP3 SWAP2 POP POP JUMP INVALID LOG2 PUSH5 0x6970667358 0x22 SLT KECCAK256 0xE4 LOG0 COINBASE DUP15 EQ ADDMOD PUSH21 0xB186AECE8397BACFA030CC8369D3C57D245B44CBF7 XOR SHL PUSH15 0xD864736F6C634300081C0033000000 "
				},
				"gasEstimates": {
					"creation": {
						"codeDepositCost": "2055400",
						"executionCost": "infinite",
						"totalCost": "infinite"
					},
					"external": {
						"countVotes()": "infinite",
						"endProposalsRegistration()": "infinite",
						"endVotingSession()": "infinite",
						"getBallotStatus()": "4833",
						"getProposals()": "infinite",
						"getVoters()": "infinite",
						"getWinner()": "11402",
						"getWinningProposal()": "infinite",
						"owner()": "2603",
						"register(address[])": "infinite",
						"registerProposal(address,string)": "infinite",
						"renounceOwnership()": "infinite",
						"resetVoting()": "infinite",
						"startProposalsRegistration()": "infinite",
						"startVotingSession()": "infinite",
						"tallyVotes()": "infinite",
						"transferOwnership(address)": "infinite",
						"vote(uint256)": "infinite"
					}
				},
				"methodIdentifiers": {
					"countVotes()": "b647990a",
					"endProposalsRegistration()": "6c297445",
					"endVotingSession()": "a7bfab16",
					"getBallotStatus()": "a10cfae5",
					"getProposals()": "62564c48",
					"getVoters()": "cdd72253",
					"getWinner()": "8e7ea5b2",
					"getWinningProposal()": "a5134620",
					"owner()": "8da5cb5b",
					"register(address[])": "43dc3ab2",
					"registerProposal(address,string)": "e5349fe8",
					"renounceOwnership()": "715018a6",
					"resetVoting()": "856e698c",
					"startProposalsRegistration()": "e09b8c79",
					"startVotingSession()": "ee74c678",
					"tallyVotes()": "378a2178",
					"transferOwnership(address)": "f2fde38b",
					"vote(uint256)": "0121b93f"
				}
			},
			"storageLayout": {
				"storage": [
					{
						"astId": 649,
						"contract": "2. Solidity/Projet1/Voting.sol:Voting",
						"label": "_owner",
						"offset": 0,
						"slot": "0",
						"type": "t_address"
					},
					{
						"astId": 28,
						"contract": "2. Solidity/Projet1/Voting.sol:Voting",
						"label": "_voters",
						"offset": 0,
						"slot": "1",
						"type": "t_mapping(t_address,t_struct(Voter)18_storage)"
					},
					{
						"astId": 32,
						"contract": "2. Solidity/Projet1/Voting.sol:Voting",
						"label": "_proposalOwner",
						"offset": 0,
						"slot": "2",
						"type": "t_mapping(t_uint256,t_address)"
					},
					{
						"astId": 36,
						"contract": "2. Solidity/Projet1/Voting.sol:Voting",
						"label": "_proposals",
						"offset": 0,
						"slot": "3",
						"type": "t_array(t_struct(Proposal)23_storage)dyn_storage"
					},
					{
						"astId": 39,
						"contract": "2. Solidity/Projet1/Voting.sol:Voting",
						"label": "_voterAddresses",
						"offset": 0,
						"slot": "4",
						"type": "t_array(t_address)dyn_storage"
					},
					{
						"astId": 41,
						"contract": "2. Solidity/Projet1/Voting.sol:Voting",
						"label": "winningProposalId",
						"offset": 0,
						"slot": "5",
						"type": "t_uint256"
					},
					{
						"astId": 44,
						"contract": "2. Solidity/Projet1/Voting.sol:Voting",
						"label": "winningProposals",
						"offset": 0,
						"slot": "6",
						"type": "t_array(t_uint256)dyn_storage"
					},
					{
						"astId": 47,
						"contract": "2. Solidity/Projet1/Voting.sol:Voting",
						"label": "ballotStatus",
						"offset": 0,
						"slot": "7",
						"type": "t_enum(WorkflowStatus)11"
					}
				],
				"types": {
					"t_address": {
						"encoding": "inplace",
						"label": "address",
						"numberOfBytes": "20"
					},
					"t_array(t_address)dyn_storage": {
						"base": "t_address",
						"encoding": "dynamic_array",
						"label": "address[]",
						"numberOfBytes": "32"
					},
					"t_array(t_struct(Proposal)23_storage)dyn_storage": {
						"base": "t_struct(Proposal)23_storage",
						"encoding": "dynamic_array",
						"label": "struct Voting.Proposal[]",
						"numberOfBytes": "32"
					},
					"t_array(t_uint256)dyn_storage": {
						"base": "t_uint256",
						"encoding": "dynamic_array",
						"label": "uint256[]",
						"numberOfBytes": "32"
					},
					"t_bool": {
						"encoding": "inplace",
						"label": "bool",
						"numberOfBytes": "1"
					},
					"t_enum(WorkflowStatus)11": {
						"encoding": "inplace",
						"label": "enum Voting.WorkflowStatus",
						"numberOfBytes": "1"
					},
					"t_mapping(t_address,t_struct(Voter)18_storage)": {
						"encoding": "mapping",
						"key": "t_address",
						"label": "mapping(address => struct Voting.Voter)",
						"numberOfBytes": "32",
						"value": "t_struct(Voter)18_storage"
					},
					"t_mapping(t_uint256,t_address)": {
						"encoding": "mapping",
						"key": "t_uint256",
						"label": "mapping(uint256 => address)",
						"numberOfBytes": "32",
						"value": "t_address"
					},
					"t_string_storage": {
						"encoding": "bytes",
						"label": "string",
						"numberOfBytes": "32"
					},
					"t_struct(Proposal)23_storage": {
						"encoding": "inplace",
						"label": "struct Voting.Proposal",
						"members": [
							{
								"astId": 20,
								"contract": "2. Solidity/Projet1/Voting.sol:Voting",
								"label": "description",
								"offset": 0,
								"slot": "0",
								"type": "t_string_storage"
							},
							{
								"astId": 22,
								"contract": "2. Solidity/Projet1/Voting.sol:Voting",
								"label": "voteCount",
								"offset": 0,
								"slot": "1",
								"type": "t_uint256"
							}
						],
						"numberOfBytes": "64"
					},
					"t_struct(Voter)18_storage": {
						"encoding": "inplace",
						"label": "struct Voting.Voter",
						"members": [
							{
								"astId": 13,
								"contract": "2. Solidity/Projet1/Voting.sol:Voting",
								"label": "isRegistered",
								"offset": 0,
								"slot": "0",
								"type": "t_bool"
							},
							{
								"astId": 15,
								"contract": "2. Solidity/Projet1/Voting.sol:Voting",
								"label": "hasVoted",
								"offset": 1,
								"slot": "0",
								"type": "t_bool"
							},
							{
								"astId": 17,
								"contract": "2. Solidity/Projet1/Voting.sol:Voting",
								"label": "votedProposalId",
								"offset": 0,
								"slot": "1",
								"type": "t_uint256"
							}
						],
						"numberOfBytes": "64"
					},
					"t_uint256": {
						"encoding": "inplace",
						"label": "uint256",
						"numberOfBytes": "32"
					}
				}
			},
			"userdoc": {
				"kind": "user",
				"methods": {},
				"version": 1
			}
		}
	}
}